:020000040800F2
:1000000000000420654B040835A6030837A6030842
:1000100039A603083BA603083DA60308000000001C
:100020000000000000000000000000003FA60308E0
:1000300041A603080000000043A6030845A60308E4
:10004000B54B0408B54B0408B54B0408B54B040880
:10005000B54B0408B54B0408258803083D88030800
:10006000B54B0408558803086D880308B54B040890
:10007000B54B0408B54B0408B54B0408B54B040850
:10008000B54B0408558B0308B54B0408B54B040861
:1000900075630308B54B0408B54B0408858803084D
:1000A000B54B04087DAB0308B54B0408B54B0408F9
:1000B000C1AB030805AC03084DAC0308358B03083E
:1000C000418B0308B54B0408B54B0408B54B040835
:1000D000B54B0408B54B0408ADA3030835A30308CA
:1000E000B9880308B54B0408B54B0408B54B0408A0
:1000F000B54B0408B54B0408B54B0408B54B0408D0
:1001000000000000B54B0408F5860308B54B040851
:100110000000000000000000B54B04089DAC03087F
:10012000B54B0408B54B0408E1A50308EDA5030889
:10013000B54B0408B54B0408B54B0408B54B04088F
:10014000B54B0408B54B0408B54B040865A6030875
:10015000B54B0408B54B0408959A0308B54B040841
:10016000B54B0408B54B0408000000000000000077
:10017000000000000000000000000000000000007F
:10018000B54B0408B54B0408000000000000000057
:10019000B54B0408B54B0408000000000000000047
:1001A000000000000000000000000000000000004F
:1001B000B54B04080000000000000000B54B040827
:0401C000B54B04082F
:1001D00010F8012B11F8013B012A28BF9A42F7D0F1
:1001E000D01A70470000000000000000000000006E
:1001F00001F0FF01102A2BDB10F0070F08D010F8D8
:10020000013B013A8B422DD010F0070F42B3F6D1DB
:10021000F0B441EA012141EA014122F007047FF0F4
:1002200000070023F0E80256083C85EA010586EA4B
:10023000010685FA47F5A3FA87F586FA47F6A5FA87
:1002400087F68EB9EED1F0BC01F0FF0102F0070293
:1002500032B110F8013B013A83EA010313B1F8D13E
:100260000020704701387047002D06BF354603381F
:10027000073815F0010F07D1013015F4807F02BF58
:10028000013015F4C03F0130F0BC0138704700BFA9
:10029000034613F8012B002AFBD1181A01387047C6
:1002A00081F0004102E000BF83F0004330B54FEA27
:1002B00041044FEA430594EA050F08BF90EA020F94
:1002C0001FBF54EA000C55EA020C7FEA645C7FEA27
:1002D000655C00F0E2804FEA5454D4EB5555B8BF4A
:1002E0006D420CDD2C4480EA020281EA030382EABB
:1002F000000083EA010180EA020281EA0303362D4D
:1003000088BF30BD11F0004F4FEA01314FF4801C1F
:100310004CEA113102D0404261EB410113F0004F31
:100320004FEA03334CEA133302D0524263EB4303E8
:1003300094EA050F00F0A780A4F10104D5F1200E86
:100340000DDB02FA0EFC22FA05F2801841F10001E1
:1003500003FA0EF2801843FA05F359410EE0A5F1B5
:1003600020050EF1200E012A03FA0EFC28BF4CF0E6
:10037000020C43FA05F3C01851EBE37101F000459C
:1003800007D54FF0000EDCF1000C7EEB00006EEBA9
:100390000101B1F5801F1BD3B1F5001F0CD3490833
:1003A0005FEA30004FEA3C0C04F101044FEA44528A
:1003B00012F5800F80F09A80BCF1004F08BF5FEA11
:1003C000500C50F1000041EB045141EA050130BDF1
:1003D0005FEA4C0C404141EB0101013C28BFB1F503
:1003E000801FE9D291F0000F04BF01460020B1FA4E
:1003F00081F308BF2033A3F10B03B3F120020CDA21
:100400000C3208DD02F1140CC2F10C0201FA0CF0FE
:1004100021FA02F10CE002F11402D8BFC2F1200C63
:1004200001FA02F120FA0CFCDCBF41EA0C01904019
:10043000E41AA2BF01EB0451294330BD6FEA040462
:100440001F3C1CDA0C340EDC04F11404C4F120024D
:1004500020FA04F001FA02F340EA030021FA04F35F
:1004600045EA030130BDC4F10C04C4F1200220FAB6
:1004700002F001FA04F340EA0300294630BD21FAF4
:1004800004F0294630BD94F0000F83F4801306BFBA
:1004900081F480110134013D4EE77FEA645C18BFAE
:1004A0007FEA655C29D094EA050F08BF90EA020F45
:1004B00005D054EA000C04BF1946104630BD91EA3D
:1004C000030F1EBF0021002030BD5FEA545C05D140
:1004D0004000494128BF41F0004130BD14F580047F
:1004E0003CBF01F5801130BD01F0004545F0FE41F3
:1004F00041F470014FF0000030BD7FEA645C1ABF28
:10050000194610467FEA655C1CBF0B46024650EA5E
:10051000013406BF52EA033591EA030F41F400218A
:1005200030BD00BF90F0000F04BF0021704730B510
:100530004FF4806404F132044FF000054FF00001E5
:1005400050E700BF90F0000F04BF0021704730B5A6
:100550004FF4806404F1320410F0004548BF40427B
:100560004FF000013EE700BF42004FEAE2014FEAD0
:1005700031014FEA02701FBF12F07F4393F07F4FAB
:1005800081F06051704732F07F4208BF704793F0AE
:100590007F4F04BF41F40021704730B54FF46074C1
:1005A00001F0004521F000411CE700BF50EA0102C4
:1005B00008BF704730B54FF000050AE050EA01026D
:1005C00008BF704730B511F0004502D5404261EBDD
:1005D00041014FF4806404F132045FEA915C3FF41E
:1005E000D8AE4FF003025FEADC0C18BF03325FEABB
:1005F000DC0C18BF033202EBDC02C2F1200300FA6C
:1006000003FC20FA02F001FA03FE40EA0E0021FA90
:1006100002F11444BDE600BF70B54FF0FF0C4CF47E
:10062000E06C1CEA11541DBF1CEA135594EA0C0F30
:1006300095EA0C0F00F0DEF82C4481EA030621EA6B
:100640004C5123EA4C5350EA013518BF52EA0335A6
:1006500041F4801143F4801338D0A0FB02CE4FF058
:100660000005E1FB02E506F00042E0FB03E54FF088
:100670000006E1FB03569CF0000F18BF4EF0010E80
:10068000A4F1FF04B6F5007F64F5407404D25FEA7C
:100690004E0E6D4146EB060642EAC62141EA55512F
:1006A0004FEAC52040EA5E504FEACE2EB4F1FD0C71
:1006B00088BFBCF5E06F1ED8BEF1004F08BF5FEAEF
:1006C000500E50F1000041EB045170BD06F00046A1
:1006D00046EA010140EA020081EA0301B4EB5C044E
:1006E000C2BFD4EB0C0541EA045170BD41F4801146
:1006F0004FF0000E013C00F3AB8014F1360FDEBF6B
:10070000002001F0004170BDC4F10004203C35DA46
:100710000C341BDC04F11404C4F1200500FA05F3C9
:1007200020FA04F001FA05F240EA020001F000426A
:1007300021F0004110EBD37021FA04F642EB0601E0
:100740005EEA430E08BF20EAD37070BDC4F10C040A
:10075000C4F1200500FA04F320FA05F001FA04F2CE
:1007600040EA020001F0004110EBD37041F10001BA
:100770005EEA430E08BF20EAD37070BDC4F12005C5
:1007800000FA05F24EEA020E20FA04F301FA05F22D
:1007900043EA020321FA04F001F0004121FA04F2D5
:1007A00020EA020000EBD3705EEA430E08BF20EAA5
:1007B000D37070BD94F0000F0FD101F000464000DF
:1007C00041EB010111F4801F08BF013CF7D041EA61
:1007D000060195F0000F18BF704703F00046520065
:1007E00043EB030313F4801F08BF013DF7D043EA36
:1007F0000603704794EA0C0F0CEA135518BF95EAEC
:100800000C0F0CD050EA410618BF52EA4306D1D172
:1008100081EA030101F000414FF0000070BD50EA91
:10082000410606BF1046194652EA430619D094EA1B
:100830000C0F02D150EA013613D195EA0C0F05D105
:1008400052EA03361CBF104619460AD181EA030159
:1008500001F0004141F0FE4141F470014FF0000011
:1008600070BD41F0FE4141F4780170BD70B54FF0AC
:10087000FF0C4CF4E06C1CEA11541DBF1CEA13552C
:1008800094EA0C0F95EA0C0F00F0A7F8A4EB05040E
:1008900081EA030E52EA03354FEA013100F0888005
:1008A0004FEA03334FF0805545EA131343EA1263CE
:1008B0004FEA022245EA111545EA10654FEA002683
:1008C0000EF000419D4208BF964244F1FD0404F53C
:1008D000407402D25B084FEA3202B61A65EB030598
:1008E0005B084FEA32024FF480104FF4002CB6EB55
:1008F000020E75EB030E22BFB61A754640EA0C00D5
:100900005B084FEA3202B6EB020E75EB030E22BF14
:10091000B61A754640EA5C005B084FEA3202B6EB55
:10092000020E75EB030E22BFB61A754640EA9C0014
:100930005B084FEA3202B6EB020E75EB030E22BFE4
:10094000B61A754640EADC0055EA060E18D04FEAA2
:10095000051545EA16754FEA06164FEAC30343EA42
:1009600052734FEAC2025FEA1C1CC0D111F4801F0F
:100970000BD141EA00014FF000004FF0004CB6E708
:1009800011F4801F04BF01430020B4F1FD0C88BFA7
:10099000BCF5E06F3FF6AFAEB5EB030C04BFB6EBB2
:1009A000020C5FEA500C50F1000041EB045170BDA5
:1009B0000EF0004E4EEA113114EB5C04C2BFD4EBD2
:1009C0000C0541EA045170BD41F480114FF0000E56
:1009D000013C90E645EA060E8DE60CEA135594EAD2
:1009E0000C0F08BF95EA0C0F3FF43BAF94EA0C0FD5
:1009F0000AD150EA01347FF434AF95EA0C0F7FF44A
:100A000025AF104619462CE795EA0C0F06D152EA9D
:100A100003353FF4FDAE1046194622E750EA410681
:100A200018BF52EA43067FF4C5AE50EA41047FF492
:100A30000DAF52EA43057FF4EBAE12E74FF0FF3CF7
:100A400006E000BF4FF0010C02E000BF4FF0010CC8
:100A50004DF804CD4FEA410C7FEA6C5C4FEA430C41
:100A600018BF7FEA6C5C1BD001B050EA410C0CBF90
:100A700052EA430C91EA030F02BF90EA020F0020F2
:100A8000704710F1000F91EA030F58BF994208BF59
:100A900090422CBFD8176FEAE37040F00100704716
:100AA0004FEA410C7FEA6C5C02D150EA013C07D16D
:100AB0004FEA430C7FEA6C5CD6D152EA033CD3D0B8
:100AC0005DF8040B704700BF8446104662468C46B2
:100AD0001946634600E000BF01B5FFF7B7FF0028E5
:100AE00048BF10F1000F01BD4DF808EDFFF7F4FF0E
:100AF0000CBF012000205DF808FB00BF4DF808ED99
:100B0000FFF7EAFF34BF012000205DF808FB00BFBB
:100B10004DF808EDFFF7E0FF94BF012000205DF8DD
:100B200008FB00BF4DF808EDFFF7CEFF94BF012092
:100B300000205DF808FB00BF4DF808EDFFF7C4FF8B
:100B400034BF012000205DF808FB00BF4FEA410CD4
:100B50007FEA6C5C02D150EA013C0AD14FEA430CB7
:100B60007FEA6C5C02D152EA033C02D14FF00000F4
:100B700070474FF0010070474FEA410212F5001232
:100B800015D211D56FF47873B3EB625212D94FEAD4
:100B9000C12343F0004343EA505311F0004F23FABE
:100BA00002F018BF404270474FF00000704750EA13
:100BB000013005D111F0004008BF6FF000407047D0
:100BC0004FF00000704700BF4A0011D212F500122A
:100BD00011D20DD56FF47873B3EB62520ED44FEA95
:100BE000C12343F0004343EA505323FA02F0704715
:100BF0004FF00000704750EA013002D14FF0FF3053
:100C000070474FF0000070474FEA4102B2F1E043F5
:100C100024BFB3F5001CDCF1FE5C0DD901F0004CE3
:100C20004FEAC0024CEA5070B2F1004F40EB830033
:100C300008BF20F00100704711F0804F21D113F15F
:100C40003872BCBF01F00040704741F480114FEA98
:100C50005252C2F11802C2F1200C10FA0CF320FA21
:100C600002F018BF40F001004FEAC1234FEAD3233E
:100C700003FA0CFC40EA0C0023FA02F34FEA4303A8
:100C8000CCE77FEA625307D150EA01331EBF4FF031
:100C9000FE4040F44000704701F0004040F0FE404C
:100CA00040F40000704700BF80F0004002E000BF49
:100CB00081F0004142001FBF5FEA410392EA030F47
:100CC0007FEA226C7FEA236C6AD04FEA1262D2EB91
:100CD0001363C1BFD218414048404140B8BF5B4296
:100CE000192B88BF704710F0004F40F4000020F02F
:100CF0007F4018BF404211F0004F41F4000121F045
:100D00007F4118BF494292EA030F3FD0A2F101028E
:100D100041FA03FC10EB0C00C3F1200301FA03F1CC
:100D200000F0004302D5494260EB4000B0F5000FEF
:100D300013D3B0F1807F06D340084FEA310102F1AE
:100D40000102FE2A51D2B1F1004F40EBC25008BF60
:100D500020F0010040EA03007047490040EB00002A
:100D6000013A28BFB0F5000FEDD2B0FA80FCACF12B
:100D7000080CB2EB0C0200FA0CF0AABF00EBC25058
:100D800052421843BCBFD0401843704792F0000F46
:100D900081F4000106BF80F400000132013BB5E799
:100DA0004FEA41037FEA226C18BF7FEA236C21D00F
:100DB00092EA030F04D092F0000F08BF0846704774
:100DC00090EA010F1CBF0020704712F07F4F04D142
:100DD000400028BF40F00040704712F100723CBF55
:100DE00000F50000704700F0004343F0FE4040F47F
:100DF000000070477FEA226216BF08467FEA23633D
:100E00000146420206BF5FEA412390EA010F40F427
:100E1000800070474FF0000304E000BF10F0004373
:100E200048BF40425FEA000C08BF704743F096435A
:100E300001464FF000001CE050EA010208BF704775
:100E40004FF000030AE000BF50EA010208BF7047FC
:100E500011F0004302D5404261EB41015FEA010C11
:100E600002BF84460146002043F0B64308BFA3F109
:100E70008053A3F50003BCFA8CF2083AA3EBC253EB
:100E800010DB01FA02FC634400FA02FCC2F120020A
:100E9000BCF1004F20FA02F243EB020008BF20F041
:100EA0000100704702F1200201FA02FCC2F12002A7
:100EB00050EA4C0021FA02F243EB020008BF20EA9C
:100EC000DC7070474FF0FF0C1CEAD0521EBF1CEACA
:100ED000D15392EA0C0F93EA0C0F6FD01A4480EAB8
:100EE000010C400218BF5FEA41211ED04FF00063A1
:100EF00043EA501043EA5111A0FB01310CF00040CD
:100F0000B1F5000F3EBF490041EAD3715B0040EAF2
:100F1000010062F17F02FD2A1DD8B3F1004F40EBC2
:100F2000C25008BF20F00100704790F0000F0CF095
:100F3000004C08BF49024CEA502040EA51207F3A59
:100F4000C2BFD2F1FF0340EAC250704740F4000034
:100F50004FF00003013A5DDC12F1190FDCBF00F025
:100F600000407047C2F10002410021FA02F1C2F1D3
:100F7000200200FA02FC5FEA310040F1000053EA6F
:100F80004C0308BF20EADC70704792F0000F00F0BD
:100F9000004C02BF400010F4000F013AF9D040EAC3
:100FA0000C0093F0000F01F0004C02BF490011F457
:100FB000000F013BF9D041EA0C018FE70CEAD15355
:100FC00092EA0C0F18BF93EA0C0F0AD030F0004CD5
:100FD00018BF31F0004CD8D180EA010000F0004089
:100FE000704790F0000F17BF90F0004F084691F047
:100FF000000F91F0004F14D092EA0C0F01D1420281
:101000000FD193EA0C0F03D14B0218BF084608D149
:1010100080EA010000F0004040F0FE4040F4000093
:10102000704740F0FE4040F4400070474FF0FF0C26
:101030001CEAD0521EBF1CEAD15392EA0C0F93EA6D
:101040000C0F69D0A2EB030280EA010C49024FEABF
:10105000402037D04FF0805343EA111143EA101378
:101060000CF000408B4238BF5B0042F17D024FF430
:10107000000C8B4224BF5B1A40EA0C00B3EB510F0B
:1010800024BFA3EB510340EA5C00B3EB910F24BFF4
:10109000A3EB910340EA9C00B3EBD10F24BFA3EB79
:1010A000D10340EADC001B0118BF5FEA1C1CE0D141
:1010B000FD2A3FF650AF8B4240EBC25008BF20F0F4
:1010C000010070470CF0004C4CEA50207F32C2BF48
:1010D000D2F1FF0340EAC250704740F400004FF0E5
:1010E0000003013A37E792F0000F00F0004C02BF16
:1010F000400010F4000F013AF9D040EA0C0093F0E0
:10110000000F01F0004C02BF490011F4000F013B39
:10111000F9D041EA0C0195E70CEAD15392EA0C0FA1
:1011200008D142027FF47DAF93EA0C0F7FF470AFD9
:10113000084676E793EA0C0F04D14B023FF44CAF1C
:1011400008466EE730F0004C18BF31F0004CCAD1B1
:1011500030F000427FF45CAF31F000437FF43CAFED
:101160005FE700BF4FF0FF3C06E000BF4FF0010C0F
:1011700002E000BF4FF0010C4DF804CD4FEA4002F1
:101180004FEA41037FEA226C18BF7FEA236C11D03B
:1011900001B052EA530C18BF90EA010F58BFB2EBEE
:1011A000030088BFC81738BF6FEAE17018BF40F06E
:1011B000010070477FEA226C02D15FEA402C05D122
:1011C0007FEA236CE4D15FEA412CE1D05DF8040BA7
:1011D000704700BF844608466146FFE70FB5FFF73A
:1011E000C9FF002848BF10F1000F0FBD4DF808EDF2
:1011F000FFF7F4FF0CBF012000205DF808FB00BFE3
:101200004DF808EDFFF7EAFF34BF012000205DF83C
:1012100008FB00BF4DF808EDFFF7E0FF94BF012089
:1012200000205DF808FB00BF4DF808EDFFF7D2FF86
:1012300094BF012000205DF808FB00BF4DF808EDC9
:10124000FFF7C8FF34BF012000205DF808FB00BF96
:101250004FEA40024FEA41037FEA226C02D15FEA83
:10126000402C08D17FEA236C02D15FEA412C02D1E5
:101270004FF0000070474FF0010070474FEA400206
:10128000B2F1FE4F0FD34FF09E03B3EB12620DD9B4
:101290004FEA002343F0004310F0004F23FA02F01E
:1012A00018BF404270474FF00000704712F1610FC5
:1012B00001D1420205D110F0004008BF6FF000409C
:1012C00070474FF00000704742000ED2B2F1FE4F5F
:1012D0000BD34FF09E03B3EB126209D44FEA002305
:1012E00043F0004323FA02F070474FF000007047CC
:1012F00012F1610F01D1420202D14FF0FF3070476D
:101300004FF00000704700BF7BB972B90029BEBF23
:1013100000204FF0004106E008BF00281CBF6FF01E
:1013200000414FF0FF3000F057B8ADF1080C6DE907
:1013300004CE002909DB002B1ADB40F06FF9DDF841
:1013400004E0DDE9022304B07047404261EB410153
:10135000002B1BDB40F062F9DDF804E0DDE902233D
:1013600004B0404261EB4101524263EB43037047DA
:10137000524263EB430340F051F9DDF804E0DDE94C
:10138000022304B0404261EB41017047524263EBDB
:10139000430340F043F9DDF804E0DDE9022304B043
:1013A000524263EB4303704753B94AB9002908BF5F
:1013B00000281CBF4FF0FF314FF0FF3000F00CB899
:1013C000ADF1080C6DE904CE40F028F9DDF804E039
:1013D000DDE9022304B07047704700BF0348044BA7
:1013E000834202D0034B03B118477047881B00208B
:1013F000881B0020000000000548064B1B1AD90F6F
:1014000001EBA301491002D0034B03B11847704709
:10141000881B0020881B00200000000010B5064C2F
:10142000237843B9FFF7DAFF044B13B10448AFF355
:1014300000800123237010BD881B002000000000E5
:10144000B84B040808B5054B1BB105490548AFF377
:101450000080BDE80840FFF7CFBF00BF00000000DC
:101460008C1B0020B84B04087047000010B5094BD6
:101470004FF0FF3200241A621C625A625C621A61E9
:101480001C615A615C619A619C61FFF7EDFF204627
:1014900010BD00BF0038024038B50E4B1A784FF42B
:1014A0007A73B3FBF2F30C4A05461068B0FBF3F015
:1014B00000F058FC044658B90F2D09D802462946B9
:1014C0004FF0FF3000F0FCFB044B20461D6038BDA0
:1014D0000120FCE700000020E416002004000020AA
:1014E00008B50B4B1A6842F400721A601A6842F48D
:1014F00080621A601A6842F480721A60032000F059
:10150000CDFB0F20FFF7C8FF39F076F8002008BDAB
:10151000003C0240034A044B11681B780B441360E3
:10152000704700BFA41B002000000020014B18687A
:10153000704700BFA41B002038B50446FFF7F6FF34
:10154000631C1CBF054B1B78054618BFE418FFF74A
:10155000EDFF431BA342FAD338BD00BF00000020BB
:10156000014BD3F8100A70470070FF1F014BD3F8EE
:10157000140A70470070FF1F014BD3F8180A704718
:101580000070FF1F7047000038B50446002800F0C7
:101590009B80056C25B9FFF7F5FF656484F83C5026
:1015A000236CDB0600F18E80236C23F4885323F038
:1015B000020343F002032364444B5A6822F440328E
:1015C0005A605A6861680A435A60236821695A68F8
:1015D00022F480725A605A6842EA01225A605A68BC
:1015E000A16822F040725A605A680A435A609A68A9
:1015F000E16822F400629A609A680A439A6034496A
:10160000A26A8A4252D0996821F070619960996803
:101610000A439A609A68E16A22F040529A609A6896
:101620000A439A609A6822F002029A609A68217EC0
:1016300042EA41029A6094F82020002A3ED05A687B
:10164000616A42F400625A605A6822F460425A6049
:101650005A68013942EA41325A60DA6AE16922F491
:101660007002DA62DA6A013942EA0152DA629A6891
:1016700022F400729A609A6894F8301042EA41228B
:101680009A609A68616922F480629A609A68002080
:1016900042EA81229A606064236C23F0030343F0E2
:1016A00001032364002384F83C3038BD9A6822F09B
:1016B00070629A609A6822F04052B2E75A6822F447
:1016C0000062C9E70120EDE70120EEE700230140B9
:1016D0000100000F82B00023019390F83C30012BF1
:1016E00056D0012380F83C3003689A68D1070BD5A7
:1016F0009A68D2071AD4036C43F010030364436C56
:1017000043F00103436440E09A68224942F0010239
:101710009A60214A1268B2FBF1F202EB4202019296
:10172000019A002AE4D0019A013AF8E7026C22F407
:10173000E06222F0010242F4807202645A685105AC
:1017400041BF026C22F4405242F480520264026CA7
:1017500012F480521CBF426C22F006024264002246
:1017600080F83C206FF022021A600C4A5268D206C0
:1017700008D19A6812F0405F02BF9A6842F0804236
:101780009A6002E0064A9342F3D0002002B070470C
:101790000220FBE740420F00E41600200023014036
:1017A0000020014003689A68520570B504460D4652
:1017B0000BD59B68DE0508D5036C43F0200303645A
:1017C000002380F83C30012070BDFFF7AFFE0646D5
:1017D00023681A6891070CD56FF012021A60226C08
:1017E00042F4007222649A6812F0405F17D0002021
:1017F000EAE7681CEDD065B923681B6813F00203A3
:10180000E6D1226C84F83C3042F0040222640320CA
:10181000DAE7FFF78BFE801BA842EDD8D8E7227EDF
:10182000002AE4D1DA6A12F4700F02D09B685A05DC
:10183000DDD4236C23F480732364236CDB04D6D4BF
:10184000236C43F001032364D1E70368D86C70472D
:10185000F7B50023019390F83C30012B05467CD06E
:10186000012380F83C3008682B688E68092884B210
:1018700030D904EB4402DF681E3A4FF0070C0CFA33
:1018800002FC27EA0C07DF60DF6806FA02F23A433F
:10189000DA604968062901EB81022AD8596B053ABA
:1018A0001F26964021EA06015963596B04FA02F299
:1018B0000A435A632A4A934207D1122834D1D2F8F4
:1018C000043343F48003C2F80433002085F83C005D
:1018D00003B0F0BD1A6900EB400C072707FA0CF7BC
:1018E00022EA07021A611A6906FA0CF616431E610B
:1018F000CFE70C294FF01F010BD81E6B233A914004
:1019000026EA01011963196B04FA02F20A431A6309
:10191000D0E7DE6A413A914026EA0101D962D96AEC
:1019200094400C43DC62C5E7A0F11003012BCCD836
:101930000C4A5368102843F400035360C5D10A4B86
:101940000A4A1B68B3FBF2F30A2253430193019B3B
:10195000002BBAD0019B013BF8E70220B8E700BF9B
:101960000020014000230140E416002040420F0007
:10197000F0B590F82040013C012C6CD8066841B9C4
:10198000F468A40707D1436A43F4001343620120BB
:10199000F0BD3469F5E706EB01150C01D5F8B0711F
:1019A00007F004079760002F4BD1D5F8B0717F0D79
:1019B0001760D5F8B07107F00207D760D5F8B47199
:1019C00007F00F071761D5F8B471D5F8B451264464
:1019D000C7F307272D0C97615561D6F8B8211A7007
:1019E00002682244D2F8B821120A5A7002682244CE
:1019F000D2F8B821120C9A7002682244D2F8B821A9
:101A0000120EDA7002682244D2F8BC211A71026800
:101A10002244D2F8BC21120A5A7102682244D2F838
:101A2000BC21120C9A7102682244D2F8BC21120E19
:101A3000DA71036851B9DA6842F02002DA600020F6
:101A4000A6E7D5F8B071FF085760B2E71A6942F00F
:101A500020021A61F3E7436A43F4802396E790F883
:101A60002030013B012B07D8036819B9D86800F072
:101A7000030070471869FAE7002070477047704705
:101A8000704770477047704770477047704770479E
:101A9000704770472DE9F84F03685E69D3F80490EA
:101AA000D3F80880D3F80CB0D3F810A09F6916F0D3
:101AB0000104054627D018F0010F07D0012218F0C5
:101AC000020F9A6000F0A580FFF7D8FF002418F4F9
:101AD000807F0AD02B684FF4807218F4007F9A60E0
:101AE00000F0A6802846FFF7CAFF18F4803F0AD00E
:101AF0002B684FF4803218F4003F9A6000F0A88001
:101B00002846FFF7BDFF310707D51BF0100F1FBF99
:101B10002B68102244F40074DA60720708D51BF0B9
:101B2000080F05D02B680822DA602846FFF7ACFFC3
:101B3000B30706D52B68DB68980702D0284634F037
:101B40001FFC710607D51AF0100F1FBF2B6810225B
:101B500044F480641A61B20608D51AF0080F05D063
:101B60002B6808221A612846FFF790FFF30606D576
:101B70002B681B69980702D02846FFF786FFB10340
:101B800008D519F0100F05D02B6810225A6028468E
:101B9000FFF77DFFF20308D519F0080F05D02B6879
:101BA00008225A602846FFF773FF330428D519F03E
:101BB000040F2A6822D0F00544BF07F001031C433C
:101BC000B10503D5BB0748BF44F00204700503D537
:101BD000790748BF44F0040433050FD517F07003AC
:101BE0000CD0402B54D043D8202B4BD0302B4CD092
:101BF000102B44D0936923F0700393610423536046
:101C00002CB16B6A23436B622846FFF742FFBDE8A5
:101C1000F88F18F0040F05D118F0080F05D1FFF761
:101C200030FF53E74FF4006451E74FF480544EE720
:101C300018F4806F02D044F4005456E718F4006F93
:101C400002D044F4804450E72846FFF71BFF4CE7DE
:101C500018F4802F02D044F4004454E718F4002F05
:101C600002D044F480344EE72846FFF70CFF4AE7E1
:101C7000502B10D0602BBDD144F48074BAE744F0EF
:101C80000804B7E744F01004B4E744F02004B1E7D7
:101C900044F04004AEE744F08004ABE70749CA686B
:101CA00022F4E0620302120403F4E063120C134313
:101CB00043F0BF6343F40033CB60704700ED00E0B6
:101CC000164B30B5DC68C4F30224C4F10703251DAC
:101CD000042B28BF0423062D4FF0FF358CBF033C97
:101CE000002405FA03F321EA0303A54022EA0502D2
:101CF000A340002843EA0203ACBF00F16040084A59
:101D00004FEA0313B8BF00F00F00DBB2AABF00F523
:101D10006140135480F8003330BD00BF00ED00E097
:101D200014ED00E0002807DB4109044A00F01F0021
:101D30000123834042F82130704700BF00E100E0FA
:101D400000280CDB4309064900F01F002033012264
:101D5000824041F82320BFF34F8FBFF36F8F70474E
:101D600000E100E00138B0F1807F0BD24FF0E023BA
:101D7000054A5861F02182F823100020072298615B
:101D80001A6170470120704700ED00E0036810B54C
:101D9000084C0246D9B210391820B1FBF0F0205C93
:101DA000D06523F47F7020F003005F2988BF0430E2
:101DB000906510BD4C4D040870B50446FFF7B6FBA6
:101DC0000546002C60D0022384F8353022680023B9
:101DD00084F83430136823F0010313602268136819
:101DE000D8072ED413683248A1691840D4E90135C8
:101DF0002B43E5682B4325692B4365692B43E56934
:101E00000B432B43256A2B430343606A042802BF1C
:101E1000D4E90B5635432B4313605369042823F050
:101E2000070343EA000335D1A06AE56A03438DB393
:101E300091B9012820D030F002012BD1E90129D538
:101E40001DE0FFF773FB401B0528C7D920230320A3
:101E5000636584F8350070BDB1F5005F16D10328C5
:101E600018D801A151F820F07F1E00083D1E00087F
:101E70007F1E0008791E0008B5F1C07F0AD14023FB
:101E80006365012384F835300120E4E70228F6D9A0
:101E90000328D3D053612046FFF778FFE26D3F233C
:101EA0009340836000200123606584F83530D2E7D9
:101EB0003F8010F070B590F83440866D012C30D022
:101EC000012480F8344090F83540012C4FF0000494
:101ED00025D1022580F8355044650468256825F42D
:101EE0008025256063608368402B0EBFA260A160DF
:101EF000E260C26D08BFE1603F239340B360236896
:101F000043F016032360036C1BB1236843F00803FE
:101F10002360236843F001032360002070BD80F834
:101F200034400220FAE790F83530022B03D08023AA
:101F30004365012070470268052380F83530136837
:101F400023F001031360002070470000F7B5002361
:101F500001935C4B856D1F68C36D2E6808229A4003
:101F6000324204460CD001680868400708D508686A
:101F700020F004000860AA60626D42F00102626510
:101F800001229A40324208D021684969090641BFBE
:101F9000AA60626D42F00202626504229A403242F7
:101FA00008D021680968880741BFAA60626D42F0C5
:101FB0000402626510229A40324210D023681968E8
:101FC00009070CD5AA601A68500337D51B68190396
:101FD00001D4236C00E0A36C0BB120469847E16D5F
:101FE00020228A4032423AD023681868C60636D585
:101FF000AA6094F83520052A1A6827D122F0160223
:102000001A605A6922F080025A61226C0AB9A26CE5
:102010001AB11A6822F008021A603F238B40AB60A5
:10202000012384F83530002384F83430236D002BED
:1020300045D0204603B0BDE8F04018471A68D205E5
:102040005EBF1A6822F008021A60C2E7500327D563
:102050001B68190331D4636C0BB120469847636D3C
:102060006BB3636DDA0719D522684FF41653B7FBCB
:10207000F3F7052384F83530136823F00103136068
:10208000019B0133BB42019302D81368DB07F7D4ED
:10209000012384F83530002384F83430E36CC6E73C
:1020A0001A6812F4807208D1196821F010011960C1
:1020B000012384F8353084F83420E36BCCE703B097
:1020C000F0BD00BFE416002090F835007047406D69
:1020D000704700002DE9F74FDFF878915E4A002342
:1020E0000D6801249C4004EA0506AC4340F0A3803F
:1020F0004D68032705F003044FEA430807FA08FC7C
:10210000671E012F6FEA0C0C34D8876807EA0C0EA3
:10211000CF6807FA08F747EA0E078760476827EA9B
:10212000060EC5F300179F4047EA0E074760C768D1
:1021300007EA0C0E8F6807FA08F747EA0E07022C29
:10214000C76019D14FEAD30A00EB8A0A03F0070BE4
:10215000DAF820704FEA8B0B4FF00F0E0EFA0BFEE1
:1021600027EA0E0E0F6907FA0BF747EA0E07CAF8BF
:10217000207001E0032CDAD1076804FA08F407EABA
:102180000C073C4315F4403F046054D000240194F4
:10219000D9F8444044F48044C9F84440D9F8444054
:1021A00023F0030707F1804704F4804407F59C37C8
:1021B000019403F0030C019CD7F808E04FEA8C0C63
:1021C0000F2404FA0CF42EEA040E244CA04239D059
:1021D00004F58064A04237D004F58064A04235D075
:1021E00004F58064A04233D004F58064A04214BF9B
:1021F0000724042404FA0CF444EA0E04BC601468B6
:10220000F74315F4803F0CBF3C40344314605468DE
:1022100015F4003F0CBF3C4034435460946815F4FF
:10222000801F0CBF3C4034439460D468AD0254BF5F
:102230003C403443D4600133102B7FF451AF03B0E2
:10224000BDE8F08F0024D5E70124D3E70224D1E7CD
:102250000324CFE700380240003C01400000024068
:1022600001684B6913F480634FF0000210D06FF4E3
:1022700080634B612023026380F83D3080F83E206C
:10228000036C80F83C2043F0040303640120704792
:10229000184670472DE9F047089D06468846914646
:1022A0001F464FEA114A3368BAF1010F23D15C6926
:1022B00028EA0404A4B2B4FA84F46409A14501D064
:1022C000002016E07A1CEFD0FFF730F9401BB8422F
:1022D00001D8002FE7D100232022336386F83D2068
:1022E00086F83E30326C86F83C3042F02002326490
:1022F0000120BDE8F0879C69E443C4F3400484F006
:102300000104E4B2DAE72DE9F04104460F4616462F
:1023100098462568686927EA000080B2C0B16B69F9
:102320005A0517D52B6843F400732B606FF4806354
:102330006B6120220023236384F83D2084F83E3023
:10234000236C43F004032364002384F83C30012011
:10235000BDE8F081731CDDD0FFF7E8F8A0EB0800C2
:10236000B04209D900232022236384F83D2084F859
:102370003E30236C1343E6E7002ECAD1F2E770B576
:1023800004460D46164623685B691B0601D50020EE
:1023900018E02046FFF764FF98B96A1CF3D0FFF7F6
:1023A000C5F8801BA8420ED900232022236384F89D
:1023B0003D2084F83E30226C84F83C3042F020020C
:1023C0002264012070BD002DDDD1EDE72DE9F04341
:1023D0001546026885B0DDE90C789946136843F428
:1023E000807313600E463B46CDF8008000224FF00C
:1023F00001110446FFF74EFF236838B11B68DB0567
:1024000002D54FF400732364032620E006F0FE0695
:102410001E611A4943463A462046FFF774FFA8B9A1
:10242000236803905A6903929B6903934246394695
:102430002046039BFFF7A3FF064660B1236C042BE5
:1024400001BF2268136843F400731360012630460D
:1024500005B0BDE8F083B9F1010F236802D1EDB2F8
:102460001D61F4E72A0A1A61394642462046FFF701
:1024700086FF0028E2D12368F1E700BF02000100D7
:102480002DE9FF479A46036815461A6842F48062B0
:102490001A601A68DDE90C7842F480721A600E4600
:1024A0003B46CDF8008000224FF001110446FFF7B3
:1024B000F1FE236838B11B68DB0544BF4FF400739D
:1024C0002364032021E05FFA86F906F0FE061E6110
:1024D0002A4943463A462046FFF715FFA0B923682C
:1024E00003905A6903929B690393424639462046FA
:1024F000039BFFF744FF58B1236C042B01BF2268F4
:10250000136843F400731360012004B0BDE8F08742
:10251000BAF1010F23681AD1EDB242461D61394666
:102520002046FFF72CFF02460028E5D121680B6802
:1025300043F480730B602046CDF800803B464FF09B
:102540000111FFF7A7FE226860B11368B4E72A0AF9
:102550001A61394642462046FFF711FF0028CBD1C9
:102560002368D9E749F00103044913612046434633
:102570003A4604B0BDE8F047FFF7C5BE02000100CF
:1025800070B504460D46164623685B695B0701D5A6
:10259000002018E02046FFF763FE98B96A1CF3D0CC
:1025A000FEF7C4FF801BA8420ED90023202223631C
:1025B00084F83D2084F83E30226C84F83C3042F0B0
:1025C00020022264012070BD002DDDD1EDE770B541
:1025D00004460D46164621684B6913F0400301D0AE
:1025E000002011E04A69D2060FD56FF010024A614F
:1025F0002022236384F83D2084F83E30236C23643A
:10260000002384F83C30012070BDFEF78FFF801B53
:10261000A84209D900232022236384F83D2084F8AE
:102620003E30236C1343EAE7002DD4D1F2E7704724
:1026300070B5044608B9012070BD90F83D3003F034
:10264000FF021BB980F83C20FFF7F1FF242384F838
:102650003D3023681A6822F001021A601A6842F4B9
:1026600000421A601A6822F400421A6002F016F85A
:102670003F4B65689D4294BF3E4B3F4B98428CBF99
:1026800000230123002BD6D12268394E51683B4BE1
:10269000B0FBF3F321F03F011943B542516088BF0D
:1026A0004FF49676116A88BF734321F03F0184BFCF
:1026B0004FF47A76B3FBF6F301330B431362D1691F
:1026C000431E2B4821F44F41854221F0FF0132D8AF
:1026D0006D0040F6FC70B3FBF5F30133034242D0CA
:1026E000C3F30B031943D161D4E9073011680343E5
:1026F00021F0C0010B4313609168D4E9030321F476
:102700000341034321F0FF010B439360D4E90530FB
:10271000D168034321F0FF010B43D360136843F0FA
:102720000103136000202023206484F83D302063DF
:1027300084F83E0080E7A06850B905EB4505B3FB7F
:10274000F5F30133C3F30B037BB143F40043C9E753
:1027500019206843B3FBF0F30133C3F30B0323B138
:1027600043F44043BEE70423BCE70123BAE700BFBC
:10277000A08601007F841E00FF083D0040420F003C
:102780002DE9F743044699460C9E0F469046FEF706
:10279000CDFE94F83D30202B054603D0022003B037
:1027A000BDE8F08300903C49192301222046FFF741
:1027B00071FD0028F2D194F83C30012BEED0206856
:1027C000012384F83C300368D9075EBF036843F0F7
:1027D00001030360036823F400630360212384F88A
:1027E0003D30402384F83E30002323640A9B63621B
:1027F000BDF82C306385638D2385284BE362424608
:10280000CDE900654B4639462046FFF7DFFD00283D
:102810002AD00120C3E7FFF7B2FD40B1236C042B9F
:1028200001BF2268136843F400731360F1E7636A21
:1028300027681A4612F8011B39616262628D218D88
:10284000013A92B262857A69481E80B252072085A9
:102850000AD548B15A783A6102336362638D013B0D
:1028600002399BB221856385238D2A463146204655
:10287000002BD0D1FFF784FE0028CFD12268136847
:1028800043F400731360202384F83D3084F83C0047
:1028900084F83E0083E700BF020010000000FFFF45
:1028A0002DE9F043044687B09946109F0D469046A7
:1028B000FEF73CFE94F83D30202B064604D002255E
:1028C000284607B0BDE8F08300907549192301221E
:1028D0002046FFF7DFFC0028F1D194F83C30012BB3
:1028E000EDD02068012384F83C300368DB075EBF2D
:1028F000036843F001030360036823F4006303608B
:10290000222384F83D30402384F83E3000232364A2
:102910000E9B6362BDF83C306385638D2385614BFC
:10292000E3622946CDE900764B4642462046FFF752
:10293000A7FD054608B10125C2E7228D2368A2B98B
:1029400002905A6902929A690292029A1A6842F4B3
:1029500000721A60238D002B2CD1202284F83D2098
:1029600084F83C3084F83E30AAE7012A0AD11A687C
:1029700022F480621A6003905A6903929A69039262
:10298000039AE3E7022A0ED11A6822F480621A60E1
:102990001A6842F400621A6004905A6904929B69B2
:1029A0000493049BD6E705905A6905929B690593A9
:1029B000059BCFE7032B56D8012B15D1324639465C
:1029C0002046FFF704FE0028B5D123681A69636A20
:1029D0001A70636A01336362238D013B2385638D23
:1029E000013B9BB26385B5E7022B2F4900963B461E
:1029F0004FF00002204619D1FFF74CFC00289AD175
:102A000023681A6842F400721A601A69636A1A70BD
:102A1000626A531C6362238D013B2385638D013BF6
:102A20009BB2638523681B695370D2E7FFF732FCC2
:102A3000024600287FF47FAF2368196821F4806183
:102A400019601969636A1970636A1749013363620F
:102A5000238D013B2385638D013B9BB2638520461B
:102A600000963B46C8E7324639462046FFF7AFFDA1
:102A700000287FF460AF23681A69636A1A70626A7B
:102A8000531C6362238D013B2385638D013B9BB205
:102A900063852368596949077FF55CAFC3E700BFC9
:102AA000020010000000FFFF040001002DE9FF47B5
:102AB00004469946002302930C9E0F469046FEF76B
:102AC00035FD94F83D30202B824603D0022004B01F
:102AD000BDE8F087554B46F2A8121B68B3FBF2F332
:102AE000192253430293029B013B0293029B63B959
:102AF0002022236384F83D2084F83E30226C42F08B
:102B00002002226484F83C3066E0226893699907C9
:102B1000E9D494F83C30012BD8D0012384F83C3020
:102B200013684349DB075EBF136843F0010313607A
:102B3000136823F400631360212384F83D3040239D
:102B400084F83E300025BDF8343025646385638DFC
:102B500066629BB2E16223856764C4F84880C4F86A
:102B60004C902565002B57D0606B50B33149C16341
:102B70003149C164C0E9105531468564056510329C
:102B8000FFF798F9064600283AD123230093CDF8A1
:102B900004A04B46424639462046FFF717FCE8B1F1
:102BA000606BFFF7C0F9636BDE6323681A6822F479
:102BB00080621A6066851A68268522F001021A6012
:102BC0000AE0202384F83D3084F83E00236C84F82A
:102BD0003C0043F080032364012078E723680390DE
:102BE0005A6903929A69039284F83C00039A5A68DE
:102BF00042F480725A605A6842F400625A6066E792
:102C0000202384F83D3084F83E50236C84F83C50F7
:102C100043F010032364DFE7202284F83D2084F88A
:102C20003E30226C42F040026BE700BFE416002009
:102C30000000FFFF8F2E00084B2E00082DE9FF47F4
:102C400004461E460F469146FEF770FC94F83D3050
:102C5000202B054603D0022004B0BDE8F087009089
:102C60004C49192301222046FFF714FB0028F2D11A
:102C700094F83C30012BEED0012384F83C302368DB
:102C80001A68D2075EBF1A6842F001021A601A6819
:102C900022F400621A60242384F83D300023236468
:102CA000A3F58033E3624FF0010A07F0FE072268C4
:102CB000136843F4807313604FF00111334600959D
:102CC00000222046FFF7E6FA236838B11B68DB05CF
:102CD00044BF4FF4007323640320BDE71F61FEF778
:102CE00025FC2268536952690546C3F34003C2F3C9
:102CF00080224FF0A00894F83D10A02901D0134382
:102D00001DD020684FF0200884F83D80436913F0FF
:102D1000020F036843F40073036025D0002303937C
:102D20004369039383690393039B1A49009519230D
:102D300001222046FFF7AEFA88B101208CE7FEF7AA
:102D4000F5FB401BB04200D80EB984F83D802268E4
:102D500053695269C3F34003C2F38022CBE784F87E
:102D60003D8084F83C0077E76FF480634361094954
:102D70000095192301222046FFF78CFA0028DCD1A8
:102D80000AF1010ACA4592D384F83D8084F83C00D8
:102D9000D3E700BF020010007047704770477047CC
:102DA0007047704790F83D2008B5036DD2B283B9E3
:102DB000C36C0268012B836C05D1DBB21361036D18
:102DC0000233036508BDC3F307231361036D0133A9
:102DD000F7E7036D012B03D1836C0268DBB2F4E7E4
:102DE000036D022BEED1222A05D10268136843F449
:102DF00080731360EAE7438D9BB263B1212A0AD145
:102E0000436A026813F8011B11614362438D013B61
:102E10009BB24385D6E7438D9BB2002BD2D1212AAA
:102E2000D0D10268516821F4E0615160116841F429
:102E3000007111602022036380F83D2080F83E304D
:102E4000FFF7AFFFBEE77047704710B5846B636B49
:102E50000BB10022DA63A36B0BB10022DA63FFF738
:102E600036F9022812D02268136823F480631360B5
:102E700000232022638584F83D2084F83E30236CB3
:102E800043F0100323642046FFF7DEFF10BD70B54A
:102E9000846B236894F83D2094F83E00E16A5D68F5
:102EA00025F440755D60656BD2B2C0B20DB10026ED
:102EB000EE63A56B0DB10026EE6302F02105212D16
:102EC00005D002F02205222D23D1202821D15968D6
:102ED00021F400615960292A4FF0000363850DD168
:102EE00021232363282384F83D302046FFF755FF34
:102EF0002268536843F44073536070BD2A2AF7D1A7
:102F000022232363282384F83D302046FFF746FF21
:102F1000EEE794F83E20002AEFD0628D92B2012AAB
:102F200002BF1A6822F480621A605A6811F5803F65
:102F300022F440725A6006D0082904D0B1F12A4F19
:102F400001D0202903D11A6842F400721A605A682D
:102F500022F480525A605A6822F400625A600023B8
:102F60006385236C1BB12046FFF76EFFC5E7202267
:102F700084F83D2094F83E2084F83E30402A04D165
:102F800023632046FFF75FFFB7E712232363204642
:102F900035F0BCFDB1E7704737B5002301932D4BE9
:102FA000806B1B6890F83D2046F2A811B3FBF1F34B
:102FB00023214B4301930368D2B2019941BB016CB9
:102FC00041F020010164446B0CB10021E163816B8D
:102FD00009B10025CD631D6825F480651D600025BD
:102FE000458504B1256501B10D65196821F0010120
:102FF000196090F83D10602911D1202380F83D30F0
:10300000002380F83E300364FFF7C5FF03B030BDF6
:1030100001990139019119688905CED4D3E702F0ED
:103020002802282A0ED1196841F001011960196897
:1030300041F4806119600023036380F83D20FFF7AD
:1030400003FFE3E7202380F83D30002380F83E3083
:10305000F5E700BFE416002010B590F83D2090F889
:103060003E30102BD9B204460368D2B201D04029B9
:1030700013D1222A11D1196821F40061196059680D
:1030800011F4006106D1602A1EBF202284F83D2081
:1030900084F83E100022226307E002F0280128296C
:1030A000EDD10022226384F83D105A6812F40062C8
:1030B0004FD05A68606B22F400625A6090F8353045
:1030C000012B374B2BD00365FEF72DFF50B1226843
:1030D000606B136823F001031360202384F83D30F4
:1030E000036D9847236C19071FBF2268536823F4A8
:1030F000E063536094F83D30226C5207DBB20DD58B
:10310000282B0BD1274BE362202200232363204688
:1031100084F83D2084F83E30FFF742FE10BDA06BDE
:103120000365FEF700FF0028DCD023685A695106CA
:1031300005D51A69636A1A70636A0133636222688B
:10314000A06B136823F001031360202384F83D3043
:10315000C6E794F83D10602915D1202184F83D1070
:1031600022645A69520605D51A69636A1A70636A3D
:10317000013363622268136823F001031360204661
:10318000FFF709FFAEE75A69500605D51A69636A69
:103190001A70636A013363622046FFF755FEA1E7A8
:1031A000992F00080000FFFFF0B5036804465A6835
:1031B000C66A90F83E0094F83D1010288FB0C5B252
:1031C000C9B202D0402D40F0CF829F69586910F0FB
:1031D000010F07D1B6F52A0F02D0B6F12A4F51D10F
:1031E0000FB0F0BD96054DD5E26AB2F52A0F0CD1AD
:1031F0000122E26294F83E20402A11D1226D52B998
:10320000626C02F0FE021A61EAE7E26AB2F12A4F4A
:10321000F0D10822EDE7626C42F00102D2B2F2E78F
:103220002269B2F5804F1AD194F83D20212A626CB0
:1032300011D102F0FE021A61626B0AB1D26B2AB997
:10324000A26B002ACCD0D26B002AC9D05A6842F4B3
:1032500000625A60C4E742F00102D2B2EBE7226D8D
:1032600032B9626CD21102F0060242F0F002CAE7F3
:10327000226D012AB4D1626CD21102F0060242F032
:10328000F102C0E7060703D5960501D5626CE4E7B5
:10329000860740F1E880960540F1E58094F83E10FD
:1032A000E26A256B94F83D002228C9B240F0D38031
:1032B000206D40B9402906D101905A6901929B695D
:1032C0000193019B8CE7216D89B92069B0F5404FCE
:1032D0000DD102915A6902929A690292029A1A6871
:1032E00042F480721A60236D0133236578E7618DA3
:1032F00089B251B903915A6903929A690392039A68
:103300001A6842F400721A6019E0618D89B20129CD
:1033100049D112F5803F1BD11A6822F480621A60ED
:103320005A6812F400620CD01A6822F480621A60A3
:10333000002204925A6904929B690493049B00231F
:10334000D3E705925A6905929A690592059AD7E7DB
:10335000082A1CD0202A1AD0122D0DD1012A16D1EC
:103360001A6822F480621A60002206925A69069254
:103370009B690693069BE2E7102AF1D8974941FA28
:1033800002F2D707ECD41A6842F48062EBE71A68BD
:1033900022F480621A60002207925A6907929A69A1
:1033A0000792079AACE7618D89B2022930D1102AC1
:1033B00003D88B49D140CE0715D4196821F4806118
:1033C0001960196841F40061196059680D0514D538
:1033D000202A1AD8072A0AD8012A0ED15A6842F49C
:1033E00080525A6009E0196841F48061ECE7A2F16B
:1033F00008017C4ACA40D007F0D4002208925A69DA
:1034000008929B690893089B99E712F5803FE4E7CF
:10341000196841F4806119605968090510D5202A9E
:1034200016D8072A06D8012A0AD15A6842F48052CF
:103430005A6005E0A2F108016A4ACA40D207F4D4F2
:10344000002209925A6909929B690993099B76E7C0
:1034500012F5803FE8E700220A925A690A929B69B6
:103460000A930A9BBCE67F0740F18D805E683605B3
:103470003FF5B6AE070600F004063ED550053CD534
:10348000002E3DD194F83D20258D94F83E10E06A41
:10349000D2B2C9B2C5B9212A18D1082858D02028DB
:1034A00056D010F5803F53D05A6822F4E0625A603B
:1034B00011232363002384F83E30202384F83D3019
:1034C0002046FFF769FC8BE6212A05D040297FF4CE
:1034D00087AE222A7FF484AE628D92B21AB95A68FE
:1034E00022F48062B5E694F83E20402A16D12046A8
:1034F0000FB0BDE8F040FFF755BC002E3FF470AEB2
:1035000097057FF56DAE212939D1E16A94F83D2008
:10351000212A7FF465AE628D92B24AB1626A12F8D6
:10352000011B19616262638D013B9BB2638557E6A3
:1035300008290DD020290BD011F5803F08D05968FB
:1035400021F4E06159601123236384F83E20B4E73D
:103550005A6822F4E0625A601A6842F400721A60F3
:1035600000232022236384F83D2094F83E2084F831
:103570003E30402A2046A4D1FFF713FC30E6402D10
:103580007FF42EAEB3E759680E053FF529AE450628
:1035900000F004017DD550057BD500297CD194F83D
:1035A0003D20222A7FF41CAE628D92B2032A1BD9E1
:1035B0001A69636A1A70636A01336362638D013B3F
:1035C0009BB26385638D9BB2032B7FF409AE2268A7
:1035D000536823F48063536002E600BFEBFFFEFFF5
:1035E0001400010001010001E06A02283FF4F8AD77
:1035F000012A3FF6F5AD764A0B91126846F2A81102
:10360000B2FBF1F202EB82020B920B9A013A0B929F
:103610000B99D1B9226C42F0200222645A6822F43C
:10362000E0625A601A69636A1A70636A01336362FE
:10363000638D013B9BB26385202384F83D30204697
:1036400084F83E10FFF700FCCAE51A6812F4007215
:10365000DBD1196821F480611960596821F4E061B7
:1036600059601969636A1970636A01336362638D13
:10367000013B9BB26385202384F83D3094F83E30B3
:1036800084F83E20402B69D122632046FFF7DBFB04
:10369000A6E500293FF4A4AD92057FF5A1ADE26A4D
:1036A000608D616A80B2042809D15A6822F4806270
:1036B0005A601B690B70636A0133636233E7608D84
:1036C00080B203280CD15868042A20F48060586026
:1036D000EFD0022AEDD01A6822F480621A60E8E77F
:1036E000608D80B20228E4D1042A33D007D8012AA1
:1036F00007D0022A2ED01A6842F4007204E0102A81
:10370000F9D11A6822F480621A601B690B70626A30
:10371000531C6362638D013B9BB2638523681B6905
:103720005370636A226801336362638D013B9BB20D
:103730006385536823F440735360202384F83D303D
:1037400094F83E30402B4FF0000384F83E3005D112
:1037500023639AE71A6842F48062D5E71223236351
:10376000204635F0D3F93BE5206C18B358690025A5
:1037700087072FD596052DD5226C02B19D6994F847
:103780003D2002F02802282A17D15A682F0622F479
:1037900080625A60C5F3800154BFE268A2690023C9
:1037A00081F00101C9B284F83C3092B22046FFF7A3
:1037B000F6FA15E59D695869DAE700220C92596915
:1037C0000C919B690C930C9B84F83C2008E500BF8E
:1037D000E4160020C60640F1B180950540F1AE80A8
:1037E00094F83D505A6822F4E0625A6000220D922B
:1037F0005A690D921A6842F001021A600D9A1A680D
:1038000022F480621A605A681005EDB220D505F0E6
:10381000F702222A4AD1A06B0268526892B26285EE
:10382000628D92B21AB1226C42F0040222645A688C
:1038300022F400625A60FEF747FC012808D0A06B12
:10384000794B0365FEF76FFB10B1A06B036D9847D2
:10385000638D9BB213B323685A69510709D51A695E
:10386000636A1A70636A01336362638D013B9BB2C2
:10387000638523685A69520609D51A69636A1A7002
:10388000636A01336362638D013B9BB26385638D21
:103890009BB21BB1236C43F004032364236C13B36A
:1038A00020460FB0BDE8F040FFF7D6BB606B026862
:1038B000526892B26285628D92B21AB1226C42F065
:1038C000040222645A6822F400625A60FEF7FCFB8C
:1038D0000128BDD0606B544B0365FEF724FB002824
:1038E000B6D0606BB2E72A2D06D12363282384F873
:1038F0003D302046FFF752FA94F83D30282B0CD18A
:103900004A4BE362202200232363204684F83D20B3
:1039100084F83E30FFF744FA62E4236B222B02D096
:10392000222D7FF45DAC00232022236384F83D2008
:1039300084F83E302046FFF731FA51E401F0F701F8
:10394000212900F0040535D1070627D5560525D5D0
:103950003DBB94F83D00628D92B2C0B2002A3FF4A4
:103960003FAC626A12F8015B1D616262628D013ACE
:1039700092B26285628D92B2002A7FF431AC29281E
:103980007FF42EAC5A6822F480625A6028232163A7
:10399000204684F83D30FFF700FA21E4002D3FF483
:1039A0001FAC95057FF51CAC628D92B2002A3FF4E6
:1039B00017ACB3E5400627D5510525D53DBB94F896
:1039C0003D20618D89B2D2B200293FF409AC19695A
:1039D000636A1970636A01336362638D013B9BB252
:1039E0006385638D9BB2002B7FF4FAAB2A2A7FF4A8
:1039F000F7AB2268536823F4806353602223236368
:103A0000282384F83D3095E7002D3FF4E9AB92057B
:103A10007FF5E6AB628D92B2002A3FF4E1AB1A6902
:103A2000636A1A7047E600BF992F00080000FFFF85
:103A3000F8B503685F695E6890F83E2017F48075FA
:103A40000446D2B206D016F480751EBF6FF48071A2
:103A500059610125B80506D5F10542BF6FF4007123
:103A600045F002055961780536D5F10534D5608DEC
:103A700094F83D10D4F830C0202A80B2C9B25BD18E
:103A8000002859D101F0F700212804D0282953D16A
:103A9000BCF1210F50D194F83D20E16A0829D2B23F
:103AA00001D020292AD1282A28D12C4AE2625A683A
:103AB00022F4E0625A606FF480625A611A6822F45C
:103AC00080621A60002320222363204684F83D2070
:103AD00084F83E30FFF764F93A053BD5F30539D554
:103AE00023686FF4006245F008055A61236C1D439A
:103AF00025642046BDE8F840FFF7AEBA212A17D169
:103B00001649E1622263202284F83D20002284F8D5
:103B10003E205A6822F4E0625A606FF480625A6173
:103B20001A6822F480621A602046FFF736F9D3E75C
:103B30006FF480625A61CFE76FF48061102A596197
:103B400045F0040501D0402AC6D11A6842F400723B
:103B50001A60C1E7002DC9D1F8BD00BF0000FFFF0A
:103B6000F0B504468BB060B390F8BD33056803F040
:103B7000FF021BB980F8BC2327F074F8032384F8F4
:103B8000BD33EB6B254613F4807355F8100B08BF5B
:103B9000236102F0B9FB0FCD6E460FC60FCD0FC6E5
:103BA00095E8030086E803002546271D97E80E00E8
:103BB00055F8100B02F0F2FA064630B1022384F8F1
:103BC000BD33012528460BB0F0BD0146206802F048
:103BD000A1FB3146D4F804C01C264FF0010E084664
:103BE000CAB2944501F1010127D800211C260A46DA
:103BF000C8B2844501F101012DD80FCD6E460FC624
:103C00000FCD0FC695E8030086E8030097E80E0085
:103C1000206802F0E5FB05460028CFD1012384F897
:103C2000380084F8BD33636A012B02D1204600F0CE
:103C300052FC206802F021FFC4E706FB0243C3E9FF
:103C4000110083F83DE083F83C20A3F8422083F87C
:103C50003F001865C4E706FB0043C3E9812283F8EF
:103C6000FD2183F8FC0183F8FF21C3F81022BFE790
:103C700010B50446006894F8BC33012B15D001231D
:103C800084F8BC33A36A012B06D1A369012B1EBFA4
:103C9000836B43F48033836302F030FB206802F0CF
:103CA000DEFE002084F8BC0310BD0220FCE700000B
:103CB0002DE9F04F066887B00446304602F019FF40
:103CC0000290002840F03E81206802F0E4FE0028C7
:103CD00000F03881206802F0DEFE2368820742BFD0
:103CE0005A6902F002025A61184602F0D4FEC70671
:103CF0002BD52268936923F010039361376A07F488
:103D0000F013B3F5802F07F00F0540F01E8147F642
:103D1000F0731F4214D01C2303FB0545C7F30A1898
:103D2000D5F808124246304602F014FED5F80832A3
:103D30004344C5F80832D5F814324344C5F8143268
:103D40002268936943F010039361206802F0A3FE98
:103D5000050300F10F81206802F09DFE40030CD5A1
:103D6000206802F0A4FE2546834606F510694FF050
:103D7000000ABBF1000F40F09F81206802F08BFE2B
:103D8000002815DAD6F8043823F00103C6F8043801
:103D900094F8F433012B40F02082002184F8F413CE
:103DA000204600F0ABFB2268536903F000435361E7
:103DB000206802F070FE00050BD5D6F80838D90748
:103DC00002D5204626F0BEFF2268536903F4006343
:103DD0005361206802F05FFE020114D523685A691E
:103DE00002F000625A6194F8F423002A40F0F9814D
:103DF000012184F8F4135B6DC3F38303C4F8F83333
:103E0000204600F07BFB206802F045FEC30437D556
:103E1000D6F80438206823F001031021C6F80438CE
:103E200002F0A8FA06F5006506F510634FF67F313B
:103E300062680298824200F2D881EB6943F0011374
:103E4000EB61236B002B00F0EC81D5F8843043F05C
:103E50000B03C5F884306B6C43F00B036B64D6F82E
:103E60000038217C206823F4FE63C6F8003804F58E
:103E7000717202F051FE2268536903F4805353615A
:103E8000206802F008FE870416D5206802F035FE8F
:103E9000206802F05FFBE060256800F0F9FB227B00
:103EA0000146284602F0BAF9204626F038FF22687B
:103EB000536903F400535361206802F0ECFD0607D8
:103EC00007D5204626F027FF2268536903F0080330
:103ED0005361206802F0DFFDC50208D500212046AD
:103EE00026F050FF2268536903F480135361206861
:103EF00002F0D1FD800208D50021204626F03EFFC9
:103F00002268536903F400135361206802F0C3FD73
:103F1000410007D5204626F039FF2268536903F097
:103F200080435361206802F0B6FD42070AD523683A
:103F30005D686B0702D5204626F02CFF2268536887
:103F40002B43536007B0BDE8F08FB3F5402F7FF4EB
:103F5000F7AE082204F57171304602F0FBFC1C2319
:103F600003FB0545C7F30A17D5F814321F44C5F8FB
:103F70001472E5E6206802F092FD06F5306781468E
:103F8000A2460025B9F1000F3FF4E5AE19F0010F8C
:103F900057D05FFA85FB2068594602F090FD10F07B
:103FA000010F80461AD0206821690123BB6000F50B
:103FB000306303EB45130129D0F840C09A6863D100
:103FC000110707D59C498C4508D9100406D54FF434
:103FD000004202E091063BD520229A6018F0080FBB
:103FE0001FD00823BB602368934AD3F840B003F581
:103FF000306303EB45139345996804D90A0444BF21
:104000004FF400419960204626F06EFE8A4A93459F
:1040100007D92169012904D1206804F5717202F0E1
:104020007BFD18F0100F1CBF1023BB6018F0200F91
:104030001CBF2023BB6018F4005F1CBF4FF400536B
:10404000BB6001354FEA590920370AF11C0A99E78C
:1040500079498C4501D91204B9D41B69DAF80422D4
:10406000C3F31203D31ACAF81432DAF8083213442D
:10407000CAF808328DB9D4F8103273B904F57172E8
:10408000012102F049FD08E06C498C450AD1100479
:104090009DD4910601D520229A605946204626F0EB
:1040A00029FE9BE7002DF8D1D4F81032002BF4D173
:1040B00004F571722946E4E71BF0010F00F08580DA
:1040C0005FFA8AF319462068059302F001FDC307E1
:1040D000074622D5D6F8343801210AF00F0201FA3A
:1040E00002F223EA0203C6F83438C9F8081021693D
:1040F00001290DD1D5E911231344AB64BAF1000FA6
:1041000006D1236D23B9206804F5717202F004FD15
:104110005FFA8AF1204626F0F6FD380744BF0823EF
:10412000C9F80830F90644BF1023C9F808307A06E8
:1041300044BF4023C9F80830BB0744BF0223C9F875
:1041400008303F0641D5D5E91472BA423DD82368FC
:1041500003936B6CBF1A9F4228BF1F46039B03F556
:104160001063033703EB4A13BF080493049B996958
:104170002B6D89B2B94226D393420BD8039B0AF028
:104180000F00D3F834280121814022EA0102C3F84C
:1041900034281AE0A3EB02086B6C059A0398984543
:1041A00028BF9846237C0093A96C1FFA88F302F07D
:1041B000E7FAAB6C6A6D08F1030743444244BF0859
:1041C000AB646A65D2E79342D8D90AF1010A4FEA93
:1041D0005B0B1C3509F12009CBE5204626F0CAFD12
:1041E000E1E5204626F0AEFD0DE699601A6822F45E
:1041F00000121A601A6842F000621A60C3F80812CE
:10420000D3F8002222F40012C3F80022D3F80022CF
:1042100042F00062C3F80022029A01320292203377
:1042200006E66B6943F4005343F02B036B612B6983
:1042300043F00B032B6112E60A30544F0A31544FFE
:1042400010B590F8BC23012A04460BD0012280F857
:10425000BC2380F83810006802F0F1FB002084F8DD
:10426000BC0310BD0220FCE770B505461C2401F01C
:104270000F0011F0800F00FB04F414BF04F13C01A7
:1042800004F5FE7105EB040615BF4919491901240F
:10429000002414BF86F83D4086F8FD418A604A78C4
:1042A0000870CB7002B1C880022B04BF00230B71D1
:1042B00095F8BC33012B09D00123286885F8BC335D
:1042C00002F053F9002085F8BC0370BD0220FCE722
:1042D00001F00F021C2311F0800F02FB03F310B555
:1042E00014BF03F13C0103F5FE71044618BF091920
:1042F00018440BBF09190123002380F83D3008BF83
:1043000080F8FD310A7094F8BC33012B09D00123E9
:10431000206884F8BC3302F067F9002084F8BC03FD
:1043200010BD0220FCE738B501F00F051C246C43DA
:1043300004F5FE7104440144C4F81032002384F8EB
:10434000FD3184F8FC51C4F814320369C4F8082222
:10435000012B08BFC4F80C220068DAB21DB902F0C4
:1043600099F9002038BD02F01FFAFAE701F00F01B9
:104370001C2303FB0100D0F81402704738B501F08C
:104380000F051C246C4304F13C01044401442365E3
:1043900000236365012384F83D3084F83C500369B1
:1043A000A264012B08BFE2640068DAB21DB902F012
:1043B00071F9002038BD02F0F7F9FAE738B5436823
:1043C00001F00F059D4204462CD811F0800F4FF0EC
:1043D0001C031ED06B4303F13C0103440122014442
:1043E00083F83D2001238B700D7094F8BC239A4212
:1043F0001AD0206884F8BC3302F0CDFA2DB9217CA4
:10440000206804F5717202F087FB002084F8BC0379
:1044100038BD4B4303F5FE7103440022014483F889
:10442000FD21DFE70120F3E70220F1E738B543681B
:1044300001F00F029A42044626D81C2311F0800F87
:1044400002FB03F314BF03F13C0103F5FE711844B2
:1044500015BF09190919012300234FF0000514BFE6
:1044600080F83D3080F8FD318D700A7094F8BC33CF
:10447000012B0BD00123206884F8BC3302F0B6FA7C
:1044800084F8BC53284638BD0120FCE70220FAE737
:10449000006870B5436A120419B91343836200209F
:1044A00070BD846A4E1E03EB14430024B44205D34E
:1044B0003F3100EB810013434360F0E704F1400516
:1044C00000EB850501346D6803EB1543EEE70368E7
:1044D000002059627047034601210268C0F8FC13AE
:1044E000002083F8F403936943F000639361536DF4
:1044F00043F0805343F00303536570477047000057
:10450000134908B58B6803F00C03042B1CD0082B4F
:104510001CD14A684B68496813F4800314BF0D48E6
:104520000D48C1F3881118BF002302F03F02A1FB20
:104530000001FCF739FF064B5B68C3F3014301330D
:104540005B00B0FBF3F008BD0248FCE70248FAE765
:104550000038024040787D010024F4002DE9F0414C
:104560000D46044610B90120BDE8F081434B1A689E
:1045700002F007028A4228D321688F072DD4C8078A
:1045800040D43E4B1A6802F00702AA4265D822685E
:1045900051076BD4130707D5394A2169936823F46F
:1045A000604343EAC1039360FFF7AAFF344B354AE7
:1045B0009B68C3F30313D35CD840334B1860334B71
:1045C0001868FCF769FF0020CEE7CAB21A701B68B2
:1045D00003F007038B42C6D1CEE7294B11F0040F3D
:1045E0001EBF9A6842F4E0529A600E0742BF9A6872
:1045F00042F460429A609A68A06822F0F002024396
:104600009A60BCE762681E4B012A1CD11B6813F438
:10461000003FA8D01A4EB36823F003031343B360DE
:10462000FCF784FF41F288380746B368626803F0FC
:104630000C03B3EB820FA4D0FCF778FFC01B4045FE
:10464000F3D9032090E7911E01291B6802D813F0CB
:10465000007FDEE713F0020FDBE7EAB21A701B6897
:1046600003F00703AB427FF47EAF90E70449E068B4
:104670008B6823F4E05303438B608BE7003C0240DC
:104680000038024094190508E416002004000020B8
:10469000014B1868704700BFE4160020044B054A20
:1046A0009B68C3F38223D35C034A1068D8407047E9
:1046B000003802408C190508E4160020044B054A16
:1046C0009B68C3F34233D35C034A1068D8407047F9
:1046D000003802408C190508E41600200F230360FF
:1046E0000B4B9A6802F0030242609A6802F0F002F3
:1046F00082609A6802F4E052C2609B68DB0803F4AF
:10470000E0530361034B1B6803F007030B60704722
:1047100000380240003C024002682DE9F34112F0EB
:10472000010504460BD093494569D1F88C3023F03C
:10473000C0632B43B5FA85F5C1F88C306D09970736
:104740000CD58C48A169D0F88C3023F0C0530B43B2
:10475000C0F88C30002908BF45F00105160730D598
:1047600000230193834B844E1A6C42F080521A64EA
:104770001B6C03F080530193019B336843F48073F7
:104780003360FCF7D3FE07463368D80554D5794E1D
:10479000336F13F4407358D1E36903F44072B2F5F8
:1047A000407F744A72D1916823F0704021F4F8116F
:1047B00020F4407001439160116FC3F30B030B436E
:1047C000136723685B0742BF6C4B94F83820C3F82B
:1047D000E0212268D70608D56649606AD1F894308E
:1047E00023F440030343C1F8943096060DD5614885
:1047F000A16AD0F8943023F000630B43C0F89430E2
:10480000B1F1006F08BF45F00105500640F19480FA
:10481000584A216AD2F8943023F080530B43C2F8EF
:104820009430012D36D02268D10500F18F80930598
:1048300000F19680002005E0FCF778FEC01B0228FE
:10484000A2D9032002B0BDE8F081E26902F440720F
:104850009342A1D0336F4A4A0121C2F8401E23F48B
:1048600040730021C2F8401E3367336FD90793D5D8
:10487000FCF75CFE41F288380746336F9A078BD409
:10488000FCF754FEC01B4045F7D9DAE7916821F4E4
:10489000F81190E73A4B374E00229A66FCF746FE35
:1048A000054633681B014BD4344B626BC3F8D820E8
:1048B0002268D70701D563698BB1960701D5A36933
:1048C0006BB1950603D5A36AB3F1006F07D050060C
:1048D00012D5236A83B9A36AB3F1006F0CD1D4E96E
:1048E00002131B0643EA811361680B43216943EA03
:1048F00001732049C1F8843011060CD5D4E9022394
:104900001B0643EA821362681343226943EA027377
:10491000184AC2F884301A4B164E01229A66FCF7E8
:1049200005FE054633681A013FF57DAFFCF7FEFD35
:10493000401B0228F6D984E7012DABD0802A71E70D
:10494000FCF7F4FD401B0228ABD97AE70949E06A7D
:10495000D1F88C3023F000430343C1F88C3066E774
:10496000044A216BD2F88C3023F400430B43C2F885
:104970008C305FE700380240007000400010474272
:104980000000474270B5414CFCF7D0FD236843F06E
:104990000103054623602368980757D5236843F031
:1049A00080032360FCF7C2FD0023A360374C05465B
:1049B00041F28836A36813F00C0F4ED1FCF7B6FD18
:1049C000236823F450232360304C05462368990361
:1049D00049D4FCF7ABFD236823F0807323602B4C94
:1049E000054623689A0144D4FCF7A0FD236823F010
:1049F00080632360254C054623681B013FD4244B6C
:104A00006360C4F88430E368224A23F4F853E36017
:104A1000E36823F40053E360E36843F41F03E360B7
:104A2000E36843F40013E360636F23F001036367FB
:104A3000636F43F080736367174B1A60174B1868F6
:104A4000FCF72AFD003818BF012005E0FCF76EFDD9
:104A5000401B02289FD9032070BDFCF767FD401B57
:104A6000B042A7D9F7E7FCF761FD401B6428ADD938
:104A7000F1E7FCF75BFD401B0228B2D9EBE7FCF73E
:104A800055FD401B0228B7D9E5E700BF00380240BA
:104A9000103000240024F400E4160020040000205C
:104AA0002DE9F341044640B30368DE0710D42368C0
:104AB0009D075BD42368190700F19D8023685A077E
:104AC00000F1BD80A369002B40F0248100202CE080
:104AD0008D4B9A6802F00C02042A07D09A6802F003
:104AE0000C02082A0BD15B68590208D5864B1B685B
:104AF0009A03DCD56368002BD9D1012015E06368E7
:104B0000814DB3F5803F13D12B6843F480332B6084
:104B1000FCF70CFD7C4E054633689B03C7D4FCF7BD
:104B200005FD401B6428F7D9032002B0BDE8F081E1
:104B3000B3F5A02F04D12B6843F480232B60E3E767
:104B40002A6822F480322A602A6822F480222A60AD
:104B5000002BDDD1FCF7EAFC06462B689F03A6D5A7
:104B6000FCF7E4FC801B6428F7D9DDE7664B9A6804
:104B700012F00C0F07D09A6802F00C02082A11D12B
:104B80005B685D020ED4604A1368990702D5E3683A
:104B9000012BB2D11368216923F0F80343EAC10362
:104BA000136087E7E268594BB2B101221A60FCF743
:104BB000BDFC554D06462B689B0707D52B6822691F
:104BC00023F0F80343EAC2032B6073E7FCF7AEFC63
:104BD000801B0228EFD9A7E71A60FCF7A7FC4A4E12
:104BE000054633689F077FF565AFFCF79FFC401BC8
:104BF0000228F6D998E76269444B82B10122C3F8D2
:104C0000802EFCF793FC404E0546736F9B073FF5E3
:104C100055AFFCF78BFC401B0228F6D984E7C3F89C
:104C2000802EFCF783FC384E0546736F9F077FF597
:104C300045AFFCF77BFC401B0228F6D974E7324BEA
:104C40001A6C12F0805228D101921A6C42F08052F4
:104C50001A641B6C03F080530193019B01272C4DB8
:104C60002B68D8051BD5A368274D012B27D12B6FA7
:104C700043F001032B67FCF759FC234E054641F234
:104C80008838336F9A0739D5002F3FF41BAF1E4A7F
:104C9000136C23F08053136414E70027DFE72B68BD
:104CA00043F480732B60FCF741FC06462B68D90562
:104CB000D9D4FCF73BFC801B0228F7D934E7052B3D
:104CC00004D12B6F43F004032B67D0E72A6F22F047
:104CD00001022A672A6F22F004022A67002BCAD138
:104CE000FCF724FC41F2883806462B6F9B07CBD596
:104CF000FCF71CFC801B4045F7D915E7FCF716FCB8
:104D0000401B4045BDD90FE7003802400000474234
:104D1000007000403C4DAA6802F00C02082A41D005
:104D2000022B3A4B4FF000021A662ED1FCF7FEFB25
:104D300006462B68990122D4D4E907321343626AEC
:104D400043EA8213E26A43EA0263226B43EA027394
:104D5000A26A5208013A43EA02436B602B4B2A4D88
:104D600001221A66FCF7E2FB04462B689A013FF524
:104D7000ADAEFCF7DBFB001B0228F6D9D4E6FCF74E
:104D8000D5FB801B0228D4D9CEE6FCF7CFFB044626
:104D90002B689B017FF59AAEFCF7C8FB001B02282D
:104DA000F6D9C1E6012B3FF4A8AE6B68E26903F4C3
:104DB000800191427FF4A1AE216A03F03F028A4252
:104DC0007FF49BAE616A47F6C0721A40B2EB811F56
:104DD0007FF493AEA26A520803F44031013AB1EB7A
:104DE000024F7FF48AAEE16A03F07062B2EB016FAA
:104DF0007FF483AE226B03F0E043B3EB027F14BF7A
:104E00000120002091E600BF003802400000474228
:104E10000F230360204B1A68510356BF1A684FF4E2
:104E2000A02202F4803242601A6802F00102C260DD
:104E30001A68C2F3C40202611A6F520756BF1B6F91
:104E4000052303F001038360134B5A6F02F0010244
:104E500042611A6812F0807F0CBF01220222826137
:104E60005A6802F48002C2615A6802F03F0202628C
:104E70005A68C2F3881242625A6802F4403202F55C
:104E80008032D20B82625A68C2F30362C2625B68EC
:104E9000C3F302730363704700380240704702682F
:104EA00038B5D36823F0A003D3600446FCF73EFB7B
:104EB00005462368DB689B0601D5002038BDFCF75A
:104EC00035FB401BB0F57A7FF3D90320F6E738B500
:104ED0000368DA685206044601D5002038BD4FF059
:104EE000FF32DA60FCF722FB05462368DB685B06CD
:104EF000F3D4FCF71BFB401BB0F57A7FF5D90320F8
:104F0000ECE738B50446B8B1437F03F0FF0213B9AC
:104F10000277FFF7C3FF022363772368CA225A622E
:104F200053225A622046FFF7D2FF2368054630B16C
:104F3000FF225A62042363770125284638BD9A6808
:104F4000206922F4E00222F040029A6062689968C7
:104F50000243606902430A439A60E2681A611A696F
:104F6000A16842EA01421A61DA6822F08002DA603E
:104F70009B689B0605D42046FFF791FF08B1236884
:104F8000D6E72368A1691A6C22F480221A641A6C8D
:104F90000A431A64FF225A6201236377CDE7002394
:104FA000092803D840EA0310C0B270470A38013319
:104FB000C0B2F5E72DE9F041037F012B05460E460F
:104FC0004FF002072ED0016847770123037730782E
:104FD0007478B7788B6842BB13F0400308BFF37056
:104FE000FFF7DDFF80462046FFF7D9FF044638462D
:104FF000FFF7D5FFF37840EA034343EA084343EA67
:105000000424CA234B6253234B622846FFF75FFFF9
:105010002A680746A8B1FF23536204236B77002355
:105020002B7701273846BDE8F08113F0400308BF15
:10503000F3702402F37844EA00443C4344EA034416
:10504000DFE704F07F3424F0FE441460936823F417
:1050500080239360D6E90330916803430B43936048
:10506000D36823F08003D360946814F020040AD13D
:105070002846FFF714FF30B12B68FF225A62042341
:105080006B772C77CDE72B68FF225A6201236B7771
:1050900000232B77C6E7F8B5037F012B05464FF0B9
:1050A00002061FD00123037746770E78C8784C7824
:1050B0008F787603C2B146EA00433B4343EA0424B7
:1050C0002B68CA225A6253225A622846FFF7FFFE13
:1050D0002A680646F0B1FF23536204236B7700234E
:1050E0002B7701263046F8BDE30641BF24F01004BB
:1050F0000A34E4B24C70FFF752FF01462046FFF736
:105100004EFF04463846FFF74AFF40EA060343EAEB
:105110000143D3E724F07F4424F0C0045460D368F3
:1051200023F08003D360946814F020040AD1284649
:10513000FFF7B5FE30B12B68FF225A6204236B776C
:105140002C77CEE72B68FF225A6201236B7700236E
:105150002B77C7E7030903EB830300F00F0000EB95
:105160004300C0B270470368986A70B54860186918
:105170001C68C0F30E00C4F30645C4F3062688601D
:1051800005F04003C4F3054004F07F0408704E703E
:105190008C70CB7052B9FFF7DDFF08703046FFF717
:1051A000D9FF48702046FFF7D5FF8870002070BDFA
:1051B00038B503685B68C3F30740C3F3042503F005
:1051C0003F04C3F34233C8704D708C700B7052B9FA
:1051D000FFF7C0FFC8702846FFF7BCFF48702046A5
:1051E000FFF7B8FF8870002038BD00002DE9F347B5
:1051F0001F46894690460446FCF798F90A9D3D44AF
:105200002D1AFCF793F9264B1E68C6F3CB366E4376
:10521000824601962268936839EA03030CBF012392
:105220000023434501D100202EE07B1CF3D0FCF786
:105230007DF9A0EB0A00A84229D323685A6822F01E
:10524000E0025A606268B2F5827F0AD1A268B2F5C4
:10525000004F02D0B2F5806F03D11A6822F04002ED
:105260001A60A26AB2F5005F07D11A6822F40052F0
:105270001A601A6842F400521A60012384F851300F
:10528000002384F85030032002B0BDE8F087019A73
:10529000019B002A03F1FF33019308BF1546B9E7CC
:1052A000E416002030B50B4613490D681349B5FBD1
:1052B000F1F54FF47A714D43416885B0B1F5827FC5
:1052C000044603950CD1009280210022FFF78EFF47
:1052D00078B1636D43F020036365032005B030BDF2
:1052E000039B33B1039B013B039323689B681B061D
:1052F000F6D40020F2E700BFE416002000366E016D
:1053000037B50B464168B1F5827F044608D000925C
:1053100001210022FFF76AFFD0B9002003B030BDA1
:105320008168B1F5004F02D0B1F5806F07D12568D3
:105330002868B1F5806F20F04000286004D000920A
:10534000802100222046E5E7009201210022F9E7B2
:10535000636D43F0200363650320DFE7704738B5D2
:10536000044600285AD0436A002B53D14268B2F554
:10537000827F00D0C36194F8513003F0FF0223B95B
:1053800084F850202046FFF7E9FF2168A568A2694C
:10539000A06A022384F851300B6823F040030B60AD
:1053A000636805F4044503F482732B43E56805F450
:1053B00000652B43256905F002052B43656905F05F
:1053C00001052B4302F400752B43E56905F0380510
:1053D0002B43256A05F080052B4300F400552B4331
:1053E0000B60636A120C03F01003B0F5005F02F06B
:1053F000040242EA030208BFA38D4A6008BF0B61A2
:10540000CB6923F40063CB6100200123606584F83D
:10541000513038BD0023C0E90433ACE70120F8E780
:1054200038B590F85030012B044660D0012380F845
:10543000503090F85130012BDDB256D100293DD0CB
:10544000002A3BD0032380F8513000234365C0E994
:105450001033C28683638387C38783688286B3F5EC
:10546000004F0268016307D1136823F04003136003
:10547000136843F480431360A36AB3F5005F07D158
:10548000136823F400531360136843F4005313604C
:10549000A06C184B0364184BC363184BC364002300
:1054A0000365E38E0C329BB2FCF704FD58B1636DCB
:1054B00043F010036365012384F85130002384F81E
:1054C0005030284638BD23681A6852065EBF1A68F5
:1054D00042F040021A605A6842F020025A605A684C
:1054E00042F002025A600025E8E70225E6E70225BD
:1054F000E7E700BF295700086F5700084D5700081D
:1055000038B5044690F8500001287BD0012084F87B
:10551000500094F851000128C5B208D06068B0F579
:10552000827F6DD1A06800286AD1042D68D100293E
:105530003ED0002A3CD0002B3AD094F85100A386EC
:1055400004281CBF052084F8510000206065A38753
:10555000E386E387A36A2163B3F5005FC4E9100023
:105560002168A26307D10B6823F400530B600B681A
:1055700043F400530B6094F85130E06C042B15BFDA
:10558000214B224B224D234DC0E90F35224BC364E2
:1055900000230365E38F0C319BB2FCF78BFC0346C1
:1055A00058B1636D43F010036365012384F85130F3
:1055B0000120002384F8503038BD2268A06C516867
:1055C00041F001015160C0E90F33C0E91333E38EAC
:1055D000216B9BB20C32FCF76DFC0028E1D12368F3
:1055E0001A6852065EBF1A6842F040021A605A6892
:1055F00042F020025A605A6842F002025A60D8E72C
:105600000220D6E70220D7E785580008D9570008BE
:1056100041570008355700084D5700082DE9F04163
:10562000876804460D4613465FB94268B2F5827F2B
:1056300007D1042280F85120BDE8F0410A46FFF767
:105640005FBF94F85020012A61D0012284F85020D5
:1056500094F85120012AD6B257D1002D3DD0002B0D
:105660003BD0042284F85120B7F5004F4FF00002E0
:105670006265C4E91022E3872168A563A387A28637
:10568000E28607D10B6823F040030B600B6823F41C
:1056900080430B60A36AB3F5005F07D10B6823F466
:1056A00000530B600B6843F400530B60E06C194B24
:1056B0000364194BC363194BC36400230365E38F71
:1056C0002A469BB20C31FCF7F5FB60B1636D43F0E9
:1056D00010036365012384F85130002384F85030AF
:1056E0003046BDE8F08123681A6852065EBF1A682A
:1056F00042F040021A605A6842F020025A605A682A
:1057000042F001025A600026E7E70226E5E702269A
:10571000E6E700BF35570008D95700084D57000885
:10572000704770477047704708B5806BFFF7FBFF05
:1057300008BD704708B5806BFFF7FBFF08BD7047D9
:1057400008B5806BFFF7FBFF08BD7047806B0268F0
:1057500008B5536823F003035360436D43F010030F
:105760004365012380F85130FFF7EFFF08BD37B5DF
:105770000546846BFBF7DAFE2B681B68DB050246E7
:1057800026D42368596821F020015960596821F016
:105790000201596020466421FFF784FD18B1636D52
:1057A00043F020036365A36833B901932368DA6883
:1057B00001929B680193019B0023E386012384F8F7
:1057C0005130636D23B12046FFF7BFFF03B030BDFA
:1057D0002046FFF7A5FFF9E77FB5064600230393B0
:1057E000846BFBF7A3FE33681B68DA05054645D4D6
:1057F00023685A6822F020025A60A26AB2F5005F5C
:105800000FD101220090642311462046FFF7EEFCE1
:1058100018B1636D43F0020363652368DA6803928D
:10582000039AA26832BB6268B2F5827F22D15A68BD
:1058300022F003025A6064212A462046FFF760FDE9
:1058400008B1202363650023E3872268012384F8DD
:1058500051309368DB0606D5636D43F00203636540
:105860004FF6EF739360636D43B12046FFF76DFF12
:1058700004B070BD5A6822F00102DBE72046FFF752
:1058800050FFF5E77FB5064600230393846BFBF7D3
:105890004DFE33681B68D90505463ED4226853681F
:1058A00023F020035360A36AB3F5005F0FD10122F8
:1058B0000090642311462046FFF798FC18B1636DF1
:1058C00043F0020363652368DB680393039B2A4666
:1058D00064212046FFF7E6FC18B1636D43F0200316
:1058E000636523685A6822F003025A600022E28648
:1058F000E287012284F851209A68D20606D5626DAB
:1059000042F0020262654FF6EF729A60636D23B156
:105910002046FFF71AFF04B070BD2046FFF702FFD4
:10592000F9E70000036A23F0010370B50362036A1C
:10593000446882690D6822F073022A438D6823F05F
:1059400002032B430C4DA84203D005F58065A84205
:105950000BD1CD6823F008032B43D1E9055624F47D
:105960004074354323F004032C43446082614A6849
:105970004263036270BD00BF00000140036A23F46C
:10598000807370B50362036A4468C2690D6822F0CF
:1059900073022A438D6823F4007343EA05230D4DF7
:1059A000A84203D005F58065A8420DD1CD6823F447
:1059B000006343EA0523D1E9055624F440543543F6
:1059C00023F4806344EA05144460C2614A68C263F8
:1059D000036270BD00000140036A23F4805330B5B8
:1059E0000362036A4468C2690D6822F4E64242EA2F
:1059F00005228D6823F4005343EA0533084DA8427D
:105A000003D005F58065A84204D14D6924F4804493
:105A100044EA85144460C2614A680264036230BD8E
:105A2000000001407047704710B5846B626A824283
:105A30000BD101232377D2690AB984F83E3020467E
:105A400034F0EAF80023237710BDA36A834208D11B
:105A500002222277DB69002BF1D1012384F83F3049
:105A6000EDE7E36A834208D104222277DB69002B49
:105A7000E5D1012384F84030E1E7236B8342DED196
:105A800008222277DB69002BD9D1012384F8413029
:105A9000D5E7704710B5846B636A834207D1012351
:105AA00023772046FFF7F5FF0023237710BDA36A75
:105AB000834201D10223F3E7E36A834201D1042345
:105AC000EEE7236B8342ECD10823E9E7704710B57A
:105AD000846B636A834209D10123237784F83E30C3
