:020000040800F2
:1000000000000420B57803082D0003082F00030822
:100010003100030833000308350003080000000026
:10002000000000000000000000000000370003088E
:1000300039000308000000003B0003083D000308EE
:10004000057903080579030805790308057903088C
:10005000057903080579030811E8020829E8020870
:10006000057903080579030805790308057903086C
:10007000057903080579030805790308057903085C
:10008000057903080579030805790308057903084C
:1000900005790308057903080579030841E8020892
:1000A000ADE7020805790308057903080579030817
:1000B0000579030805790308E9E60208F5E902086D
:1000C00001EA0208057903080579030805790308A0
:1000D0000579030889FD0208FDFD0208057903087A
:1000E000A5E80208057903080579030805790308DE
:1000F00005790308057903080579030805790308DC
:100100000000000005790308C9E602080579030824
:1001100000000000000000000579030805790308CD
:100120000579030805790308D9FF0208E5FF0208ED
:10013000057903080579030805790308057903089B
:100140000579030805790308057903084D000308BC
:10015000057903080579030805790308057903087B
:10016000057903080579030800000000000000007D
:10017000000000000000000000000000000000007F
:10018000057903080579030800000000000000005D
:10019000057903080579030800000000000000004D
:1001A000000000000000000000000000000000004F
:1001B000057903080000000000000000057903082D
:0401C00005790308B2
:1001D00010B5054C237833B9044B13B10448AFF381
:1001E00000800123237010BD2810002000000000B3
:1001F0000879030808B5034B1BB103490348AFF363
:10020000008008BD000000002C10002008790308C1
:1002100010F8012B11F8013B012A28BF9A42F7D0B0
:10022000D01A7047034613F8012B002AFBD1181A85
:1002300001387047000000000000000000000000CE
:1002400001F0FF01102A2BDB10F0070F08D010F887
:10025000013B013A8B422DD010F0070F42B3F6D18B
:10026000F0B441EA012141EA014122F007047FF0A4
:1002700000070023F0E80256083C85EA010586EAFB
:10028000010685FA47F5A3FA87F586FA47F6A5FA37
:1002900087F68EB9EED1F0BC01F0FF0102F0070243
:1002A00032B110F8013B013A83EA010313B1F8D1EE
:1002B0000020704701387047002D06BF35460338CF
:1002C000073815F0010F07D1013015F4807F02BF08
:1002D000013015F4C03F0130F0BC0138704700BF59
:1002E00081F0004102E000BF83F0004330B54FEAE7
:1002F00041044FEA430594EA050F08BF90EA020F54
:100300001FBF54EA000C55EA020C7FEA645C7FEAE6
:10031000655C00F0E2804FEA5454D4EB5555B8BF09
:100320006D420CDD2C4480EA020281EA030382EA7A
:10033000000083EA010180EA020281EA0303362D0C
:1003400088BF30BD11F0004F4FEA01314FF4801CDF
:100350004CEA113102D0404261EB410113F0004FF1
:100360004FEA03334CEA133302D0524263EB4303A8
:1003700094EA050F00F0A780A4F10104D5F1200E46
:100380000DDB02FA0EFC22FA05F2801841F10001A1
:1003900003FA0EF2801843FA05F359410EE0A5F175
:1003A00020050EF1200E012A03FA0EFC28BF4CF0A6
:1003B000020C43FA05F3C01851EBE37101F000455C
:1003C00007D54FF0000EDCF1000C7EEB00006EEB69
:1003D0000101B1F5801F1BD3B1F5001F0CD34908F3
:1003E0005FEA30004FEA3C0C04F101044FEA44524A
:1003F00012F5800F80F09A80BCF1004F08BF5FEAD1
:10040000500C50F1000041EB045141EA050130BDB0
:100410005FEA4C0C404141EB010111F4801FA4F153
:100420000104E9D191F0000F04BF01460020B1FAA8
:1004300081F308BF2033A3F10B03B3F120020CDAE0
:100440000C3208DD02F1140CC2F10C0201FA0CF0BE
:1004500021FA02F10CE002F11402D8BFC2F1200C23
:1004600001FA02F120FA0CFCDCBF41EA0C019040D9
:10047000E41AA2BF01EB0451294330BD6FEA040422
:100480001F3C1CDA0C340EDC04F11404C4F120020D
:1004900020FA04F001FA02F340EA030021FA04F31F
:1004A00045EA030130BDC4F10C04C4F1200220FA76
:1004B00002F001FA04F340EA0300294630BD21FAB4
:1004C00004F0294630BD94F0000F83F4801306BF7A
:1004D00081F480110134013D4EE77FEA645C18BF6E
:1004E0007FEA655C29D094EA050F08BF90EA020F05
:1004F00005D054EA000C04BF1946104630BD91EAFD
:10050000030F1EBF0021002030BD5FEA545C05D1FF
:100510004000494128BF41F0004130BD14F580043E
:100520003CBF01F5801130BD01F0004545F0FE41B2
:1005300041F470014FF0000030BD7FEA645C1ABFE7
:10054000194610467FEA655C1CBF0B46024650EA1E
:10055000013406BF52EA033591EA030F41F400214A
:1005600030BD00BF90F0000F04BF0021704730B5D0
:100570004FF4806404F132044FF000054FF00001A5
:1005800050E700BF90F0000F04BF0021704730B566
:100590004FF4806404F1320410F0004548BF40423B
:1005A0004FF000013EE700BF42004FEAE2014FEA90
:1005B00031014FEA02701FBF12F07F4393F07F4F6B
:1005C00081F06051704732F07F4208BF704793F06E
:1005D0007F4F04BF41F40021704730B54FF4607481
:1005E00001F0004521F000411CE700BF50EA010284
:1005F00008BF704730B54FF000050AE050EA01022D
:1006000008BF704730B511F0004502D5404261EB9C
:1006100041014FF4806404F132045FEA915C3FF4DD
:10062000D8AE4FF003025FEADC0C18BF03325FEA7A
:10063000DC0C18BF033202EBDC02C2F1200300FA2B
:1006400003FC20FA02F001FA03FE40EA0E0021FA50
:1006500002F11444BDE600BF70B54FF0FF0C4CF43E
:10066000E06C1CEA11541DBF1CEA135594EA0C0FF0
:1006700095EA0C0F00F0DEF82C4481EA030621EA2B
:100680004C5123EA4C5350EA013518BF52EA033566
:1006900041F4801143F4801338D0A0FB02CE4FF018
:1006A0000005E1FB02E506F00042E0FB03E54FF048
:1006B0000006E1FB03569CF0000F18BF4EF0010E40
:1006C000A4F1FF04B6F5007F64F5407404D25FEA3C
:1006D0004E0E6D4146EB060642EAC62141EA5551EF
:1006E0004FEAC52040EA5E504FEACE2EB4F1FD0C31
:1006F00088BFBCF5E06F1ED8BEF1004F08BF5FEAAF
:10070000500E50F1000041EB045170BD06F0004660
:1007100046EA010140EA020081EA0301B4EB5C040D
:10072000C2BFD4EB0C0541EA045170BD41F4801105
:100730004FF0000E013C00F3AB8014F1360FDEBF2A
:10074000002001F0004170BDC4F10004203C35DA06
:100750000C341BDC04F11404C4F1200500FA05F389
:1007600020FA04F001FA05F240EA020001F000422A
:1007700021F0004110EBD37021FA04F642EB0601A0
:100780005EEA430E08BF20EAD37070BDC4F10C04CA
:10079000C4F1200500FA04F320FA05F001FA04F28E
:1007A00040EA020001F0004110EBD37041F100017A
:1007B0005EEA430E08BF20EAD37070BDC4F1200585
:1007C00000FA05F24EEA020E20FA04F301FA05F2ED
:1007D00043EA020321FA04F001F0004121FA04F295
:1007E00020EA020000EBD3705EEA430E08BF20EA65
:1007F000D37070BD94F0000F0FD101F0004640009F
:1008000041EB010111F4801F08BF013CF7D041EA20
:10081000060195F0000F18BF704703F00046520024
:1008200043EB030313F4801F08BF013DF7D043EAF5
:100830000603704794EA0C0F0CEA135518BF95EAAB
:100840000C0F0CD050EA410618BF52EA4306D1D132
:1008500081EA030101F000414FF0000070BD50EA51
:10086000410606BF1046194652EA430619D094EADB
:100870000C0F02D150EA013613D195EA0C0F05D1C5
:1008800052EA03361CBF104619460AD181EA030119
:1008900001F0004141F0FE4141F470014FF00000D1
:1008A00070BD41F0FE4141F4780170BD70B54FF06C
:1008B000FF0C4CF4E06C1CEA11541DBF1CEA1355EC
:1008C00094EA0C0F95EA0C0F00F0A7F8A4EB0504CE
:1008D00081EA030E52EA03354FEA013100F08880C5
:1008E0004FEA03334FF0805545EA131343EA12638E
:1008F0004FEA022245EA111545EA10654FEA002643
:100900000EF000419D4208BF964244F1FD0404F5FB
:10091000407402D25B084FEA3202B61A65EB030557
:100920005B084FEA32024FF480104FF4002CB6EB14
:10093000020E75EB030E22BFB61A754640EA0C0094
:100940005B084FEA3202B6EB020E75EB030E22BFD4
:10095000B61A754640EA5C005B084FEA3202B6EB15
:10096000020E75EB030E22BFB61A754640EA9C00D4
:100970005B084FEA3202B6EB020E75EB030E22BFA4
:10098000B61A754640EADC0055EA060E18D04FEA62
:10099000051545EA16754FEA06164FEAC30343EA02
:1009A00052734FEAC2025FEA1C1CC0D111F4801FCF
:1009B0000BD141EA00014FF000004FF0004CB6E7C8
:1009C00011F4801F04BF01430020B4F1FD0C88BF67
:1009D000BCF5E06F3FF6AFAEB5EB030C04BFB6EB72
:1009E000020C5FEA500C50F1000041EB045170BD65
:1009F0000EF0004E4EEA113114EB5C04C2BFD4EB92
:100A00000C0541EA045170BD41F480114FF0000E15
:100A1000013C90E645EA060E8DE60CEA135594EA91
:100A20000C0F08BF95EA0C0F3FF43BAF94EA0C0F94
:100A30000AD150EA01347FF434AF95EA0C0F7FF409
:100A400025AF104619462CE795EA0C0F06D152EA5D
:100A500003353FF4FDAE1046194622E750EA410641
:100A600018BF52EA43067FF4C5AE50EA41047FF452
:100A70000DAF52EA43057FF4EBAE12E74FF0FF3CB7
:100A800006E000BF4FF0010C02E000BF4FF0010C88
:100A90004DF804CD4FEA410C7FEA6C5C4FEA430C01
:100AA00018BF7FEA6C5C1BD001B050EA410C0CBF50
:100AB00052EA430C91EA030F02BF90EA020F0020B2
:100AC000704710F1000F91EA030F58BF994208BF19
:100AD00090422CBFD8176FEAE37040F001007047D6
:100AE0004FEA410C7FEA6C5C02D150EA013C07D12D
:100AF0004FEA430C7FEA6C5CD6D152EA033CD3D078
:100B00005DF8040B704700BF8446104662468C4671
:100B10001946634600E000BF01B5FFF7B7FF0028A4
:100B200048BF10F1000F01BD4DF808EDFFF7F4FFCD
:100B30000CBF012000205DF808FB00BF4DF808ED58
:100B4000FFF7EAFF34BF012000205DF808FB00BF7B
:100B50004DF808EDFFF7E0FF94BF012000205DF89D
:100B600008FB00BF4DF808EDFFF7CEFF94BF012052
:100B700000205DF808FB00BF4DF808EDFFF7C4FF4B
:100B800034BF012000205DF808FB00BF4FEA410C94
:100B90007FEA6C5C02D150EA013C0AD14FEA430C77
:100BA0007FEA6C5C02D152EA033C02D14FF00000B4
:100BB00070474FF0010070474FEA410212F50012F2
:100BC00015D211D56FF47873B3EB625212D94FEA94
:100BD000C12343F0004343EA505311F0004F23FA7E
:100BE00002F018BF404270474FF00000704750EAD3
:100BF000013005D111F0004008BF6FF00040704790
:100C00004FF00000704700BF4A0011D212F50012E9
:100C100011D20DD56FF47873B3EB62520ED44FEA54
:100C2000C12343F0004343EA505323FA02F07047D4
:100C30004FF00000704750EA013002D14FF0FF3012
:100C400070474FF0000070474FEA4102B2F1E043B5
:100C500024BFB3F5001CDCF1FE5C0DD901F0004CA3
:100C60004FEAC0024CEA5070B2F1004F40EB8300F3
:100C700008BF20F00100704711F0804F21D113F11F
:100C80003872BCBF01F00040704741F480114FEA58
:100C90005252C2F11802C2F1200C10FA0CF320FAE1
:100CA00002F018BF40F001004FEAC1234FEAD323FE
:100CB00003FA0CFC40EA0C0023FA02F34FEA430368
:100CC000CCE77FEA625307D150EA01331EBF4FF0F1
:100CD000FE4040F44000704701F0004040F0FE400C
:100CE00040F40000704700BF80F0004002E000BF09
:100CF00081F0004142001FBF5FEA410392EA030F07
:100D00007FEA226C7FEA236C6AD04FEA1262D2EB50
:100D10001363C1BFD218414048404140B8BF5B4255
:100D2000192B88BF704710F0004F40F4000020F0EE
:100D30007F4018BF404211F0004F41F4000121F004
:100D40007F4118BF494292EA030F3FD0A2F101024E
:100D500041FA03FC10EB0C00C3F1200301FA03F18C
:100D600000F0004302D5494260EB4000B0F5000FAF
:100D700013D3B0F1807F06D340084FEA310102F16E
:100D80000102FE2A51D2B1F1004F40EBC25008BF20
:100D900020F0010040EA03007047490040EB0000EA
:100DA00010F4000FA2F10102EDD1B0FA80FCACF119
:100DB000080CB2EB0C0200FA0CF0AABF00EBC25018
:100DC00052421843BCBFD0401843704792F0000F06
:100DD00081F4000106BF80F400000132013BB5E759
:100DE0004FEA41037FEA226C18BF7FEA236C21D0CF
:100DF00092EA030F04D092F0000F08BF0846704734
:100E000090EA010F1CBF0020704712F07F4F04D101
:100E1000400028BF40F00040704712F100723CBF14
:100E200000F50000704700F0004343F0FE4040F43E
:100E3000000070477FEA226216BF08467FEA2363FC
:100E40000146420206BF5FEA412390EA010F40F4E7
:100E5000800070474FF0000304E000BF10F0004333
:100E600048BF40425FEA000C08BF704743F096431A
:100E700001464FF000001CE050EA010208BF704735
:100E80004FF000030AE000BF50EA010208BF7047BC
:100E900011F0004302D5404261EB41015FEA010CD1
:100EA00002BF84460146002043F0B64308BFA3F1C9
:100EB0008053A3F50003BCFA8CF2083AA3EBC253AB
:100EC00010DB01FA02FC634400FA02FCC2F12002CA
:100ED000BCF1004F20FA02F243EB020008BF20F001
:100EE0000100704702F1200201FA02FCC2F1200267
:100EF00050EA4C0021FA02F243EB020008BF20EA5C
:100F0000DC7070474FF0FF0C1CEAD0521EBF1CEA89
:100F1000D15392EA0C0F93EA0C0F6FD01A4480EA77
:100F2000010C400218BF5FEA41211ED04FF0006360
:100F300043EA501043EA5111A0FB01310CF000408C
:100F4000B1F5000F3EBF490041EAD3715B0040EAB2
:100F5000010062F17F02FD2A1DD8B3F1004F40EB82
:100F6000C25008BF20F00100704790F0000F0CF055
:100F7000004C08BF49024CEA502040EA51207F3A19
:100F8000C2BFD2F1FF0340EAC250704740F40000F4
:100F90004FF00003013A5DDC12F1190FDCBF00F0E5
:100FA00000407047C2F10002410021FA02F1C2F193
:100FB000200200FA02FC5FEA310040F1000053EA2F
:100FC0004C0308BF20EADC70704792F0000F00F07D
:100FD000004C02BF400010F4000F013AF9D040EA83
:100FE0000C0093F0000F01F0004C02BF490011F417
:100FF000000F013BF9D041EA0C018FE70CEAD15315
:1010000092EA0C0F18BF93EA0C0F0AD030F0004C94
:1010100018BF31F0004CD8D180EA010000F0004048
:10102000704790F0000F17BF90F0004F084691F006
:10103000000F91F0004F14D092EA0C0F01D1420240
:101040000FD193EA0C0F03D14B0218BF084608D109
:1010500080EA010000F0004040F0FE4040F4000053
:10106000704740F0FE4040F4400070474FF0FF0CE6
:101070001CEAD0521EBF1CEAD15392EA0C0F93EA2D
:101080000C0F69D0A2EB030280EA010C49024FEA7F
:10109000402037D04FF0805343EA111143EA101338
:1010A0000CF000408B4238BF5B0042F17D024FF4F0
:1010B000000C8B4224BF5B1A40EA0C00B3EB510FCB
:1010C00024BFA3EB510340EA5C00B3EB910F24BFB4
:1010D000A3EB910340EA9C00B3EBD10F24BFA3EB39
:1010E000D10340EADC001B0118BF5FEA1C1CE0D101
:1010F000FD2A3FF650AF8B4240EBC25008BF20F0B4
:10110000010070470CF0004C4CEA50207F32C2BF07
:10111000D2F1FF0340EAC250704740F400004FF0A4
:101120000003013A37E792F0000F00F0004C02BFD5
:10113000400010F4000F013AF9D040EA0C0093F09F
:10114000000F01F0004C02BF490011F4000F013BF9
:10115000F9D041EA0C0195E70CEAD15392EA0C0F61
:1011600008D142027FF47DAF93EA0C0F7FF470AF99
:10117000084676E793EA0C0F04D14B023FF44CAFDC
:1011800008466EE730F0004C18BF31F0004CCAD171
:1011900030F000427FF45CAF31F000437FF43CAFAD
:1011A0005FE700BF4FF0FF3C06E000BF4FF0010CCF
:1011B00002E000BF4FF0010C4DF804CD4FEA4002B1
:1011C0004FEA41037FEA226C18BF7FEA236C11D0FB
:1011D00001B052EA530C18BF90EA010F58BFB2EBAE
:1011E000030088BFC81738BF6FEAE17018BF40F02E
:1011F000010070477FEA226C02D15FEA402C05D1E2
:101200007FEA236CE4D15FEA412CE1D05DF8040B66
:10121000704700BF844608466146FFE70FB5FFF7F9
:10122000C9FF002848BF10F1000F0FBD4DF808EDB1
:10123000FFF7F4FF0CBF012000205DF808FB00BFA2
:101240004DF808EDFFF7EAFF34BF012000205DF8FC
:1012500008FB00BF4DF808EDFFF7E0FF94BF012049
:1012600000205DF808FB00BF4DF808EDFFF7D2FF46
:1012700094BF012000205DF808FB00BF4DF808ED89
:10128000FFF7C8FF34BF012000205DF808FB00BF56
:101290004FEA40024FEA41037FEA226C02D15FEA43
:1012A000402C08D17FEA236C02D15FEA412C02D1A5
:1012B0004FF0000070474FF0010070474FEA4002C6
:1012C000B2F1FE4F0FD34FF09E03B3EB12620DD974
:1012D0004FEA002343F0004310F0004F23FA02F0DE
:1012E00018BF404270474FF00000704712F1610F85
:1012F00001D1420205D110F0004008BF6FF000405C
:1013000070474FF00000704742000ED2B2F1FE4F1E
:101310000BD34FF09E03B3EB126209D44FEA0023C4
:1013200043F0004323FA02F070474FF0000070478B
:1013300012F1610F01D1420202D14FF0FF3070472C
:101340004FF00000704700BF7BB972B90029BEBFE3
:1013500000204FF0004106E008BF00281CBF6FF0DE
:1013600000414FF0FF3000F0BDB9ADF1080C6DE960
:1013700004CE002909DB002B1ADB00F04DF8DDF864
:1013800004E0DDE9022304B07047404261EB410113
:10139000002B1BDB00F040F8DDF804E0DDE9022360
:1013A00004B0404261EB4101524263EB430370479A
:1013B000524263EB430300F02FF8DDF804E0DDE96F
:1013C000022304B0404261EB41017047524263EB9B
:1013D000430300F021F8DDF804E0DDE9022304B066
:1013E000524263EB4303704753B94AB9002908BF1F
:1013F00000281CBF4FF0FF314FF0FF3000F072B9F2
:10140000ADF1080C6DE904CE00F006F8DDF804E05B
:10141000DDE9022304B070472DE9F047089E044639
:101420008846002B4BD18A42154667D9B2FA82F220
:101430004AB1C2F1200701FA02F320FA07F79540FA
:1014400047EA030894404FEA154E230CB8FBFEF719
:101450001FFA85FC0EFB178843EA084307FB0CF1D3
:10146000994209D9EB1807F1FF3080F01B819942AE
:1014700040F21881023F2B445B1AA4B2B3FBFEF08A
:101480000EFB103344EA034400FB0CFCA44509D9CD
:101490002C1900F1FF3380F00781A44540F204814C
:1014A00002382C4440EA0740A4EB0C0400271EB18C
:1014B000D4400023C6E900433946BDE8F0878B429B
:1014C00009D9002E00F0EB800027C6E9000138465C
:1014D0003946BDE8F087B3FA83F7002F47D18B4236
:1014E00002D3824200F2FA80841A61EB03030120E6
:1014F0009846002EE0D0C6E90048DDE702B9FFDEDD
:10150000B2FA82F2002A40F08F80491B4FEA154E52
:101510001FFA85F80127B1FBFEFC230C0EFB1C1102
:1015200043EA014308FB0CF1994207D9EB180CF18F
:10153000FF3002D2994200F2CD808446591AA3B2FC
:10154000B1FBFEF00EFB101443EA044408FB00F864
:10155000A04507D92C1900F1FF3302D2A04500F2B3
:10156000B6801846A4EB080440EA0C409FE7C7F198
:10157000200CBB4022FA0CFE4EEA030E01FA07F4DF
:1015800020FA0CF521FA0CF34FEA1E482543B3FB71
:10159000F8F92C0C08FB19331FFA8EFA44EA0343BE
:1015A00009FB0AF49C4202FA07F200FA07F10BD990
:1015B0001EEB030309F1FF3080F087809C4240F26C
:1015C0008480A9F1020973441B1BADB2B3FBF8F090
:1015D00008FB103345EA034400FB0AFAA24508D988
:1015E0001EEB040400F1FF336BD2A24569D9023827
:1015F000744440EA0940A0FB0289A4EB0A044C456C
:10160000C2464B4654D351D0002E69D0B1EB0A05E7
:1016100064EB030404FA0CFCFD40FC404CEA0505B5
:10162000C6E90054002747E7C2F1200320FA03F778
:10163000954001FA02F021FA03F34FEA154E3843C0
:10164000010CB3FBFEF71FFA85F80EFB173341EAD6
:10165000034107FB08F38B4204FA02F407D9691827
:1016600007F1FF3C2FD28B422DD9023F2944CB1AE0
:1016700081B2B3FBFEF00EFB103341EA034100FBE5
:1016800008F38B4207D9691800F1FF3C17D28B424F
:1016900015D902382944C91A40EA07473BE73746BB
:1016A000304609E70746E7E61846FBE64145ABD278
:1016B000B8EB020A69EB0E0201381346A4E7604654
:1016C000E9E7184695E76746D1E781467CE70238A7
:1016D0002C4447E7ACF1020C2B442FE7384608E7CF
:1016E0003746E9E6704700BF7047000010B5094B68
:1016F0004FF0FF3200241A621C625A625C621A6167
:101700001C615A615C619A619C61FFF7EDFF2046A4
:1017100010BD00BF0038024038B50E4A0E4B0546DA
:1017200018784FF47A73B3FBF0F31068B0FBF3F062
:1017300000F0BEF8044658B90F2D09D802462946D4
:101740004FF0FF3000F05EF8044B20461D6038BDBE
:101750000120FCE7E80D002000000020040000202C
:1017600008B50B4B1A6842F400721A601A6842F40A
:1017700080621A601A6842F480721A60032000F0D6
:101780002FF80F20FFF7C8FF2EF032FC002008BD15
:10179000003C0240034A044B11681B780B44136061
:1017A000704700BFAC77002000000020014B186894
:1017B000704700BFAC77002038B50446FFF7F6FF4E
:1017C000631C1CBF054B1B78054618BFE418FFF7C8
:1017D000EDFF401BA042FAD338BD00BF000000203F
:1017E000074AD36823F4E0631B041B0C43F0BF6378
:1017F000000243F4003300F4E0600343D360704719
:1018000000ED00E0174B70B5DC68C4F30224C4F1AE
:101810000705042D04F1040328BF04254FF0FF360B
:10182000062B06FA05F38CBF033C002421EA0303D0
:10183000A34006FA04F422EA0404002843EA04035D
:10184000A8BF00F160404FEA0313BCBF00F00F00D7
:10185000054ADBB2AABF00F56140135480F800339B
:1018600070BD00BF00ED00E014ED00E0002808DBD3
:101870004209012300F01F0003FA00F0014B43F876
:101880002200704700E100E000280DDB430901223F
:1018900000F01F0002FA00F02033044A42F823004F
:1018A000BFF34F8FBFF36F8F704700BF00E100E0C1
:1018B0000138B0F1807F0AD2064B074A5860F02108
:1018C00082F823100020072298601A6070470120D8
:1018D000704700BF10E000E000ED00E00368DAB2FE
:1018E00023F47F7323F003031821103AB2FBF1F2C3
:1018F0000449032A88BF0433895C8365C165806D10
:10190000704700BF9879030870B50446FFF74EFF93
:101910000546002C71D00223226884F8353000235C
:1019200084F83430136823F00103136021680B68D6
:10193000D8073CD40B68324DA0691D40D4E901237F
:101940001343E26813432269134362691343E26954
:1019500003431343226A1343626A042A43EA0503DA
:1019600002BFD4E90B5635432B430B604B69042A65
:1019700023F0070343EA02030BD1A26AE56A13438B
:101980003DB1F8B9012A2DD001D3022A01D1EA01D3
:101990002BD44B612046FFF7A1FFE26D3F2393401C
:1019A000836000200123606584F8353009E0FFF78B
:1019B000FDFE401B0528B9D920236365032084F868
:1019C000350070BDB0F5005F13D1032AE1D801A046
:1019D00050F822F0EB1900088F190008EB190008E5
:1019E000E5190008B5F1C07FD3D14023636501201C
:1019F000E5E7022AF9D9032AC8E70120E1E700BF99
:101A00003F8010F090F83530022B03D080234365DF
:101A1000012070470268052380F83530136823F0F1
:101A20000103136000207047F7B5002301935C4B5E
:101A3000856D1F68C36D2E6808229A4032420446A5
:101A40000CD001680868400708D5086820F0040039
:101A50000860AA60626D42F00102626501229A404C
:101A6000324208D021684969090641BFAA60626D07
:101A700042F00202626504229A40324208D0216894
:101A80000968880741BFAA60626D42F0040262657E
:101A900010229A40324210D02368196809070CD5E9
:101AA000AA601A68500337D51B68190301D4236C48
:101AB00000E0A36C0BB120469847E16D20228A40DC
:101AC00032423AD023681868C60636D5AA6094F820
:101AD0003520052A1A6827D122F016021A605A69A1
:101AE00022F080025A61226C0AB9A26C1AB11A68FB
:101AF00022F008021A603F238B40AB60012384F878
:101B00003530002384F83430236D002B45D0204637
:101B100003B0BDE8F04018471A68D2055EBF1A68E6
:101B200022F008021A60C2E7500327D51B68190388
:101B300031D4636C0BB120469847636D6BB3636D12
:101B4000DA0719D50523226884F83530136823F0A5
:101B5000010313604FF41653B7FBF3F7019B0133F6
:101B6000BB42019302D81368DB07F7D4012384F842
:101B70003530002384F83430E36CC6E71A6812F479
:101B8000807208D1196821F010011960012384F8CE
:101B9000353084F83420E36BCCE703B0F0BD00BFF0
:101BA000E80D002090F83500704700002DE9F04F57
:101BB00085B00B68DFF8A481664A01934FF0010BF2
:101BC0000023019D0BFA03F42540AC4240F0B280A3
:101BD0004E684FEA430E06F00304032707FA0EF798
:101BE00004F1FF3CFF43BCF1010F00973CD8D0F853
:101BF00008C00CEA070CCF6807FA0EF949EA0C0C8A
:101C0000C0F808C0D0F80490C6F3001C29EA050902
:101C10000CFA03FC4CEA090CC0F804C0D0F80CC064
:101C2000009F0CEA070C8F6807FA0EF949EA0C0CC2
:101C3000022CC0F80CC019D14FEAD30900EB890976
:101C400003F0070AD9F820704FEA8A0A4FF00F0C08
:101C50000CFA0AFC27EA0C0C0F6907FA0AFA4AEA9E
:101C60000C0AC9F820A001E0032CD7D1D0F800C09D
:101C7000009F04FA0EF40CEA0707274316F4403FCE
:101C8000076057D04FF0000ACDF80CA0D8F8447088
:101C9000314C47F48047C8F84470D8F8447007F4D2
:101CA00080470397039F23F0030707F1804707F559
:101CB0009C3703F0030ED7F808904FEA8E0E4FF0D2
:101CC0000F0C0CFA0EFCA04229EA0C0C39D004F5DA
:101CD0008064A04237D004F58064A04235D004F57A
:101CE0008064A04233D004F58064A04214BF07246E
:101CF000042404FA0EF444EA0C04BC601468EF43B4
:101D000016F4803F0CBF3C402C431460546816F41A
:101D1000003F0CBF3C402C435460946816F4801F75
:101D20000CBF3C402C439460D468B60254BF3C4086
:101D30002C43D4600133102B7FF443AF05B0BDE8D2
:101D4000F08F5446D5E70124D3E70224D1E70324DA
:101D5000CFE700BF003C01400000024000380240D5
:101D600001684B6913F480634FF0000210D06FF4E8
:101D700080634B612023026380F83D3080F83E2071
:101D8000036C80F83C2043F0040303640120704797
:101D9000184670472DE9F0410446164698468FB222
:101DA0002568686937EA000017D06B695A0516D5AF
:101DB0002B6843F400732B606FF480636B61202207
:101DC0000023236384F83D2084F83E30226C42F0E7
:101DD0000402226484F83C300120BDE8F081731CC9
:101DE000DFD0FFF7E3FCA0EB0800B04201D8002EE3
:101DF000D6D100232022236384F83D2084F83E308E
:101E0000226C42F02002E4E770B504460D46164607
:101E100023685B695B0701D5002070BD2046FFF792
:101E20009FFFA8B96A1CF3D0FFF7C0FC801BA84233
:101E300001D8002DECD100232022236384F83D201B
:101E400084F83E30226C84F83C3042F02002226458
:101E50000120E2E770B504460D4616462068436946
:101E600013F0400301D0002010E04269D2060ED5E5
:101E70006FF0100242612022236384F83D2084F831
:101E80003E30226C226484F83C30012070BDFFF7A4
:101E90008DFC801BA84201D8002DDFD10023202219
:101EA000236384F83D2084F83E30226C42F0200207
:101EB000E8E72DE9F843089E044690461F464FEA9E
:101EC00011498DB22168B9F1010F0CBF4B698B69C3
:101ED00035EA03030CBF01230023984501D00020FD
:101EE00016E07B1CEFD0FFF761FC801BB84201D8E5
:101EF000002FE7D100232022236384F83D2084F8BB
:101F00003E30226C84F83C3042F0200222640120F2
:101F1000BDE8F88370B504460D46164623685B6934
:101F20001B0601D5002070BD2046FFF719FFA8B998
:101F30006A1CF3D0FFF73AFC801BA84201D8002DA1
:101F4000ECD100232022236384F83D2084F83E3026
:101F5000226C84F83C3042F0200222640120E2E747
:101F60002DE9FF41154602680B9E9846136843F41D
:101F7000807313600F460A9B009600224FF00111F8
:101F80000446FFF796FF236838B11B68DB0502D5CE
:101F90004FF40073236403200AE007F0FE071F617B
:101FA0000A9A194933462046FFF7F4FE18B101207A
:101FB00004B0BDE8F081236803905A6903929B69DD
:101FC000039332460A99039B2046FFF7A3FF40B1D3
:101FD000236C042B01BF2268136843F40073136061
:101FE000E5E7B8F1010F236802D1EDB21D61DFE72B
:101FF0002A0A1A610A9932462046FFF78BFF002809
:10200000E6D12368F1E700BF020001002DE9FF419E
:10201000984603680B9D16461A6842F480621A605F
:102020001A6842F480721A600F460A9B00950022DB
:102030004FF001110446FFF73CFF236848B11B68CD
:10204000DB0502D54FF400732364032004B0BDE820
:10205000F081FFB207F0FE021A612A490A9A2B4664
:102060002046FFF797FE08B10120EFE723680390B1
:102070005A6903929B6903932A460A99039B204657
:10208000FFF748FF40B1236C042B01BF226813689F
:1020900043F400731360E7E7B8F1010F236825D11B
:1020A000F6B21E612A460A992046FFF733FF024620
:1020B0000028E8D121680B6843F480730B60204648
:1020C0000A9B00954FF00111FFF7F3FE23680028EB
:1020D000B5D147F001071F610A9A0A492B462046ED
:1020E000FFF758FE003018BF0120AFE7320A1A612F
:1020F0000A992A462046FFF70DFF0028C3D123681E
:10210000CEE700BF020001007047000070B5044632
:1021100008B9012070BD90F83D3003F0FF021BB9F3
:1021200080F83C20FFF7F0FF242384F83D3023683B
:102130001A6822F001021A601A6842F400421A601A
:102140001A6822F400421A6001F01AFE6368414ADC
:1021500093424DD8404A9042DBD922683F495568A6
:10216000B0FBF1F125F03F050D435560156A25F0F0
:102170003F05013129431162D169364D21F44F41A8
:10218000AB4221F0FF0100F1FF3048D85B00B0FB0B
:10219000F3F0431CC3F30B03042B38BF04230B439E
:1021A000D361D4E907301168034321F0C0010B4328
:1021B00013609168D4E9030321F40341034321F040
:1021C000FF010B439360D4E90530D168034321F04C
:1021D000FF010B43D360136843F001031360002039
:1021E0002023206484F83D30206384F83E0091E78A
:1021F0001B4A90428DD92268184E5568B0FBF6F6FE
:1022000025F03F0535435560156A4FF496717143CB
:1022100025F03F054FF47A76B1FBF6F1A9E7A56802
:1022200055B903EB4303B0FBF3F0431CC3F30B03BB
:102230006BB143F40043B2E719256B43B0FBF3F0F5
:10224000431CC3F30B0313B143F44043A7E701233B
:10225000A5E700BFA08601007F841E0040420F005A
:10226000FF083D002DE9F743044699460F46904686
:102270000C9EFFF79BFA94F83D30202B054603D0C7
:10228000022003B0BDE8F0830090192301223B49EE
:102290002046FFF70EFE0028F2D194F83C30012BC7
:1022A000EED0012384F83C3023681A68D1075EBF62
:1022B0001A6842F001021A601A6822F400621A6079
:1022C000212384F83D30402384F83E3000232364EA
:1022D0000A9B6362BDF82C306385638D2385284B90
:1022E000E362CDE900654B46424639462046FFF79A
:1022F00037FE00282AD00120C3E7FFF70BFE40B1CC
:10230000236C042B01BF2268136843F4007313602D
:10231000F1E7636A27681A4612F8011B39616262A5
:10232000628D218D013A92B262857A69481E80B22F
:10233000520720850AD548B15A783A610233636260
:10234000638D013B02399BB221856385238D2A462B
:1023500031462046002BD0D1FFF756FD0028CFD1C3
:102360002268136843F400731360202384F83D301F
:1023700084F83C0084F83E0083E700BF02001000B0
:102380000000FFFF2DE9F043044687B099460D4653
:102390009046109FFFF70AFA94F83D30202B06462E
:1023A00004D00225284607B0BDE8F0830090192329
:1023B000012277492046FFF77CFD0028F1D194F8EF
:1023C0003C30012BEDD0012384F83C3023681A689F
:1023D000D0075EBF1A6842F001021A601A6822F440
:1023E00000621A60222384F83D30402384F83E3096
:1023F000002323640E9B6362BDF83C306385638DCC
:102400002385644BE3622946CDE900764B4642467C
:102410002046FFF7FBFD054608B10125C2E7228DE6
:10242000236892B902905A6902929A690292029ABA
:102430001A6842F400721A60202384F83D300023A9
:1024400084F83E3084F83C30ACE7012A2CD11A687D
:1024500022F480621A6003905A6903929A69039287
:10246000039A1A6842F400721A60DFF82C81238DF7
:10247000002BE1D0032B6ED8012B2DD132463946EB
:102480002046FFF7E7FC0028C7D123681A69636A72
:102490001A70636A01336362238D013B2385638D68
:1024A000013B9BB26385E2E7022A0ED11A6822F44F
:1024B00080621A601A6842F400621A6004905A69D5
:1024C00004929B690493049BCFE705905A69059297
:1024D0009B690593059BC8E7022B00963B464FF08E
:1024E00000024146204619D1FFF7E3FC002894D1B1
:1024F00023681A6842F400721A601A69636A1A70D3
:10250000626A531C6362238D013B2385638D013B0B
:102510009BB2638523681B695370BAE7FFF7C9FC58
:10252000024600287FF479AF2368196821F480619E
:1025300019601969636A1970636A009601336362EE
:10254000238D013B2385638D013B9BB2638541460F
:102550003B462046C8E7324639462046FFF77AFC1C
:1025600000287FF45AAF23681A69636A1A70626A96
:10257000531C6362238D013B2385638D013B9BB21A
:1025800063852368596949077FF571AFC3E700BFC9
:10259000020010000000FFFF0400010070477047B8
:1025A000704770477047704790F83D2008B5036D3D
:1025B000D2B283B9C36C0268012B836C05D1DBB244
:1025C0001361036D0233036508BDC3F30723136171
:1025D000036D0133F7E7036D012B03D1836C0268B0
:1025E000DBB2F4E7036D022BEED1222A05D102689B
:1025F000136843F480731360EAE7438D9BB263B1C1
:10260000212A0AD1436A026813F8011B116143624F
:10261000438D013B9BB24385D6E7438D9BB2002B94
:10262000D2D1212AD0D10268516821F4E0615160F1
:10263000116841F4007111602022036380F83D208D
:1026400080F83E30FFF7AFFFBEE770477047704736
:1026500037B50023806B019390F83D202B4BD1B20E
:102660001B6846F2A812B3FBF2F2232353430193F3
:102670000368019A42BB026C42F020020264456B7F
:102680000DB10022EA63846B0CB10022E2631A6888
:1026900022F480621A600022428505B12A6504B1E5
:1026A00022651A6822F001021A6090F83D20602A23
:1026B00011D1202380F83D30002380F83E300364A0
:1026C000FFF7C5FF03B030BD019A013A01921A68C5
:1026D0009205CED4D3E701F02802282A0ED119683A
:1026E00041F001011960196841F48061196000230B
:1026F000036380F83D20FFF7A9FFE3E7202380F87C
:102700003D30002380F83E30F5E700BFE80D0020A3
:1027100090F83D2090F83E100368C9B2102910B51A
:10272000D2B2044601D0402905D1222A02BF19683D
:1027300021F40061196002F0280128293DD100220E
:10274000226384F83D105A6812F400625DD05A6822
:10275000606B22F400625A6090F83530012B3E4BDA
:1027600039D00365FFF74EF950B12268606B1368EA
:1027700023F001031360202384F83D30036D984754
:10278000236C19071FBF2268536823F4E06353606A
:1027900094F83D30226C5207DBB20DD5282B0BD1BB
:1027A0002E4BE362202200232363204684F83D2041
:1027B00084F83E30FFF7F6FE10BD596811F4006151
:1027C00006D1602A1EBF202284F83D2084F83E10E6
:1027D00000222263B7E7A06B0365FFF713F9002817
:1027E000CED023685A69510605D51A69636A1A70F2
:1027F000636A013363622268A06B136823F00103EC
:102800001360202384F83D30B8E794F83D10602928
:1028100015D1202184F83D1022645A69520605D54D
:102820001A69636A1A70636A013363622268136803
:1028300023F0010313602046FFF709FFA0E75A6960
:10284000500605D51A69636A1A70636A01336362B8
:102850002046FFF7FBFE93E7512600080000FFFF2C
:102860000368F0B55A68C66A90F83E5090F83D107B
:10287000EDB2102D8FB00446C9B202D0402D40F009
:10288000C0829F69586910F0010F07D1B6F52A0F71
:1028900002D0B6F12A4F51D10FB0F0BD96054DD5FB
:1028A000E26AB2F52A0F0CD10122E26294F83E20CE
:1028B000402A11D1226D52B9626C02F0FE021A61F7
:1028C000EAE7E26AB2F12A4FF0D10822EDE7626C42
:1028D00042F00102D2B2F2E72269B2F5804F1AD17A
:1028E00094F83D20212A626C11D102F0FE021A6197
:1028F000626B0AB1D26B2AB9A26B002ACCD0D26B20
:10290000002AC9D05A6842F400625A60C4E742F013
:102910000102D2B2EBE7226D32B9626CD21102F041
:10292000060242F0F002CAE7226D012AB4D1626CBD
:10293000D21102F0060242F0F102C0E7060703D509
:10294000960501D5626CE4E7860740F1DD809605C7
:1029500040F1DA8094F83E10E26A256B94F83D006D
:102960002228C9B240F0C880206D40B9402906D164
:1029700001905A6901929B690193019B8CE7216D3B
:1029800089B92069B0F5404F0DD102915A69029280
:102990009A690292029A1A6842F480721A60236D50
:1029A0000133236578E7618D89B251B903915A6982
:1029B00003929A690392039A1A6842F400721A60A9
:1029C00019E0618D89B2012949D112F5803F1BD1EF
:1029D0001A6822F480621A605A6812F400620CD0FD
:1029E0001A6822F480621A60002204925A690492E2
:1029F0009B690493049B0023D3E705925A690592CF
:102A00009A690592059AD7E7082A1CD0202A1AD07D
:102A1000122D0DD1012A16D11A6822F480621A6093
:102A2000002206925A6906929B690693069BE2E78A
:102A3000102AF1D8914921FA02F2D707ECD51A6889
:102A400042F48062EBE71A6822F480621A60002286
:102A500007925A6907929A690792079AACE7618DC3
:102A600089B202292AD1102A03D88449D140CE073D
:102A700020D4196821F480611960196841F400615B
:102A8000196059680D050DD512F5803F06D0511E0D
:102A90001F2907D87A4ACA40D00703D55A6842F49A
:102AA00080525A60002208925A6908929B690893E2
:102AB000089BA0E7196841F48061E1E7196841F4D7
:102AC00080611960596809050ED512F5803F07D05D
:102AD000013A1F2A08D86A4921FA02F2D20703D51F
:102AE0005A6842F480525A60002209925A69099247
:102AF0009B690993099B7EE700220A925A690A9210
:102B00009B690A930A9BC7E67F0740F18D805E6848
:102B100036053FF5C1AE0706C0F380063ED5500529
:102B20003CD5002E3DD194F83D20258D94F83E10E3
:102B3000E06AD2B2C9B2C5B9212A18D1082858D042
:102B4000202856D010F5803F53D05A6822F4E06216
:102B50005A6011232363002384F83E30202384F835
:102B60003D302046FFF71AFD96E6212A05D0402980
:102B70007FF492AE222A7FF48FAE628D92B21AB9A0
:102B80005A6822F48062C0E694F83E20402A16D1AA
:102B900020460FB0BDE8F040FFF706BD002E3FF421
:102BA0007BAE97057FF578AE212939D1E16A94F89B
:102BB0003D20212A7FF470AE628D92B24AB1626AE2
:102BC00012F8011B19616262638D013B9BB2638540
:102BD00062E608290DD020290BD011F5803F08D0DE
:102BE000596821F4E06159601123236384F83E2081
:102BF000B4E75A6822F4E0625A601A6842F400723C
:102C00001A6000232022236384F83D2094F83E209C
:102C100084F83E30402A2046A4D1FFF7C4FC3BE6AE
:102C2000402D7FF439AEB3E759680E053FF534AE59
:102C30004506C0F380017AD5500578D5002979D1B1
:102C400094F83D20222A7FF427AE628D92B2032AA7
:102C500018D91A69636A1A70636A01336362638DF3
:102C6000013B9BB26385638D9BB2032B7FF414AE53
:102C70002268536823F4806353600DE6140001005A
:102C800081800080E06A02283FF406AE012A3FF608
:102C900003AE754A0B91126846F2A811B2FBF1F22D
:102CA00002EB82020B920B9A013A0B920B99D1B96B
:102CB000226C42F0200222645A6822F4E0625A60D8
:102CC0001A69636A1A70636A01336362638D013B38
:102CD0009BB26385202384F83D30204684F83E1063
:102CE000FFF7B4FCD8E51A6812F40072DBD119685A
:102CF00021F480611960596821F4E0615960196913
:102D0000636A1970636A01336362638D013B9BB22E
:102D10006385202384F83D3094F83E3084F83E20CB
:102D2000402B68D122632046FFF78FFCB4E50029D1
:102D30003FF4B2AD92057FF5AFADE26A608D616A96
:102D400080B2042809D15A6822F480625A601B6953
:102D50000B70636A0133636236E7608D80B20328CB
:102D60000CD15868042A20F480605860EFD0022A01
:102D7000EDD01A6822F480621A60E8E7608D80B2B4
:102D80000228E4D1012A01D0102A28D11A6822F49D
:102D900080621A601B690B70626A531C6362638DE8
:102DA000013B9BB2638523681B695370636A226889
:102DB00001336362638D013B9BB26385536823F4E7
:102DC00040735360202384F83D3094F83E30402B0C
:102DD0004FF0000384F83E300DD12363A3E7042AAB
:102DE00001D0022A03D11A6842F48062D1E71A683E
:102DF00042F40072CDE71223236320462BF044FEF9
:102E00004AE5006C10B35869002587072ED5960552
:102E10002CD5226C02B19D6994F83D2002F0280265
:102E2000282A16D15A6822F480625A602F066FEA67
:102E300095014FF0000301F0010154BFA289228BDC
:102E400084F83C302046FFF7ACFB25E59D695869C6
:102E5000DBE700220C9259690C919B690C930C9B47
:102E600084F83C2018E500BFE80D0020C60640F1BC
:102E7000B180950540F1AE8094F83D505A6822F437
:102E8000E0625A6000220D925A690D921A6842F06F
:102E900001021A600D9A1A6822F480621A605A6858
:102EA0001005EDB220D505F0F702222A4AD1A06B19
:102EB0000268526892B26285628D92B21AB1226C37
:102EC00042F0040222645A6822F400625A60FEF75B
:102ED00069FE012808D0A06B794B0365FEF792FDCF
:102EE00010B1A06B036D9847638D9BB213B3236839
:102EF0005A69510709D51A69636A1A70636A0133FE
:102F00006362638D013B9BB2638523685A695206F5
:102F100009D51A69636A1A70636A01336362638D43
:102F2000013B9BB26385638D9BB21BB1236C43F065
:102F300004032364236C13B320460FB0BDE8F040B4
:102F4000FFF7E6BB606B0268526892B26285628DE1
:102F500092B21AB1226C42F0040222645A6822F43E
:102F600000625A60FEF71EFE0128BDD0606B544B14
:102F70000365FEF747FD0028B6D0606BB2E72A2D47
:102F800006D12363282384F83D302046FFF708FB51
:102F900094F83D30282B0CD14A4BE36220220023C9
:102FA0002363204684F83D2084F83E30FFF7FAFA88
:102FB00072E4236B222B02D0222D7FF46DAC002310
:102FC0002022236384F83D2084F83E302046FFF71A
:102FD000E7FA61E401F0F7012129C0F3800535D15A
:102FE000070627D5560525D53DBB94F83D00628DD3
:102FF00092B2C0B2002A3FF44FAC626A12F8015B91
:103000001D616262628D013A92B26285628D92B2F6
:10301000002A7FF441AC29287FF43EAC5A6822F4A0
:1030200080625A6028232163204684F83D30FFF7F0
:10303000B6FA31E4002D3FF42FAC95057FF52CACAA
:10304000628D92B2002A7FF4BAAD25E4400627D5FE
:10305000510525D53DBB94F83D20618D89B2D2B292
:1030600000293FF419AC1969636A1970636A013366
:103070006362638D013B9BB26385638D9BB2002BC2
:103080007FF40AAC2A2A7FF407AC2268536823F441
:103090008063536022232363282384F83D3095E71F
:1030A000002D3FF4F9AB92057FF5F6AB628D92B23D
:1030B000002A3FF4F1AB1A69636A1A7049E600BF4F
:1030C000512600080000FFFFF8B503685F695E68DD
:1030D00090F83E20C7F300250446D2B235B1C6F3BE
:1030E00000251DB16FF4807159610125B80506D521
:1030F000F10542BF6FF4007145F002055961780592
:1031000036D5F10534D5608D94F83D10D4F830C033
:10311000202A80B2C9B25BD1002859D101F0F70052
:10312000212804D0282953D1BCF1210F50D194F883
:103130003D20E16A0829D2B201D020292AD1282ACB
:1031400028D12C4AE2625A6822F4E0625A606FF495
:1031500080625A611A6822F480621A600023202279
:103160002363204684F83D2084F83E30FFF71AFAA6
:103170003A053BD5F30539D523686FF4006245F075
:1031800008055A61236C1D4325642046BDE8F840BC
:10319000FFF7BEBA212A17D11649E1622263202225
:1031A00084F83D20002284F83E205A6822F4E06230
:1031B0005A606FF480625A611A6822F480621A6061
:1031C0002046FFF7ECF9D3E76FF480625A61CFE74E
:1031D0006FF48061102A596145F0040501D0402A3E
:1031E000C6D11A6842F400721A60C1E7002DC9D135
:1031F000F8BD00BF0000FFFF90F83D007047F0B53C
:1032000004468BB060B390F8BD33056803F0FF024D
:103210001BB980F8BC2329F01BFB032384F8BD33C2
:10322000EB6B254613F4807355F8100B08BF236130
:1032300001F0FCFA0FCD6E460FC60FCD0FC695E814
:10324000030086E803002546271D97E80E0055F881
:10325000100B01F031FA064620B1022384F8BD3389
:10326000012556E00146206801F0E6FA3046D4F820
:1032700004C01C264FF0010E0146C2B2944500F175
:1032800001001CD800231C261946D8B2844503F13E
:10329000010322D80FCD6E460FC60FCD0FC695E89D
:1032A000030086E8030097E80E00206801F02AFB7F
:1032B0000123054600B3022284F8BD23D0E706FBB4
:1032C0000243C3E9111183F83DE083F83C20A3F8E1
:1032D000422083F83F101965CFE706FB004282F8D1
:1032E000FD1182F8FC0182F8FF11C2F80412C2F845
:1032F0000812C2F81012C8E784F8380084F8BD3309
:10330000636A012B02D1204600F057FC206801F0CF
:1033100044FE28460BB0F0BD90F8BC33012B10B52D
:10332000044616D00123006884F8BC33A36A012B3D
:1033300006D1A369012B1EBF836B43F480338363E3
:1033400001F06EFA206801F01AFE002084F8BC0338
:1033500010BD0220FCE700002DE9F04F056887B0A2
:103360000446284601F056FE0290002840F03B81BA
:10337000206801F020FE002800F03581206801F06F
:103380001AFE820748BF2268206842BF536903F0D3
:103390000203536101F00FFEC3062AD52268936928
:1033A00023F0100393612E6AC6F34343022B06F009
:1033B0000F0840F01B8147F6F0731E4214D01C2703
:1033C00007FB0847C6F30A163246D7F80812284604
:1033D00001F04CFDD7F808323344C7F80832D7F86B
:1033E00014321E44C7F814622268936943F0100334
:1033F0009361206801F0DFFD070300F1068120687A
:1034000001F0D9FD46030BD5206801F0E0FD26460A
:103410008246002705F51069BAF1000F40F0A3813C
:10342000206801F0C8FD002815DAD5F8043823F02B
:103430000103C5F8043894F8F433012B40F02E82D0
:10344000002184F8F413204600F0CAFB2268536977
:1034500003F000435361206801F0ADFD00050BD57A
:10346000D5F80838D90702D5204629F061FA226834
:10347000536903F400635361206801F09CFD02016D
:1034800014D523685A6902F000625A6194F8F42353
:10349000002A40F007825B6D0121C3F3830384F8A7
:1034A000F413C4F8F833204600F09AFB206801F0CA
:1034B00082FDC30435D505F500667368206823F0E6
:1034C00001037360102101F0E7F9606805F51063EE
:1034D0004FF67F31029A904240F0E881F36943F061
:1034E0000113F361236B002B00F0FC81D6F88430CC
:1034F00043F00B03C6F88430736C43F00B03736422
:10350000D5F80038217C206823F4FE63C5F8003824
:1035100004F5717201F092FD2268536903F480533F
:103520005361206801F047FD870416D5206801F03B
:1035300075FD206801F09EFAE060256800F01AFC35
:10354000227B0146284601F0F7F8204629F0DDF9F4
:103550002268536903F400535361206801F02BFD86
:10356000060707D5204629F0CCF92268536903F0F5
:1035700008035361206801F01EFDC50208D5002133
:10358000204629F0F5F92268536903F4801353614A
:10359000206801F010FD800208D50021204629F0A6
:1035A000E3F92268536903F400135361206801F0C2
:1035B00002FD410007D5204629F0DEF92268536953
:1035C00003F080435361206801F0F5FC42070AD5FF
:1035D00023685D686B0702D5204629F0D1F922687F
:1035E00053682B43536007B0BDE8F08F062B7FF480
:1035F000FBAE082204F5717128461C2701F036FC49
:1036000007FB0847C6F30A16E9E62068DFF8EC92E4
:10361000DFF8ECB201F0D3FC00268046B8F1000FD1
:103620003FF4EDAE18F0010F61D05FFA86FA514613
:10363000206801F0D4FC0746F8071CD5730105F596
:1036400030621A4420680121916000F530622169DE
:10365000D0F840C0134401299A686DD1110706D5EE
:10366000CC4508D9100406D54FF4004202E091067B
:1036700041D520229A60380720D5730105F53062C4
:103680001A44082191602268D2F840A002F5306205
:103690001344CA459A6804D9110444BF4FF4004248
:1036A0009A60204629F016F9CA4507D921690129EF
:1036B00004D104F57172206801F0C0FCFA0641BF24
:1036C00005F5306303EB461310229A60BB0641BF39
:1036D00005F5306303EB461320229A60BF0441BF17
:1036E00005F5306303EB46134FF400529A60013640
:1036F0004FEA580892E712F0280FBCD1CC4501D907
:103700001204B1D41C2202FB06421B69D2F8041237
:10371000C3F31203CB1AC2F81432D2F80832194498
:10372000C2F8081286B9D4F810326BB904F5717278
:10373000012101F083FC07E0DC450AD1110493D498
:10374000920601D520229A605146204629F0C8F8F9
:1037500091E7002EF8D1D4F81032002BF4D104F503
:1037600071723146E5E71AF0010F74D05FFA87FBFA
:103770005946206801F03CFC10F0010F804620D033
:10378000D5F834382169012007F00F0200FA02F25F
:1037900023EA0203C5F8343809EB471381429860E5
:1037A0000BD1D6E911231344B36437B9236D23B980
:1037B00004F57172206801F041FC5946204629F059
:1037C00098F818F0080F1EBF09EB471308229A60FB
:1037D00018F0100F1EBF09EB471310229A6018F063
:1037E000400F1EBF09EB471340229A6018F0020FEA
:1037F0001EBF09EB471302229A6018F0800F2AD0EF
:10380000D6E914329A4226D89B1A726C2168039129
:10381000934228BF134603339B08049301F51063BA
:1038200003EB47130593059B0498996989B281427C
:10383000D6E9143214D293420DD8039B07F00F023D
:1038400003F5006B0121D3F8343801FA02F223EAC0
:103850000203CBF8343001374FEA5A0A1C36DBE555
:103860009342EAD9002BE8D0A3EB0208736C0398CB
:10387000984528BF984608F103039B080493237CCE
:1038800000935A461FFA88F3B16C01F003FAB36C47
:103890004344B364736D43447365C4E7204629F021
:1038A0005FF8D3E5204629F043F8FFE599601A68F0
:1038B00022F400121A601A6842F000621A60C3F81B
:1038C0000812D3F8002222F40012C3F80022D3F821
:1038D000002242F00062C3F80022029A01320292F2
:1038E0002033F7E5736943F4005343F02B0373610E
:1038F000336943F00B03336102E600BF0A30544FD3
:103900000A31544F90F8BC23012A10B504460BD05D
:10391000012280F8BC2384F83810006801F01FFBF6
:10392000002084F8BC0310BD0220FCE770B501F054
:103930000F05044611F0800FC5EBC5004FEA80006B
:103940004FF01C061FD006FB054600F13C0101208C
:10395000214486F83D008A604A780D70CB7002B130
:10396000CD80022B04BF00230B7194F8BC33012BD4
:1039700012D0012384F8BC33206801F086F80020BF
:1039800084F8BC0370BD06FB054600F5FE710020FF
:10399000214486F8FD01DEE70220F3E710B5044676
:1039A00001F00F00C0EBC00311F0800F4FEA83035A
:1039B0004FF01C0216D002FB004203F13C01012330
:1039C000214482F83D30087094F8BC33012B12D0AA
:1039D000012384F8BC33206801F096F8002084F8B5
:1039E000BC0310BD02FB004203F5FE71002321441D
:1039F00082F8FD31E7E70220F3E738B501F00F0563
:103A00001C2404FB050104FB050401F5FE71C4F848
:103A100010320023C4F80822C4F8143284F8FD31AF
:103A200084F8FC5103690068012B08BFC4F80C221C
:103A3000DAB21DB901F0BAF8002038BD01F03EF944
:103A4000FAE71C2301F00F0103FB0101D1F8140276
:103A5000704738B501F00F051C2404FB050104FB79
:103A600005043C312365002363650123A26484F8C7
:103A70003D3084F83C5003690068012B08BFE264C4
:103A8000DAB21DB901F092F8002038BD01F016F944
:103A9000FAE738B5436801F00F059D4204462ED879
:103AA00011F0800F4FF01C021FD002FB050102FB3A
:103AB000050301223C3381F83D2001229A701D70DC
:103AC00094F8BC1391421CD084F8BC23194620689A
:103AD00001F0F1F92DB904F57172217C206801F033
:103AE000ADFA002084F8BC0338BD02FB010302FBE1
:103AF0000101002203F5FE7381F8FD21DDE70120BD
:103B0000F2E70220F0E738B5436801F00F029A426D
:103B100004462AD8C2EBC20311F0800F4FEA830398
:103B20004FF01C0018D000FB024003F13C010123C0
:103B3000214480F83D3000258D700A7094F8BC3324
:103B4000012B14D0012384F8BC33206801F0DEF986
:103B500084F8BC53284638BD00FB024003F5FE71D3
:103B60000023214480F8FD31E5E70120F3E702203E
:103B7000F1E7006870B51204446A19B92243826201
:103B8000002070BD836A4D1E04EB134400235E1CAD
:103B9000DBB29D4205D83F3100EB810022434260F9
:103BA000EEE7403300EB83035B6804EB13443346DA
:103BB000EDE703680020596270470268034601215F
:103BC000C0F8FC13002083F8F403936943F000630A
:103BD0009361536D43F0805343F003035365704783
:103BE00070470000134908B58B6803F00C03042BE1
:103BF00003D0082B03D0104800E0104808BD4A68E5
:103C00004B68496813F4800314BF0C480A48C1F399
:103C1000881118BF002302F03F02A1FB0001FDF74D
:103C2000E3FB044B5B68C3F3014301335B00B0FB70
:103C3000F3F0E3E7003802400024F40040787D010F
:103C40002DE9F0410D46044610B90120BDE8F08190
:103C5000434B1A6802F007028A4228D321688F0773
:103C60002DD4C80740D43E4B1A6802F00702AA427E
:103C700065D8226851076BD4130707D5394A2169E3
:103C8000936823F4604343EAC1039360FFF7AAFFFC
:103C9000344B354A9B68C3F30313D35CD840334B92
:103CA0001860334B1868FDF737FD0020CEE7CAB225
:103CB0001A701B6803F007038B42C6D1CEE7294B6D
:103CC00011F0040F1EBF9A6842F4E0529A600E078A
:103CD00042BF9A6842F460429A609A68A06822F0F3
:103CE000F00202439A60BCE762681E4B012A1CD1B5
:103CF0001B6813F4003FA8D01A4EB36823F00303E7
:103D00001343B360FDF752FD41F288380746B368AC
:103D1000626803F00C03B3EB820FA4D0FDF746FDFD
:103D2000C01B4045F3D9032090E7911E01291B6871
:103D300002D813F0007FDEE713F0020FDBE7EAB2F0
:103D40001A701B6803F00703AB427FF47EAF90E765
:103D50000449E0688B6823F4E05303438B608BE7EE
:103D6000003C024000380240D8340408E80D00202E
:103D700004000020014B1868704700BFE80D0020C8
:103D8000044B054A9B68C3F38223D35C034A106843
:103D9000D840704700380240E8340408E80D00209D
:103DA000044B054A9B68C3F34233D35C034A106853
:103DB000D840704700380240E8340408E80D00207D
:103DC0000F2303600B4B9A6802F0030242609A686B
:103DD00002F0F00282609A6802F4E052C2609B68CE
:103DE000DB0803F4E0530361034B1B6803F0070394
:103DF0000B60704700380240003C024002682DE929
:103E0000F34112F0010504460BD08E494569D1F803
:103E10008C3023F0C0632B43B5FA85F5C1F88C30A4
:103E20006D0996070BD58748A169D0F88C3023F02F
:103E3000C0530B430029C0F88C3008BF0125100780
:103E400030D5002301937F4B7F4E1A6C42F0805295
:103E50001A641B6C03F080530193019B336843F495
:103E600080733360FDF7A2FC07463368D9055CD543
:103E7000744E336F13F4407360D1E36903F44072FE
:103E8000B2F5407F6F4A78D1916823F0704021F4F9
:103E9000F81120F4407001439160116FC3F30B03DC
:103EA0000B43136723685F0742BF684B94F83820C1
:103EB0001A602268D60608D56249606AD1F8943043
:103EC00023F440030343C1F8943090060CD55D48B9
:103ED000A16AD0F8943023F000630B43B1F1006F76
:103EE000C0F8943008BF0125510608D55549206A0D
:103EF000D1F8943023F080530343C1F89430012D5E
:103F00003FD0802A3DD02068C20500F1908010F497
:103F1000007010D04B4A216BD2F88C3023F4004350
:103F20000B43C2F88C30002005E0FDF73FFCC01BBE
:103F300002289AD9032002B0BDE8F081E26902F4B8
:103F40004072934299D0336F414A0121116023F4AA
:103F50004073002111603367336FDA078DD5FDF7A9
:103F600025FC41F288380746336F9B0785D4FDF75F
:103F70001DFCC01B4045F7D9DCE7916821F4F8111E
:103F80008AE7344D2F4E00232B60FDF70FFC0746C8
:103F900033681B0145D4304B626B1A602268D70727
:103FA00001D563698BB1960701D5A3696BB1900602
:103FB00003D5A36AB3F1006F07D0510612D5236A67
:103FC00083B9A36AB3F1006F0CD1D4E902131B06C5
:103FD00043EA811361680B43216943EA017319497C
:103FE000C1F8843012060CD5D4E902231B0643EA3B
:103FF000821362681343226943EA0273114AC2F8CA
:10400000843001232B60FDF7D1FB0E4D06462B6853
:104010001B013FF578AFFDF7C9FB801B0228F6D9DD
:1040200088E7FDF7C3FBC01B0228B1D982E7054A28
:10403000E16AD2F88C3023F000430B43C2F88C3095
:1040400065E700BF0038024000700040E0114742C1
:10405000400E474268004742D810474270B5414C75
:10406000FDF7A4FB236843F00103054623602368A2
:10407000980757D5236843F080032360FDF796FB2C
:104080000023A360374C054641F28836A36813F03D
:104090000C0F4ED1FDF78AFB236823F450232360D5
:1040A000304C05462368990349D4FDF77FFB23680C
:1040B00023F0807323602B4C054623689A0144D477
:1040C000FDF774FB236823F080632360254C0546CD
:1040D00023681B013FD4244B6360C4F88430E36839
:1040E000224A23F4F853E360E36823F40053E360C7
:1040F000E36843F41F03E360E36843F40013E36001
:10410000636F23F001036367636F43F0807363673A
:10411000174B1A60174B1868FDF7FEFA003018BFEE
:10412000012005E0FDF742FB401B02289FD9032038
:1041300070BDFDF73BFB401BB042A7D9F7E7FDF789
:1041400035FB401B6428ADD9F1E7FDF72FFB401B81
:104150000228B2D9EBE7FDF729FB401B0228B7D9AB
:10416000E5E700BF00380240103000240024F400CE
:10417000E80D0020040000202DE9F341044608B9B1
:1041800001203FE00368DD0710D4236898075AD464
:1041900023681A0700F19C8023685B0700F1BA804E
:1041A000A069002840F01B8100202BE0A54B9A68F5
:1041B00002F00C02042A07D09A6802F00C02082AC6
:1041C0000AD15B68590207D59E4B1B689A03DCD560
:1041D0006368002BD9D1D3E763689A4DB3F5803F6C
:1041E00013D12B6843F480332B60FDF7DFFA954D34
:1041F00006462B689B03C8D4FDF7D8FA801B6428B9
:10420000F7D9032002B0BDE8F081B3F5A02F04D1A7
:104210002B6843F480232B60E3E72A6822F4803282
:104220002A602A6822F480222A60002BDDD1FDF763
:10423000BDFA06462B689F03A7D5FDF7B7FA801B8A
:104240006428F7D9DDE77F4B9A6812F00C0F07D08E
:104250009A6802F00C02082A11D15B685E020ED443
:10426000784B1A68950702D5E268012A88D11A6846
:10427000216922F0F80242EAC1021A6088E7E26886
:10428000714BB2B101221A60FDF790FA6D4D0646EE
:104290002B68980707D52B68226923F0F80343EAB7
:1042A000C2032B6074E7FDF781FA801B0228EFD967
:1042B000A7E71A60FDF77AFA624D06462B68990760
:1042C0007FF566AFFDF772FA801B0228F6D998E7F2
:1042D00062695E4B7AB101221A60FDF767FA594DA7
:1042E00006466B6F9F073FF557AFFDF75FFA801BE0
:1042F0000228F6D985E71A60FDF758FA514D0646AF
:104300006B6F98077FF548AFFDF750FA801B0228C6
:10431000F6D976E74B4B1A6C12F0805228D10192F5
:104320001A6C42F080521A641B6C03F080530193A4
:10433000019B0126464D2B68D9051BD5A368414D2D
:10434000012B27D12B6F43F001032B67FDF72EFACA
:104350003C4D074641F288382B6F9B0739D5002E1C
:104360003FF41EAF374A136C23F08053136417E7F2
:104370000026DFE72B6843F480732B60FDF716FA05
:1043800007462B68DA05D9D4FDF710FAC01B0228BE
:10439000F7D936E7052B04D12B6F43F004032B67C5
:1043A000D0E72A6F22F001022A672A6F22F0040266
:1043B0002A67002BCAD1FDF7F9F941F28838074680
:1043C0002B6F9807CBD5FDF7F1F9C01B4045F7D906
:1043D00017E7FDF7EBF9C01B4045BDD911E7194DB3
:1043E000AB6803F00C03082B49D01A4E00230228B7
:1043F000336037D1FDF7DAF907462B6899012BD4E2
:10440000D4E907321343626A43EA8213E26A43EA59
:104410000263226B43EA0273A26A0A4C5208013A11
:1044200043EA02436B6001233360FDF7BFF90546A1
:1044300023689A013FF5B8AEFDF7B8F9401B022892
:10444000F6D9DEE60038024000004742800E4742BF
:104450000070004060004742FDF7A8F9C01B022829
:10446000CBD9CEE6FDF7A2F904462B689B017FF578
:104470009BAEFDF79BF9001B0228F6D9C1E6012887
:104480003FF4C0AE6B68E26903F4800191427FF4AF
:1044900077AE216A03F03F028A427FF471AE616A0F
:1044A00047F6C0721A40B2EB811F7FF469AEA26A70
:1044B000520803F44031013AB1EB024F7FF460AE91
:1044C000E16A03F07062B2EB016F7FF459AE226BC8
:1044D00003F0E043B3EB027F14BF0120002091E61C
:1044E000704738B5044600285AD0436A002B53D190
:1044F0004268B2F5827F00D0C36194F8513003F076
:10450000FF0223B984F850202046FFF7E9FF216815
:10451000A568A269A06A022384F851300B6823F0D1
:1045200040030B60636805F4044503F482732B4376
:10453000E56805F400652B43256905F002052B436A
:10454000656905F001052B4302F400752B43E5690D
:1045500005F038052B43256A05F080052B4300F450
:1045600000552B430B60636A120C03F01003B0F587
:10457000005F02F0040242EA030208BFA38D4A6012
:1045800008BF0B61CB6923F40063CB6100200123DA
:10459000606584F8513038BD0023C0E90433ACE7CE
:1045A0000120F8E7304A0368904212D0B0F1804F02
:1045B0000FD0A2F57C4290420BD002F5806290426F
:1045C00007D002F58062904203D002F57842904213
:1045D00019D14A6823F070031343234A904229D02B
:1045E000B0F1804F26D0A2F57C42904222D002F555
:1045F000806290421ED002F5806290421AD002F58D
:104600007842904216D0194A904213D002F5806247
:1046100090420FD002F5806290420BD0A2F5983202
:10462000904207D002F58062904203D002F580628A
:10463000904203D1CA6823F4407313434A6923F0BC
:104640008003134303608B68C3620B688362064B6D
:10465000984203D003F58063984201D10B6903634C
:1046600001234361704700BF00000140004001404A
:1046700082B000230F4A0193019B013393420193BF
:1046800015D80369002BF7DA002301930369094A5F
:1046900043F001030361019B01339342019306D868
:1046A000036913F00103F6D1184602B070470320E6
:1046B000FBE700BF400D030084B038B505AD85E8C9
:1046C0000E000A9B012B044625D1836B23F4803313
:1046D0008363C36823F4840323F04003C360C36887
:1046E00023F44013C360119B012B02BFC36843F442
:1046F0008013C360FFF7BCFF089B012B07D1A368A1
:1047000043F00603A360A36843F02003A360BDE861
:10471000384004B07047C36843F04003C360FFF7FC
:10472000A7FF0E9B23B9A36B43F48033A363E3E796
:10473000A36B23F48033F9E7022A58D12E4B2F4A7A
:104740000B44934247D92E4B2E4A0B44934244D9F3
:10475000A1F574032C4AA3F5105393423FD9A1F15C
:10476000837302F5C332A3F5E743A032934238D9ED
:10477000264B274A0B44934235D9264B02F5922209
:104780000B4402F5787293422FD9234B02F5C322D2
:104790000B4402F52072934229D9A1F1B77302F5B7
:1047A000B712A3F5585302F55872934221D91B4B07
:1047B00002F512220B4402F5F862934294BF0723DC
:1047C0000623C26822F47052C260C26842EA8323A0
:1047D000C360002070470F23F3E70E23F1E70D239A
:1047E000EFE70C23EDE70B23EBE70A23E9E70923C7
:1047F000E7E70823E5E700BF405327FFFF340C003D
:10480000401E1BFF3F420F007F4F120060B6E5FEC7
:104810005FE3160000D3CEFEC05BB3FEE05459FE4A
:10482000836843F00103836000207047836823F0AE
:10483000010383600020704738B5C368012923F065
:10484000C0430546C36010D1C36843F00053C36042
:1048500000240120FCF7B0FF6B69D90704F10104C3
:1048600015D4322CF5D1012038BD0029FBD1C36805
:1048700043F08043C3600C460120FCF79DFF6B6949
:10488000DA0704F1010402D5322CF5D1EBE7A4F1EB
:10489000320358425841E7E782B08901002341F0D2
:1048A0002001084A01930161019B01339342019366
:1048B00006D8036913F02003F6D1184602B07047FA
:1048C0000320FBE7400D030082B000230193084A58
:1048D00010230361019B01339342019306D80369BE
:1048E00013F01003F6D1184602B070470320FBE71F
:1048F000400D0300D0F800381943C0F8001800201C
:104900007047000084B02DE9F843044609A880E808
:104910000E000023139D0F46194603F1400204EBDD
:10492000820201330F2B5160F7D104F50066002D90
:104930006CD1736843F002037360A36B23F400131C
:10494000A363236843F040032360236843F080039C
:1049500023600023C4F8003ED4F80038C4F80038BF
:104960000E9B012B59D10B99002954D12046FFF7FA
:10497000C1FF10212046FFF78FFF01462046FFF7B9
:10498000A3FF00284BD1081C18BF0120002333616E
:1049900004F5106273611946F3614FF0904C4FF0CB
:1049A000006E4FF67F38BB423BD1002104F53062E8
:1049B0000F464FF0904C4FF0006E4FF67F388B4211
:1049C00042D1336923F4807333610023A3616FF014
:1049D000804363610C9B1BB9A36943F01003A3617F
:1049E000A269234B1343A3610F9B1BB1A36943F03F
:1049F0000803A361012D01BFA36943F0804343F085
:104A00000403A361BDE8F84304B07047A36B43F40B
:104A10000013A3639DE71946A8E70321A6E7012039
:104A2000B4E7D2F80090B9F1000F0BDA3BB9C2F845
:104A300000E011610133C2F808802032B3E7C2F808
:104A400000C0F6E71160F4E7D2F80090B9F1000F6A
:104A50000BDA39B9C2F800E017610131C2F80880F9
:104A60002032ACE7C2F800C0F6E71760F4E700BFF9
:104A700000383C80D0F8083813F0060004D013F05A
:104A8000020F14BF02200F20704730B50D780124AB
:104A900005F00F039C404B7800F50062012B00EB02
:104AA0004510D36918D11C43D461D0F800391A04D9
:104AB00010D48B68C978D0F80029C3F30A0343F0F7
:104AC000805343F4004343EA814343EA855313434D
:104AD000C0F80039002030BD43EA0444D461D0F866
:104AE000003B1B04F6D48B68C978D0F8002BC3F3C5
:104AF0000A0343F0805343F4004343EA81431343E2
:104B0000C0F8003BE6E7000010B50A7849780129B3
:104B100000EB421302F00F0100F5006020D1D3F842
:104B20000029002A0BDAD3F8002942F00062C3F80A
:104B30000029D3F8002942F08042C3F8002901225D
:104B4000C46B8A40D2431440C463C1690A40C26145
:104B5000D3F80019134A0A40C3F80029002010BDF9
:104B6000D3F8002B002A0BDAD3F8002B42F00062B6
:104B7000C3F8002BD3F8002B42F08042C3F8002B7F
:104B80004FF48032C46B8A40D2431440C463C1697D
:104B90000A40C261D3F8001B034A0A40C3F8002B45
:104BA000DCE700BF007833EC0078F3EF4B78F0B52A
:104BB0000C784D69354E364F012B00EB441444D12F
:104BC00004F51063B5B91D692E401E611D6945F4D9
:104BD00000251D611D692F401F61012A21D10A692D
:104BE00002B15A61D4F8003943F00443C4F80039E3
:104BF0000020F0BDD3F810C00CEA07071F611F6941
:104C00003E401E618E68AE421D6938BF4E6145F45C
:104C100000251D614D691E69C5F3120535431D61EF
:104C2000DBE7D4F8003943F00443C4F800394B699A
:104C3000002BDDD00B78D0F8344803F00F020123AD
:104C400093402343C0F83438D2E704F53063186941
:104C500038401861186930401861886805B14861AA
:104C60001D6945F400251D611D69C0F3120028432C
:104C7000012A186102D1CA6802B15A61D4F8003B16
:104C800043F00443C4F8003BB2E700BFFFFF07E076
:104C90000000F8FF10B59DF808404CB9033300EB55
:104CA00002309B0800F5805001EB8303994201D14B
:104CB000002010BD51F8042B0260F7E7F7B54D78DE
:104CC0000C784B69CE78DFF89CC1DFF89CE1012DB0
:104CD00000EB44147CD104F510652F693BBB07EA57
:104CE0000C072F612F6947F400272F612F6907EA0E
:104CF0000E072F61012A41D10B6903B16B61012EAF
:104D00000CD1D0F8083813F4807FD4F800390CBFE8
:104D100043F0005343F08053C4F80039D4F800390D
:104D200043F00443C4F80039002003B0F0BD07EAA3
:104D30000E072F612F6907EA0C07D1F808C02F6111
:104D40000CEB0307013FB7FBFCFC454FD5F810E027
:104D500007EACC4747EA0E072F61D5F810C0C3F326
:104D6000120747EA0C07012E2F61C3D12F6927F0E4
:104D7000C0472F612F6947F00057BAE7D4F80059B0
:104D8000012E45F00445C4F800590CD0002BCBD0BF
:104D90000B78D0F8344803F00F02012393402343EB
:104DA000C0F83438C0E7D0F8085815F4807FD4F83C
:104DB00000590CBF45F0005545F08055C4F8005926
:104DC0000C7800929BB22246C968FFF763FFABE7FD
:104DD00004F530673D6905EA0E053D613D6905EA68
:104DE0000C053D618D681BBB3B69C5F312051D4376
:104DF0003D613B6943F40023012A3B6102D1CB684A
:104E000003B17B61012E0CD1D0F8083813F4807FF8
:104E1000D4F8003B0CBF43F0005343F08053C4F878
:104E2000003BD4F8003B43F00443C4F8003B7BE76D
:104E3000DFF82CC0D7F810E02B44013BB3FBF5F3AF
:104E40000CEAC34C4CEA0E0CC7F810C09BB2D7F862
:104E500010C06B43C3F3120343EA0C03CCE700BF5B
:104E60000000F81FFFFF07E00000F8FF70B5002307
:104E7000940800F5805502F00302A34216D301EB1B
:104E800084018AB100F580500C4605680023D800E3
:104E900025FA00F0013304F8010B98B28242F6D1F2
:104EA000013A92B201321144084670BD2E6841F8B1
:104EB00023600133E1E74A780B78012A00EB4310C5
:104EC00012D1D0F80029002A06DB2BB1D0F8003926
:104ED00023F08043C0F80039D0F8003943F40013C0
:104EE000C0F8003900207047D0F8002B002A06DBFC
:104EF0002BB1D0F8003B23F08043C0F8003BD0F842
:104F0000003B43F40013C0F8003BEBE70B784A7812
:104F100000EB4310CB78012AA3F10203DBB20FD1DF
:104F2000D0F80029012B22F40012C0F8002905D87E
:104F3000D0F8003943F08053C0F8003900207047A2
:104F4000D0F8002B22F40012012BC0F8002B9EBFDA
:104F5000D0F8003B43F08053C0F8003BEEE7D0F8B8
:104F6000003823F4FE63C0F80038D0F80038090197
:104F700001F4FE611943C0F8001800207047D0F812
:104F8000003E23F00303C0F8003ED0F8043823F0BD
:104F90000203C0F8043800207047D0F8003E23F028
:104FA0000303C0F8003ED0F8043843F00203C0F811
:104FB0000438002070474269806910407047D0F87B
:104FC000183800F50060C0691840000C7047D0F830
:104FD000183800F50060C069184080B2704700EBD7
:104FE000411100F50060D1F8082B4069104070476E
:104FF00010B5D0F81048D0F8343800EB411001F06B
:105000000F01CB4000F51060DB018068DBB2234369
:10501000184010BD406900F001007047D0F8003919
:1050200023F4FF6323F00703C0F80039D0F80438F5
:1050300043F48073C0F804380020704730B5056C25
:10504000104CA54200F5306303D9D0F8004B002C7A
:1050500016DB00241C611C6944F400241C611C69DB
:1050600044F018041C611C69012944F0C0441C610F
:1050700001BF5A61D0F8003B43F08023C0F8003BE9
:10508000002030BD0A30544F00487047080000200F
:1050900008B5074B1A784AB95B783BB9054B1B6FCB
:1050A00098472020BDE8084012F0CABA08BD00BFEA
:1050B000A81100207078002038B505460FF0DCFDFF
:1050C000022808D00AF024F8044610B12846FFF759
:1050D000DFFF204638BD0124FBE70C384FF000030A
:1050E0000E280BD8DFE800F0080808080C0C0C0CA0
:1050F0000F0F0F0F121212004FF0010318467047E6
:105100004FF00203FAE74FF00403F7E74FF008030C
:10511000F4E700000F4890F8AE3110B5CBB90E4B54
:1051200090F8AB2193F834310C49DB43DBB21A40E1
:1051300002F00F04D24302F00F020A7090F8AD2182
:105140004C70134003F00F02DB4303F00F03CA70EF
:105150008B7010BD70780020107B00204410002060
:10516000094B18680023C2B262F30703C0F3072299
:1051700062F30F23C0F3074262F3174382B063F375
:10518000170002B0704700BF4410002037B50D4D26
:105190000D4995F8AE510A784B788C78C978C0B231
:1051A0002DB922430B43024003400140044000203C
:1051B00062F3070063F30F2064F3174061F31F608D
:1051C00003B030BD7078002044100020024B1A68F4
:1051D00018609060704700BF2000002000487047B2
:1051E00014000020037D6FF3451310B503751F4BAA
:1051F00019660023C3601E4B016093F82D2042F016
:105200008002027693F82D2042F0040283F82D20CC
:10521000027E42F00402027693F82D2042F0010251
:1052200083F82D20037E43F00103037603695A6857
:105230005B6B0C466421D1600120984701682046D1
:10524000FBF760FE00210446FBF7F0FF60B9094B55
:105250000949586EFBF756FE2146FBF7F1FF00287F
:1052600014BF2B20002010BD2920FCE7B0770020C0
:10527000A8110020107B00206666663FF8B50B6819
:10528000C75C232F04460E46154631D15F1C0F60C4
:10529000C75D3C2F1DD1981C08602044044622465F
:1052A00012F8011B89B90333221A1344336026789C
:1052B0003E2E1BD100232370294607F065FE0028EF
:1052C00014BF002002202670F8BD3E29EBD0144602
:1052D000E5E708F017F848B12868FCF715F8294603
:1052E00080B207F021FD08B10020EDE70220EBE7D6
:1052F0005B2F03D1BDE8F84006F034BB08F002F89C
:105300000028F1D1014B2B60DEE700BF0000C07F19
:10531000084BD3F8943010B5044603B1984723786E
:105320001BB1002120460BF05FF92046BDE810407C
:105330002BF0DEBA207A002008B50C202BF0D0FA32
:10534000034638B1084A07CA83E8070007490A68D4
:105350002AB90B60181C18BF012008BD0A469168C5
:105360000029FBD19360F5E7EC10002050110020DC
:105370000048704734000020F8B50025094E2C463F
:105380004FF07E57731964003946D869E4B2FBF7D1
:105390004DFF08B944F00104043D15F1100FF1D19F
:1053A0002046F8BD2400002010B5FFF7E5FF0E4BA6
:1053B0004FF07E510022DA609A605A601A60D9611B
:1053C000996159611961094B0022C4B283F8222006
:1053D000FFF7D2FFC0B2A04204D00220BDE81040C7
:1053E00012F02EB910BD00BF24000020B0770020BD
:1053F00038B5094C831C04EB8002054654F82300A1
:10540000D2F8841004EB8504FBF774FCD4F89410F4
:10541000FBF770FC38BD00BFB07700202DE9F74FD7
:10542000884606462B4D28B1022831D0E87103B0DA
:10543000BDE8F08F2F46044657F8A43F4FF0000B0D
:1054400003F10C0AA3F1040802464FF00103594688
:1054500057F8040D019299460093FBF7E7FEDDE94A
:10546000003200B19146C7F800B04AF804B944EAE6
:105470000904C245E4B2EAD1EE71002CD7D04FF452
:10548000806012F0DDF803B0BDE8F04F12F02AB9E9
:105490001046FBF7E3FC104A182303FB082308F12E
:1054A0002407196BFBF7E2FD05EB870381460146F4
:1054B00058684FF00104FBF7B9FE08B14FF0000443
:1054C00005EB8707D5F8A430C7F80490E4B243F899
:1054D0002890D1E7B0770020107B0020022331B163
:1054E000012909D0012243700270002302E0012249
:1054F00001704270837070470370002343708170A5
:1055000070470000F0B53E4D3E4C95F8916089B073
:10551000002E42D0A422002120462BF036FA3A4B2E
:105520001822002118462BF030FAC4F8A400374E98
:105530003068002842D195F82D3084F820300EF0E4
:1055400025FFA065FFF730FF207E3149314C0DF07B
:10555000C9FF10B9A3680720984795F8913063B147
:105560002D4B93F823319B0707D42C490B200DF0CA
:10557000B9FF10B9A36807209847E66A1EB195F8ED
:10558000913003BBB04706F0F3FDA369002B35D083
:105590001C4809B0BDE8F040184784223146204637
:1055A0002BF0F3F9D4F8A4004369A3671C4BD3F89C
:1055B0000431002BBBD031469847B8E787682BF001
:1055C00097F93760B4E71022002168462BF0DDF927
:1055D000694610220E482BF0A5F901460028D1D1CA
:1055E00010220DEB02002BF0D0F910220DEB02017E
:1055F0000A482BF097F90028C4D1C4E709B0F0BDE0
:10560000A8110020B0770020587800205011002009
:10561000B8770020207A0020107B0020347800200A
:105620007078002008B5064B0022DA6400229A77D1
:105630000FF04EF81020BDE8084012F001B800BF8E
:10564000B077002008B5054B00205877044B1B6F3E
:1056500098472020BDE8084011F0F2BFB077002045
:1056600070780020014B986D704700BFB077002024
:105670002DE9F74F884603785A1E1F2A064600F187
:105680000100F8D93B2B05D02F2B0AD1754B9B7EFF
:10569000D90605D500233370304603B0BDE8F08F3E
:1056A0000646B146354600242F7817B989F80070B0
:1056B000F2E7202F40F2BD80292F0BD03B2F04D0E2
:1056C000282F40F0A9802C46B5E0002C40F0B38094
:1056D0002C70E9E7002C00F0AA80634B93F880302F
:1056E000002B5ED12B70614B93F8A6319A074CD4F6
:1056F000B8F1000F49D0D8F80030BBB905225C4999
:1057000020462CF002FD88B92F1B043F38462BF0B1
:10571000E7F8C8F8000048B1631D1C460133227841
:10572000202A40D03A4621462BF00BF9D8F8003019
:105730005BBB07224F4920462CF0E7FC28BB4E4BB1
:1057400093F82331DB071ED50190E31D1C4601337E
:105750002278202AFAD04FF0000B019BE75C5A1CFC
:10576000019217BB0BF101002BF0BAF88246C8F882
:10577000000040B1DFF80CB1077001970198421C9E
:105780000192225C42BB0023237023784BB1D8F8EE
:10579000007037B9394BD3F89830002B60D02046D1
:1057A0009847002443E0013FB7E7232F11D16A4611
:1057B00001A920460193FFF761FD38B90621009841
:1057C00007F0E0FCFAF72EFD8344C6E70BF1030B6C
:1057D000C3E70BF1010BC0E7232A16D102A96A46E1
:1057E00041F8040D2046FFF749FD60B906210098F5
:1057F00007F0C8FC014650462CF04FFC5046FAF723
:1058000011FD8244BAE75946F5E78AF800208AF884
:1058100001700AF1010AB1E76CB9A7F16103192B14
:1058200098BF07F05F0789F8007009F10109013599
:105830003AE7002CFBD00522114920462CF065FCEC
:105840000028A5EB040B14BF052307239B45EEDAC4
:10585000A7F16103192B98BF07F05F072F70E6E7E8
:105860001C46E4E7A8110020B077002070780020E3
:105870002F8F0308358F0308107B0020207A00202B
:105880003D8F03084DC103082DE9F04FA9B028A9A9
:10589000002341F8543DFFF7EBFE047807464CB96E
:1058A0001398002802F08086FFF732FD204629B0C9
:1058B000BDE8F08F252C7C4A08D1447834B992F8A1
:1058C0007C3083F0010382F87C30E9E7774E764D37
:1058D000B822002130462BF058F80FCD06F108040D
:1058E0000FC40FCD0FC495E8070084E8070000231C
:1058F00008938DF814303B78BDF820B0242B07D1E5
:1059000001239B4633819DF82030B37286F82730FF
:105910001BF0010F0CBF002303231493DFF8A4A195
:10592000002307931E461D460A9306930B93099383
:10593000149B5A1C149217F80380B8F1000F33D14E
:105940009DF8143013F0FF0F04D0069B002B08BF06
:1059500002230693544D95F87F3033B1069B022BFA
:1059600003D11BF0010F02F06387504A92F8A13077
:1059700013F0400F144605D0D2F88C104C4A9142D7
:1059800002F359871BF0010200F08085980740F16F
:10599000D585E37A002B00F08285E06B4549FBF763
:1059A000B1FAE06300F07BBDB8F1230F60D13E494E
:1059B00091F88010002942F0F785BA5C3C2A27D183
:1059C000023307EB030814934246134612F8011BF7
:1059D0000029ADD03E29F8D15A783D2AA8D100221D
:1059E00003F8022B149AA3EB0803134414A915AA75
:1059F00038461493FFF742FC044600287FF456AF64
:105A00001599404607F048FB002891D102244DE744
:105A10001EAA14A9384607F075FC0028F6D0149B7E
:105A20005A1C1492FB5C3D2BF0D115AA14A93846E0
:105A3000FFF724FC044600287FF438AF099B092BAC
:105A4000E4D81E98FBF760FC80B207F09BF90028B1
:105A5000DCD01E98184CFBF757FC099B24F8330048
:105A600004EBC304159B6360099B013309935FE753
:105A70000E481249D0F8A02009680A420CD08A4387
:105A80000AD128AA394642F8503DD0F890000C4B74
:105A900006F07AFB044609E7B8F1400F14D8B8F1D4
:105AA000240F14D0012401E7B07700204810002013
:105AB000809698003333CB410011002024900308D6
:105AC000307800200000C842B8F15A0FEAD815AA71
:105AD00014A93846FFF7D2FB044600287FF4E6AE4F
