:020000040800F2
:100000000000042005FC0408516104085361040841
:100010005561040857610408596104080000000094
:100020000000000000000000000000005B61040808
:100030005D610408000000005F610408616104085C
:1000400055FC040855FC040855FC040855FC04083C
:1000500055FC040855FC0408054104081D4104082A
:10006000354104084D4104086541040855FC040865
:1000700055FC040855FC040855FC040855FC04080C
:1000800055FC0408BD44040855FC040855FC04084C
:10009000AD1B040855FC040855FC04087D41040808
:1000A00055FC04088166040855FC040855FC040846
:1000B000C566040809670408516704089D440408DC
:1000C000A944040855FC040855FC040855FC040820
:1000D00055FC040855FC0408C95E0408515E040878
:1000E000B141040855FC040855FC040855FC0408FB
:1000F00055FC040855FC040855FC040855FC04088C
:100100000000000055FC0408F53F040855FC0408F5
:10011000000000000000000055FC0408A16704086E
:1001200055FC040855FC0408FD6004080961040836
:1001300055FC040855FC040855FC040855FC04084B
:1001400055FC040855FC040855FC040881610408AA
:1001500055FC040855FC04087957040855FC0408AC
:1001600055FC040855FC04080000000000000000D5
:10017000000000000000000000000000000000007F
:1001800055FC040855FC04080000000000000000B5
:1001900055FC040855FC04080000000000000000A5
:1001A000000000000000000000000000000000004F
:1001B00055FC0408000000000000000055FC040885
:0401C00055FC0408DE
:1001D00010B5054C237833B9044B13B10448AFF381
:1001E00000800123237010BD601D0020000000006E
:1001F00064FC040808B5034B1BB103490348AFF383
:10020000008008BD00000000641D002064FC04089C
:1002100010F8012B11F8013B012A28BF9A42F7D0B0
:10022000D01A7047034613F8012B002AFBD1181A85
:1002300001387047000000000000000000000000CE
:1002400001F0FF01102A2BDB10F0070F08D010F887
:10025000013B013A8B422DD010F0070F42B3F6D18B
:10026000F0B441EA012141EA014122F007047FF0A4
:1002700000070023F0E80256083C85EA010586EAFB
:10028000010685FA47F5A3FA87F586FA47F6A5FA37
:1002900087F68EB9EED1F0BC01F0FF0102F0070243
:1002A00032B110F8013B013A83EA010313B1F8D1EE
:1002B0000020704701387047002D06BF35460338CF
:1002C000073815F0010F07D1013015F4807F02BF08
:1002D000013015F4C03F0130F0BC0138704700BF59
:1002E00081F0004102E000BF83F0004330B54FEAE7
:1002F00041044FEA430594EA050F08BF90EA020F54
:100300001FBF54EA000C55EA020C7FEA645C7FEAE6
:10031000655C00F0E2804FEA5454D4EB5555B8BF09
:100320006D420CDD2C4480EA020281EA030382EA7A
:10033000000083EA010180EA020281EA0303362D0C
:1003400088BF30BD11F0004F4FEA01314FF4801CDF
:100350004CEA113102D0404261EB410113F0004FF1
:100360004FEA03334CEA133302D0524263EB4303A8
:1003700094EA050F00F0A780A4F10104D5F1200E46
:100380000DDB02FA0EFC22FA05F2801841F10001A1
:1003900003FA0EF2801843FA05F359410EE0A5F175
:1003A00020050EF1200E012A03FA0EFC28BF4CF0A6
:1003B000020C43FA05F3C01851EBE37101F000455C
:1003C00007D54FF0000EDCF1000C7EEB00006EEB69
:1003D0000101B1F5801F1BD3B1F5001F0CD34908F3
:1003E0005FEA30004FEA3C0C04F101044FEA44524A
:1003F00012F5800F80F09A80BCF1004F08BF5FEAD1
:10040000500C50F1000041EB045141EA050130BDB0
:100410005FEA4C0C404141EB010111F4801FA4F153
:100420000104E9D191F0000F04BF01460020B1FAA8
:1004300081F308BF2033A3F10B03B3F120020CDAE0
:100440000C3208DD02F1140CC2F10C0201FA0CF0BE
:1004500021FA02F10CE002F11402D8BFC2F1200C23
:1004600001FA02F120FA0CFCDCBF41EA0C019040D9
:10047000E41AA2BF01EB0451294330BD6FEA040422
:100480001F3C1CDA0C340EDC04F11404C4F120020D
:1004900020FA04F001FA02F340EA030021FA04F31F
:1004A00045EA030130BDC4F10C04C4F1200220FA76
:1004B00002F001FA04F340EA0300294630BD21FAB4
:1004C00004F0294630BD94F0000F83F4801306BF7A
:1004D00081F480110134013D4EE77FEA645C18BF6E
:1004E0007FEA655C29D094EA050F08BF90EA020F05
:1004F00005D054EA000C04BF1946104630BD91EAFD
:10050000030F1EBF0021002030BD5FEA545C05D1FF
:100510004000494128BF41F0004130BD14F580043E
:100520003CBF01F5801130BD01F0004545F0FE41B2
:1005300041F470014FF0000030BD7FEA645C1ABFE7
:10054000194610467FEA655C1CBF0B46024650EA1E
:10055000013406BF52EA033591EA030F41F400214A
:1005600030BD00BF90F0000F04BF0021704730B5D0
:100570004FF4806404F132044FF000054FF00001A5
:1005800050E700BF90F0000F04BF0021704730B566
:100590004FF4806404F1320410F0004548BF40423B
:1005A0004FF000013EE700BF42004FEAE2014FEA90
:1005B00031014FEA02701FBF12F07F4393F07F4F6B
:1005C00081F06051704732F07F4208BF704793F06E
:1005D0007F4F04BF41F40021704730B54FF4607481
:1005E00001F0004521F000411CE700BF50EA010284
:1005F00008BF704730B54FF000050AE050EA01022D
:1006000008BF704730B511F0004502D5404261EB9C
:1006100041014FF4806404F132045FEA915C3FF4DD
:10062000D8AE4FF003025FEADC0C18BF03325FEA7A
:10063000DC0C18BF033202EBDC02C2F1200300FA2B
:1006400003FC20FA02F001FA03FE40EA0E0021FA50
:1006500002F11444BDE600BF70B54FF0FF0C4CF43E
:10066000E06C1CEA11541DBF1CEA135594EA0C0FF0
:1006700095EA0C0F00F0DEF82C4481EA030621EA2B
:100680004C5123EA4C5350EA013518BF52EA033566
:1006900041F4801143F4801338D0A0FB02CE4FF018
:1006A0000005E1FB02E506F00042E0FB03E54FF048
:1006B0000006E1FB03569CF0000F18BF4EF0010E40
:1006C000A4F1FF04B6F5007F64F5407404D25FEA3C
:1006D0004E0E6D4146EB060642EAC62141EA5551EF
:1006E0004FEAC52040EA5E504FEACE2EB4F1FD0C31
:1006F00088BFBCF5E06F1ED8BEF1004F08BF5FEAAF
:10070000500E50F1000041EB045170BD06F0004660
:1007100046EA010140EA020081EA0301B4EB5C040D
:10072000C2BFD4EB0C0541EA045170BD41F4801105
:100730004FF0000E013C00F3AB8014F1360FDEBF2A
:10074000002001F0004170BDC4F10004203C35DA06
:100750000C341BDC04F11404C4F1200500FA05F389
:1007600020FA04F001FA05F240EA020001F000422A
:1007700021F0004110EBD37021FA04F642EB0601A0
:100780005EEA430E08BF20EAD37070BDC4F10C04CA
:10079000C4F1200500FA04F320FA05F001FA04F28E
:1007A00040EA020001F0004110EBD37041F100017A
:1007B0005EEA430E08BF20EAD37070BDC4F1200585
:1007C00000FA05F24EEA020E20FA04F301FA05F2ED
:1007D00043EA020321FA04F001F0004121FA04F295
:1007E00020EA020000EBD3705EEA430E08BF20EA65
:1007F000D37070BD94F0000F0FD101F0004640009F
:1008000041EB010111F4801F08BF013CF7D041EA20
:10081000060195F0000F18BF704703F00046520024
:1008200043EB030313F4801F08BF013DF7D043EAF5
:100830000603704794EA0C0F0CEA135518BF95EAAB
:100840000C0F0CD050EA410618BF52EA4306D1D132
:1008500081EA030101F000414FF0000070BD50EA51
:10086000410606BF1046194652EA430619D094EADB
:100870000C0F02D150EA013613D195EA0C0F05D1C5
:1008800052EA03361CBF104619460AD181EA030119
:1008900001F0004141F0FE4141F470014FF00000D1
:1008A00070BD41F0FE4141F4780170BD70B54FF06C
:1008B000FF0C4CF4E06C1CEA11541DBF1CEA1355EC
:1008C00094EA0C0F95EA0C0F00F0A7F8A4EB0504CE
:1008D00081EA030E52EA03354FEA013100F08880C5
:1008E0004FEA03334FF0805545EA131343EA12638E
:1008F0004FEA022245EA111545EA10654FEA002643
:100900000EF000419D4208BF964244F1FD0404F5FB
:10091000407402D25B084FEA3202B61A65EB030557
:100920005B084FEA32024FF480104FF4002CB6EB14
:10093000020E75EB030E22BFB61A754640EA0C0094
:100940005B084FEA3202B6EB020E75EB030E22BFD4
:10095000B61A754640EA5C005B084FEA3202B6EB15
:10096000020E75EB030E22BFB61A754640EA9C00D4
:100970005B084FEA3202B6EB020E75EB030E22BFA4
:10098000B61A754640EADC0055EA060E18D04FEA62
:10099000051545EA16754FEA06164FEAC30343EA02
:1009A00052734FEAC2025FEA1C1CC0D111F4801FCF
:1009B0000BD141EA00014FF000004FF0004CB6E7C8
:1009C00011F4801F04BF01430020B4F1FD0C88BF67
:1009D000BCF5E06F3FF6AFAEB5EB030C04BFB6EB72
:1009E000020C5FEA500C50F1000041EB045170BD65
:1009F0000EF0004E4EEA113114EB5C04C2BFD4EB92
:100A00000C0541EA045170BD41F480114FF0000E15
:100A1000013C90E645EA060E8DE60CEA135594EA91
:100A20000C0F08BF95EA0C0F3FF43BAF94EA0C0F94
:100A30000AD150EA01347FF434AF95EA0C0F7FF409
:100A400025AF104619462CE795EA0C0F06D152EA5D
:100A500003353FF4FDAE1046194622E750EA410641
:100A600018BF52EA43067FF4C5AE50EA41047FF452
:100A70000DAF52EA43057FF4EBAE12E74FF0FF3CB7
:100A800006E000BF4FF0010C02E000BF4FF0010C88
:100A90004DF804CD4FEA410C7FEA6C5C4FEA430C01
:100AA00018BF7FEA6C5C1BD001B050EA410C0CBF50
:100AB00052EA430C91EA030F02BF90EA020F0020B2
:100AC000704710F1000F91EA030F58BF994208BF19
:100AD00090422CBFD8176FEAE37040F001007047D6
:100AE0004FEA410C7FEA6C5C02D150EA013C07D12D
:100AF0004FEA430C7FEA6C5CD6D152EA033CD3D078
:100B00005DF8040B704700BF8446104662468C4671
:100B10001946634600E000BF01B5FFF7B7FF0028A4
:100B200048BF10F1000F01BD4DF808EDFFF7F4FFCD
:100B30000CBF012000205DF808FB00BF4DF808ED58
:100B4000FFF7EAFF34BF012000205DF808FB00BF7B
:100B50004DF808EDFFF7E0FF94BF012000205DF89D
:100B600008FB00BF4DF808EDFFF7CEFF94BF012052
:100B700000205DF808FB00BF4DF808EDFFF7C4FF4B
:100B800034BF012000205DF808FB00BF4FEA410C94
:100B90007FEA6C5C02D150EA013C0AD14FEA430C77
:100BA0007FEA6C5C02D152EA033C02D14FF00000B4
:100BB00070474FF0010070474FEA410212F50012F2
:100BC00015D211D56FF47873B3EB625212D94FEA94
:100BD000C12343F0004343EA505311F0004F23FA7E
:100BE00002F018BF404270474FF00000704750EAD3
:100BF000013005D111F0004008BF6FF00040704790
:100C00004FF00000704700BF4A0011D212F50012E9
:100C100011D20DD56FF47873B3EB62520ED44FEA54
:100C2000C12343F0004343EA505323FA02F07047D4
:100C30004FF00000704750EA013002D14FF0FF3012
:100C400070474FF0000070474FEA4102B2F1E043B5
:100C500024BFB3F5001CDCF1FE5C0DD901F0004CA3
:100C60004FEAC0024CEA5070B2F1004F40EB8300F3
:100C700008BF20F00100704711F0804F21D113F11F
:100C80003872BCBF01F00040704741F480114FEA58
:100C90005252C2F11802C2F1200C10FA0CF320FAE1
:100CA00002F018BF40F001004FEAC1234FEAD323FE
:100CB00003FA0CFC40EA0C0023FA02F34FEA430368
:100CC000CCE77FEA625307D150EA01331EBF4FF0F1
:100CD000FE4040F44000704701F0004040F0FE400C
:100CE00040F40000704700BF80F0004002E000BF09
:100CF00081F0004142001FBF5FEA410392EA030F07
:100D00007FEA226C7FEA236C6AD04FEA1262D2EB50
:100D10001363C1BFD218414048404140B8BF5B4255
:100D2000192B88BF704710F0004F40F4000020F0EE
:100D30007F4018BF404211F0004F41F4000121F004
:100D40007F4118BF494292EA030F3FD0A2F101024E
:100D500041FA03FC10EB0C00C3F1200301FA03F18C
:100D600000F0004302D5494260EB4000B0F5000FAF
:100D700013D3B0F1807F06D340084FEA310102F16E
:100D80000102FE2A51D2B1F1004F40EBC25008BF20
:100D900020F0010040EA03007047490040EB0000EA
:100DA00010F4000FA2F10102EDD1B0FA80FCACF119
:100DB000080CB2EB0C0200FA0CF0AABF00EBC25018
:100DC00052421843BCBFD0401843704792F0000F06
:100DD00081F4000106BF80F400000132013BB5E759
:100DE0004FEA41037FEA226C18BF7FEA236C21D0CF
:100DF00092EA030F04D092F0000F08BF0846704734
:100E000090EA010F1CBF0020704712F07F4F04D101
:100E1000400028BF40F00040704712F100723CBF14
:100E200000F50000704700F0004343F0FE4040F43E
:100E3000000070477FEA226216BF08467FEA2363FC
:100E40000146420206BF5FEA412390EA010F40F4E7
:100E5000800070474FF0000304E000BF10F0004333
:100E600048BF40425FEA000C08BF704743F096431A
:100E700001464FF000001CE050EA010208BF704735
:100E80004FF000030AE000BF50EA010208BF7047BC
:100E900011F0004302D5404261EB41015FEA010CD1
:100EA00002BF84460146002043F0B64308BFA3F1C9
:100EB0008053A3F50003BCFA8CF2083AA3EBC253AB
:100EC00010DB01FA02FC634400FA02FCC2F12002CA
:100ED000BCF1004F20FA02F243EB020008BF20F001
:100EE0000100704702F1200201FA02FCC2F1200267
:100EF00050EA4C0021FA02F243EB020008BF20EA5C
:100F0000DC7070474FF0FF0C1CEAD0521EBF1CEA89
:100F1000D15392EA0C0F93EA0C0F6FD01A4480EA77
:100F2000010C400218BF5FEA41211ED04FF0006360
:100F300043EA501043EA5111A0FB01310CF000408C
:100F4000B1F5000F3EBF490041EAD3715B0040EAB2
:100F5000010062F17F02FD2A1DD8B3F1004F40EB82
:100F6000C25008BF20F00100704790F0000F0CF055
:100F7000004C08BF49024CEA502040EA51207F3A19
:100F8000C2BFD2F1FF0340EAC250704740F40000F4
:100F90004FF00003013A5DDC12F1190FDCBF00F0E5
:100FA00000407047C2F10002410021FA02F1C2F193
:100FB000200200FA02FC5FEA310040F1000053EA2F
:100FC0004C0308BF20EADC70704792F0000F00F07D
:100FD000004C02BF400010F4000F013AF9D040EA83
:100FE0000C0093F0000F01F0004C02BF490011F417
:100FF000000F013BF9D041EA0C018FE70CEAD15315
:1010000092EA0C0F18BF93EA0C0F0AD030F0004C94
:1010100018BF31F0004CD8D180EA010000F0004048
:10102000704790F0000F17BF90F0004F084691F006
:10103000000F91F0004F14D092EA0C0F01D1420240
:101040000FD193EA0C0F03D14B0218BF084608D109
:1010500080EA010000F0004040F0FE4040F4000053
:10106000704740F0FE4040F4400070474FF0FF0CE6
:101070001CEAD0521EBF1CEAD15392EA0C0F93EA2D
:101080000C0F69D0A2EB030280EA010C49024FEA7F
:10109000402037D04FF0805343EA111143EA101338
:1010A0000CF000408B4238BF5B0042F17D024FF4F0
:1010B000000C8B4224BF5B1A40EA0C00B3EB510FCB
:1010C00024BFA3EB510340EA5C00B3EB910F24BFB4
:1010D000A3EB910340EA9C00B3EBD10F24BFA3EB39
:1010E000D10340EADC001B0118BF5FEA1C1CE0D101
:1010F000FD2A3FF650AF8B4240EBC25008BF20F0B4
:10110000010070470CF0004C4CEA50207F32C2BF07
:10111000D2F1FF0340EAC250704740F400004FF0A4
:101120000003013A37E792F0000F00F0004C02BFD5
:10113000400010F4000F013AF9D040EA0C0093F09F
:10114000000F01F0004C02BF490011F4000F013BF9
:10115000F9D041EA0C0195E70CEAD15392EA0C0F61
:1011600008D142027FF47DAF93EA0C0F7FF470AF99
:10117000084676E793EA0C0F04D14B023FF44CAFDC
:1011800008466EE730F0004C18BF31F0004CCAD171
:1011900030F000427FF45CAF31F000437FF43CAFAD
:1011A0005FE700BF4FF0FF3C06E000BF4FF0010CCF
:1011B00002E000BF4FF0010C4DF804CD4FEA4002B1
:1011C0004FEA41037FEA226C18BF7FEA236C11D0FB
:1011D00001B052EA530C18BF90EA010F58BFB2EBAE
:1011E000030088BFC81738BF6FEAE17018BF40F02E
:1011F000010070477FEA226C02D15FEA402C05D1E2
:101200007FEA236CE4D15FEA412CE1D05DF8040B66
:10121000704700BF844608466146FFE70FB5FFF7F9
:10122000C9FF002848BF10F1000F0FBD4DF808EDB1
:10123000FFF7F4FF0CBF012000205DF808FB00BFA2
:101240004DF808EDFFF7EAFF34BF012000205DF8FC
:1012500008FB00BF4DF808EDFFF7E0FF94BF012049
:1012600000205DF808FB00BF4DF808EDFFF7D2FF46
:1012700094BF012000205DF808FB00BF4DF808ED89
:10128000FFF7C8FF34BF012000205DF808FB00BF56
:101290004FEA40024FEA41037FEA226C02D15FEA43
:1012A000402C08D17FEA236C02D15FEA412C02D1A5
:1012B0004FF0000070474FF0010070474FEA4002C6
:1012C000B2F1FE4F0FD34FF09E03B3EB12620DD974
:1012D0004FEA002343F0004310F0004F23FA02F0DE
:1012E00018BF404270474FF00000704712F1610F85
:1012F00001D1420205D110F0004008BF6FF000405C
:1013000070474FF00000704742000ED2B2F1FE4F1E
:101310000BD34FF09E03B3EB126209D44FEA0023C4
:1013200043F0004323FA02F070474FF0000070478B
:1013300012F1610F01D1420202D14FF0FF3070472C
:101340004FF00000704700BF7BB972B90029BEBFE3
:1013500000204FF0004106E008BF00281CBF6FF0DE
:1013600000414FF0FF3000F0BDB9ADF1080C6DE960
:1013700004CE002909DB002B1ADB00F04DF8DDF864
:1013800004E0DDE9022304B07047404261EB410113
:10139000002B1BDB00F040F8DDF804E0DDE9022360
:1013A00004B0404261EB4101524263EB430370479A
:1013B000524263EB430300F02FF8DDF804E0DDE96F
:1013C000022304B0404261EB41017047524263EB9B
:1013D000430300F021F8DDF804E0DDE9022304B066
:1013E000524263EB4303704753B94AB9002908BF1F
:1013F00000281CBF4FF0FF314FF0FF3000F072B9F2
:10140000ADF1080C6DE904CE00F006F8DDF804E05B
:10141000DDE9022304B070472DE9F047089E044639
:101420008846002B4BD18A42154667D9B2FA82F220
:101430004AB1C2F1200701FA02F320FA07F79540FA
:1014400047EA030894404FEA154E230CB8FBFEF719
:101450001FFA85FC0EFB178843EA084307FB0CF1D3
:10146000994209D9EB1807F1FF3080F01B819942AE
:1014700040F21881023F2B445B1AA4B2B3FBFEF08A
:101480000EFB103344EA034400FB0CFCA44509D9CD
:101490002C1900F1FF3380F00781A44540F204814C
:1014A00002382C4440EA0740A4EB0C0400271EB18C
:1014B000D4400023C6E900433946BDE8F0878B429B
:1014C00009D9002E00F0EB800027C6E9000138465C
:1014D0003946BDE8F087B3FA83F7002F47D18B4236
:1014E00002D3824200F2FA80841A61EB03030120E6
:1014F0009846002EE0D0C6E90048DDE702B9FFDEDD
:10150000B2FA82F2002A40F08F80491B4FEA154E52
:101510001FFA85F80127B1FBFEFC230C0EFB1C1102
:1015200043EA014308FB0CF1994207D9EB180CF18F
:10153000FF3002D2994200F2CD808446591AA3B2FC
:10154000B1FBFEF00EFB101443EA044408FB00F864
:10155000A04507D92C1900F1FF3302D2A04500F2B3
:10156000B6801846A4EB080440EA0C409FE7C7F198
:10157000200CBB4022FA0CFE4EEA030E01FA07F4DF
:1015800020FA0CF521FA0CF34FEA1E482543B3FB71
:10159000F8F92C0C08FB19331FFA8EFA44EA0343BE
:1015A00009FB0AF49C4202FA07F200FA07F10BD990
:1015B0001EEB030309F1FF3080F087809C4240F26C
:1015C0008480A9F1020973441B1BADB2B3FBF8F090
:1015D00008FB103345EA034400FB0AFAA24508D988
:1015E0001EEB040400F1FF336BD2A24569D9023827
:1015F000744440EA0940A0FB0289A4EB0A044C456C
:10160000C2464B4654D351D0002E69D0B1EB0A05E7
:1016100064EB030404FA0CFCFD40FC404CEA0505B5
:10162000C6E90054002747E7C2F1200320FA03F778
:10163000954001FA02F021FA03F34FEA154E3843C0
:10164000010CB3FBFEF71FFA85F80EFB173341EAD6
:10165000034107FB08F38B4204FA02F407D9691827
:1016600007F1FF3C2FD28B422DD9023F2944CB1AE0
:1016700081B2B3FBFEF00EFB103341EA034100FBE5
:1016800008F38B4207D9691800F1FF3C17D28B424F
:1016900015D902382944C91A40EA07473BE73746BB
:1016A000304609E70746E7E61846FBE64145ABD278
:1016B000B8EB020A69EB0E0201381346A4E7604654
:1016C000E9E7184695E76746D1E781467CE70238A7
:1016D0002C4447E7ACF1020C2B442FE7384608E7CF
:1016E0003746E9E6704700BF704700000A4B0B4AD7
:1016F00010B51A6200240A4A1C625A62094A5C62E6
:101700001A61C0221C615A6103225C619A619C616A
:10171000FFF7EAFF204610BD00380240FFC9E61778
:10172000337917019F10600038B50E4A0E4B0546FD
:1017300018784FF47A73B3FBF0F31068B0FBF3F052
:1017400000F066FC044658B90F2D09D80246294618
:101750004FF0FF3000F006FC044B20461D6038BD02
:101760000120FCE7481800200000002004000020B1
:1017700008B50B4B1A6842F400721A601A6842F4FA
:1017800080621A601A6842F480721A60032000F0C6
:10179000D7FB0F20FFF7C8FF44F0BCFC002008BDBA
:1017A000003C0240034A044B11681B780B44136051
:1017B000704700BF5C96002000000020014B1868B5
:1017C000704700BF5C96002038B50446FFF7F6FF6F
:1017D000631C1CBF054B1B78054618BFE418FFF7B8
:1017E000EDFF401BA042FAD338BD00BF000000202F
:1017F000014B1868704700BF107AFF1F014B186833
:10180000704700BF147AFF1F014B1868704700BF74
:10181000187AFF1F7047000038B50446002800F012
:101820009B80056C25B9FFF7F5FF656484F83C5093
:10183000236CDB0600F18E80236C23F4885323F0A5
:10184000020343F002032364444B5A6822F44032FB
:101850005A605A6861680A435A60236821695A6865
:1018600022F480725A605A6842EA01225A605A6829
:10187000A16822F040725A605A680A435A609A6816
:10188000E16822F400629A609A680A439A603449D7
:10189000A26A8A4252D0996821F070619960996871
:1018A0000A439A609A68E16A22F040529A609A6804
:1018B0000A439A609A68217E22F002029A609A682E
:1018C00042EA41029A6094F82020002A3ED05A68E9
:1018D000616A42F400625A605A6822F460425A60B7
:1018E0005A68013942EA41325A60DA6AE16922F4FF
:1018F0007002DA62DA6A013942EA0152DA629A68FF
:1019000094F8301022F400729A609A6842EA4122F8
:101910009A609A68616922F480629A609A680020ED
:1019200042EA81229A606064236C23F0030343F04F
:1019300001032364002384F83C3038BD9A6822F008
:1019400070629A609A6822F04052B2E75A6822F4B4
:101950000062C9E70120EDE70120EEE70023014026
:101960000100000F82B00023019390F83C30012B5E
:101970005CD00268012380F83C309368D9070CD50D
:10198000936813F001031AD1026C42F01002026452
:10199000426C42F00102426446E09368254943F0FC
:1019A00001039360244B1B68B3FBF1F303EB430388
:1019B0000193019B002BE3D0019B013BF8E7036CF3
:1019C00023F4E06323F0010343F48073036453685A
:1019D0005B0541BF036C23F4405343F4805303641D
:1019E000036C13F480531CBF436C23F00603436461
:1019F0006FF02201002380F83C3011600F494968E4
:101A000011F01F0109D1906810F0405010D1936877
:101A100043F08043936002B0704709498A4203D182
:101A2000906810F04050F2D01846F4E70220F2E738
:101A30000846F0E740420F0048180020002301400C
:101A40000020014003689A6870B5560504460D46AB
:101A50000BD59B68D80508D5236C43F0200323647D
:101A6000002384F83C30012070BDFFF7A7FE064636
:101A700023681A6892070CD56FF012021A60226C64
:101A800042F4007222649A6812F0405F17D000207E
:101A9000EAE7691CEDD065B923681B6813F00203FF
:101AA000E6D1226C84F83C3042F004022264032028
:101AB000DAE7FFF783FE801BA842EDD8D8E7227E45
:101AC000002AE4D1DA6A12F4700F02D09B685B0539
:101AD000DDD4236C23F480732364206C10F48050D5
:101AE000D5D1236C43F001032364BDE70368D86CB0
:101AF00070470000F7B50023019390F83C30012BAC
:101B00007ED00D688E680123092D80F83C30ACB280
:101B1000036829D904EB4402DF681E3A4FF0070C32
:101B20000CFA02FC27EA0C07DF60DF6806FA02F213
:101B30003A43DA604968062901EB810224D8596BDF
:101B4000053A1F26964021EA06015963596B04FAAB
:101B500002F20A435A632B4A934231D0002380F8A1
:101B60003C30184603B0F0BD1F6905EB45024FF04D
:101B7000070C0CFA02FC27EA0C071F611F6906FA22
:101B800002F23A431A61D5E70C294FF01F010BD836
:101B90001E6B233A914026EA01011963196B04FA7E
:101BA00002F20A431A63D6E7DE6A413A914026EA16
:101BB0000101D962D96A04FA02F20A43DA62CAE779
:101BC000122D04D1104A536843F480035360A5F1E9
:101BD0001003012BC2D80C4A5368102D43F40003A4
:101BE0005360BBD1094B0A4A1B68B3FBF2F20A23CC
:101BF00053430193019B002BB0D0019B013BF8E7BD
:101C00000220AFE7002001400023014048180020D7
:101C100040420F00F0B590F82040013C012C72D8F2
:101C2000066841B9F468A40707D1436A43F4001376
:101C3000436201205CE03469F5E70C013519D5F801
:101C4000B07107F004079760002F52D1D5F8B0713A
:101C50007F0D1760D5F8B07107F00207D760D5F88F
:101C6000B47107F00F07072F96BFD5F8B471082796
:101C700007F00F071761D5F8B471D5F8B4512644B1
:101C8000C7F307272D0C97615561D6F8B8211A7054
:101C900002682244D2F8B821120A5A70026822441B
:101CA000D2F8B821120C9A7002682244D2F8B821F6
:101CB000120EDA7002682244D2F8BC211A7102684E
:101CC0002244D2F8BC21120A5A7102682244D2F886
:101CD000BC21120C9A7102681444D4F8BC21120E73
:101CE000DA71036851B9DA6842F02002DA60002044
:101CF000F0BDD5F8B071FF085760ABE71A6942F044
:101D000020021A61F3E7436A43F4802390E790F8D6
:101D10002030013B012B07D8036819B9D86800F0BF
:101D2000030070471869FAE7002070477047704752
:101D300070477047704770477047704770477047EB
:101D4000704770472DE9F84F03685E69D3F8049037
:101D50009F68D3F80CB0D3F810A0D3F8188016F011
:101D60000104054622D017F0010407D00122B9076B
:101D70009A6040F1A380FFF7D9FF0024FB0509D545
:101D80002B684FF48072B8059A6040F1A580284610
:101D9000FFF7CDFFFB0309D52B684FF48032B80362
:101DA0009A6040F1A7802846FFF7C2FF330707D5A6
:101DB0001BF0100F1FBF2B68102244F40074DA6070
:101DC000770708D51BF0080F05D02B680822DA60CA
:101DD0002846FFF7B1FFB00706D52B68DB689907E7
:101DE00002D028463FF0E8FE720607D51AF0100F21
:101DF0001FBF2B68102244F480641A61B30608D513
:101E00001AF0080F05D02B6808221A612846FFF740
:101E100095FFF70606D52B681B69980702D0284660
:101E2000FFF78BFFB10308D519F0100F05D02B6811
:101E300010225A602846FFF782FFF20308D519F0F6
:101E4000080F05D02B6808225A602846FFF778FF54
:101E500033042AD519F0040F2A6824D0F70504D5D5
:101E600018F0010F18BF44F00104B00504D518F0B4
:101E7000020F18BF44F00204710504D518F0040FD6
:101E800018BF44F0040433050DD518F070030AD0D0
:101E9000302B4CD03CD8102B43D0202B44D093690E
:101EA00023F070039361042353602CB16B6A1C43CD
:101EB0006C622846FFF745FFBDE8F88F7A0705D426
:101EC00017F0080405D1FFF734FF57E74FF400641B
:101ED00054E74FF4805451E7790502D544F4005497
:101EE00058E73A0502D544F4804453E72846FFF703
:101EF00021FF4FE7790302D544F4004456E73A0343
:101F000002D544F4803451E72846FFF714FF4DE72B
:101F1000502B0FD0602B10D0402BC0D144F0400488
:101F2000BDE744F00804BAE744F01004B7E744F012
:101F30002004B4E744F08004B1E744F48074AEE7D1
:101F4000074AD36823F4E0631B041B0C43F0BF6310
:101F5000000243F4003300F4E0600343D3607047B1
:101F600000ED00E0174B70B5DC68C4F30224C4F147
:101F70000705042D04F1040328BF04254FF0FF36A4
:101F8000062B06FA05F38CBF033C002421EA030369
:101F9000A34006FA04F422EA0404002843EA0403F6
:101FA000A8BF00F160404FEA0313BCBF00F00F0070
:101FB000054ADBB2AABF00F56140135480F8003334
:101FC00070BD00BF00ED00E014ED00E0002808DB6C
:101FD0000123420900F01F0003FA00F0014B43F80F
:101FE0002200704700E100E000280DDB43090122D8
:101FF00000F01F0002FA00F02033044A42F82300E8
:10200000BFF34F8FBFF36F8F704700BF00E100E059
:102010000138B0F1807F0AD2064B074A5860F021A0
:1020200082F823100020072298601A607047012070
:10203000704700BF10E000E000ED00E00368DAB296
:1020400023F47F7323F003031821103AB2FBF1F25B
:102050000449032A88BF0433895C8365C165806DA8
:10206000704700BF34FE040870B50446FFF7A6FBB6
:102070000546002C71D00223226884F835300023F5
:1020800084F83430136823F00103136021680B686F
:10209000D8073CD40B68324DA0691D40D4E9012318
:1020A0001343E26813432269134362691343E269ED
:1020B00003431343226A1343626A042A43EA050373
:1020C00002BFD4E90B5635432B430B604B69042AFE
:1020D00023F0070343EA02030BD1A26AE56A134324
:1020E0003DB1F8B9012A2DD001D3022A01D1EA016C
:1020F0002BD44B612046FFF7A1FFE26D3F239340B5
:10210000836000200123606584F8353009E0FFF723
:1021100055FB401B0528B9D920236365032084F8AB
:10212000350070BDB0F5005F13D1032AE1D801A0DE
:1021300050F822F04B210008EF2000084B21000846
:1021400045210008B5F1C07FD3D14023636501204C
:10215000E5E7022AF9D9032AC8E70120E1E700BF31
:102160003F8010F070B590F83440012C32D001243B
:1021700080F8344090F83540866D012C4FF0000512
:102180004FF0020424D180F8354004684565256885
:1021900025F48025256063608368402B0EBFA26014
:1021A000A160E260C26D08BFE1603F239340B3606D
:1021B000236843F016032360036C1BB1236843F0CC
:1021C00008032360236843F001032360002070BDEF
:1021D00080F834500220FAE790F83530022B03D013
:1021E00080234365012070470268052380F835305D
:1021F000136823F00103136000207047F7B5002334
:1022000001935C4B856D1F68C36D2E6808229A4050
:10221000324204460CD001680868400708D50868B7
:1022200020F004000860AA60626D42F0010262655D
:1022300001229A40324208D021684969090641BF0B
:10224000AA60626D42F00202626504229A40324244
:1022500008D021680968880741BFAA60626D42F012
:102260000402626510229A40324210D02368196835
:1022700009070CD5AA601A68500337D51B681903E3
:1022800001D4236C00E0A36C0BB120469847E16DAC
:1022900020228A4032423AD023681868C60636D5D2
:1022A000AA6094F83520052A1A6827D122F0160270
:1022B0001A605A6922F080025A61226C0AB9A26C33
:1022C0001AB11A6822F008021A603F238B40AB60F3
:1022D000012384F83530002384F83430236D002B3B
:1022E00045D0204603B0BDE8F04018471A68D20533
:1022F0005EBF1A6822F008021A60C2E7500327D5B1
:102300001B68190331D4636C0BB120469847636D89
:102310006BB3636DDA0719D50523226884F835306D
:10232000136823F0010313604FF41653B7FBF3F760
:10233000019B0133BB42019302D81368DB07F7D43A
:10234000012384F83530002384F83430E36CC6E789
:102350001A6812F4807208D1196821F0100119600E
:10236000012384F8353084F83420E36BCCE703B0E4
:10237000F0BD00BF4818002090F835007047406D50
:10238000704700002DE9F04F85B00B68DFF8A4819D
:10239000664A01934FF0010B0023019D0BFA03F4F1
:1023A0002540AC4240F0B2804E684FEA430E06F042
:1023B0000304032707FA0EF704F1FF3CFF43BCF1C7
:1023C000010F00973CD8D0F808C00CEA070CCF6882
:1023D00007FA0EF949EA0C0CC0F808C0D0F80490CE
:1023E000C6F3001C29EA05090CFA03FC4CEA090CA7
:1023F000C0F804C0D0F80CC0009F0CEA070C8F682E
:1024000007FA0EF949EA0C0C022CC0F80CC019D1DD
:102410004FEAD30900EB890903F0070AD9F82070C5
:102420004FEA8A0A4FF00F0C0CFA0AFC27EA0C0C50
:102430000F6907FA0AFA4AEA0C0AC9F820A001E073
:10244000032CD7D1D0F800C0009F04FA0EF40CEA98
:102450000707274316F4403F076057D04FF0000AA4
:10246000CDF80CA0D8F84470314C47F48047C8F838
:102470004470D8F8447007F480470397039F23F013
:10248000030707F1804707F59C3703F0030ED7F8E1
:1024900008904FEA8E0E4FF00F0C0CFA0EFCA04283
:1024A00029EA0C0C39D004F58064A04237D004F539
:1024B0008064A04235D004F58064A04233D004F596
:1024C0008064A04214BF0724042404FA0EF444EAF2
:1024D0000C04BC609468EF4316F4801F0CBF3C40B2
:1024E0002C439460D46816F4001F0CBF3C402C436E
:1024F000D460546816F4003F0CBF3C402C43546039
:102500001468F60354BF3C402C4314600133102B75
:102510007FF443AF05B0BDE8F08F5446D5E7012402
:10252000D3E70224D1E70324CFE700BF003C0140FA
:10253000000002400038024001684B6913F48063D8
:102540004FF0000210D06FF480634B6120230263D0
:1025500080F83D3080F83E20036C80F83C2043F04A
:102560000403036401207047184670472DE9F843BF
:10257000089E044690461F464FEA11498DB22068D6
:10258000B9F1010F0CBF4369836935EA03030CBF3E
:1025900001210021884501D0002023E07B1CEFD0E1
:1025A000FFF70CF9801BB84201D8002FE7D1216852
:1025B000B9F1010F0CBF4B698B6935EA03030CBFFE
:1025C000012100218845DAD100232022236384F8E9
:1025D0003D2084F83E30226C84F83C3042F02002EA
:1025E00022640120BDE8F8832DE9F0410446174636
:1025F00098468EB22568686936EA000017D06B6984
:102600005A0516D52B6843F400732B606FF4806372
:102610006B6120220023236384F83D2084F83E3040
:10262000226C42F00402226484F83C300120BDE8B0
:10263000F0817B1CDFD0FFF7C1F8A0EB0800B842A7
:1026400001D8002FD6D123685B6936EA0303D1D0C5
:1026500000232022236384F83D2084F83E30226C3E
:1026600042F02002DFE770B504460D4616462368A7
:102670005B695B0701D5002070BD2046FFF75CFF5A
:10268000C8B96A1CF3D0FFF799F8801BA84201D89B
:10269000002DECD123685B6913F00403E7D12022FD
:1026A000236384F83D2084F83E30226C84F83C306B
:1026B00042F0200222640120DEE770B504460D4698
:1026C00016462068436913F0400301D0002010E053
:1026D0004269D2060ED56FF01002426120222363B8
:1026E00084F83D2084F83E30226C226484F83C302B
:1026F000012070BDFFF762F8801BA84201D8002DB1
:10270000DFD123685B6913F04003DAD12022236311
:1027100084F83D2084F83E30226C42F02002E4E749
:1027200070B504460D46164623685B691B0601D545
:10273000002070BD2046FFF7FFFEC8B96A1CF3D029
:10274000FFF73CF8801BA84201D8002DECD123688C
:102750005B6913F08003E7D12022236384F83D20D6
:1027600084F83E30226C84F83C3042F0200222642F
:102770000120DEE72DE9FF41154602680B9E9846D1
:10278000136843F4807313600F460A9B009600227F
:102790004FF001110446FFF7E9FE236838B11B68CA
:1027A000DB0502D54FF40073236403200AE007F031
:1027B000FE071F610A9A194933462046FFF714FFA6
:1027C00018B1012004B0BDE8F081236803905A6974
:1027D00003929B69039332460A99039B2046FFF7B5
:1027E0009FFF40B1236C042B01BF2268136843F4A0
:1027F00000731360E5E7B8F1010F236802D1EDB271
:102800001D61DFE72A0A1A610A9932462046FFF75E
:1028100087FF0028E6D12368F1E700BF020001002E
:102820002DE9FF41984603680B9D16461A6842F44D
:1028300080621A601A6842F480721A600F460A9B1E
:10284000009500224FF001110446FFF78FFE236828
:1028500048B11B68DB0502D54FF4007323640320E5
:1028600004B0BDE8F081FFB207F0FE021A612A4908
:102870000A9A2B462046FFF7B7FE08B10120EFE782
:10288000236803905A6903929B6903932A460A9925
:10289000039B2046FFF744FF40B1236C042B01BF8C
:1028A0002268136843F400731360E7E7B8F1010F7F
:1028B000236825D1F6B21E612A460A992046FFF701
:1028C0002FFF02460028E8D121680B6843F480738B
:1028D0000B6020460A9B00954FF00111FFF746FE62
:1028E00023680028B5D147F001071F610A9A0A49F9
:1028F0002B462046FFF778FE003018BF0120AFE7D7
:10290000320A1A610A992A462046FFF709FF002871
:10291000C3D12368CEE700BF02000100704700006A
:1029200070B5044608B9012070BD90F83D3003F041
:10293000FF021BB980F83C20FFF7F0FF242384F846
:102940003D3023681A6822F001021A601A6842F4C6
:1029500000421A601A6822F400421A6002F056F926
:102960006368414A93424DD8404A9042DBD922687D
:102970003F495568B0FBF1F125F03F050D43556027
:10298000156A25F03F05013129431162D169364DA1
:1029900021F44F41AB4221F0FF0100F1FF3048D854
:1029A0005B00B0FBF3F0431CC3F30B03042B38BFF5
:1029B00004230B43D361D4E907301168034321F0AA
:1029C000C0010B4313609168D4E9030321F4034170
:1029D000034321F0FF010B439360D4E90530D16834
:1029E000034321F0FF010B43D360136843F001035D
:1029F000136000202023206484F83D30206384F895
:102A00003E0091E71B4A90428DD92268184E5568C6
:102A1000B0FBF6F625F03F0535435560156A4FF4D7
:102A20009671714325F03F054FF47A76B1FBF6F1CC
:102A3000A9E7A56855B903EB4303B0FBF3F0431CCA
:102A4000C3F30B036BB143F40043B2E719256B43A7
:102A5000B0FBF3F0431CC3F30B0313B143F4404347
:102A6000A7E70123A5E700BFA08601007F841E0021
:102A700040420F00FF083D0037B50024019490F854
:102A80003D40202C02D0022003B030BD264C46F23F
:102A9000A8152468B4FBF5F519246C430194019C36
:102AA000013C0194019C54B92023046380F83D301B
:102AB00080F83E40036C43F020030364E3E70468BE
:102AC000A569AD07EBD490F83C50012DDBD0012572
:102AD00080F83C502568ED075EBF256845F001058C
:102AE0002560256825F400652560222580F83D5085
:102AF000102580F83E50002505644385438D0385ED
:102B00000A4BC36241646368426243F4E06380F845
:102B10003C506360236843F480632360236843F47C
:102B2000807323602846AFE7481800200000FFFFAD
:102B30002DE9F743044699460F4690460C9EFEF752
:102B40003DFE94F83D30202B054603D0022003B013
:102B5000BDE8F0830090192301223B492046FFF78E
:102B600005FD0028F2D194F83C30012BEED0012372
:102B700084F83C3023681A68D1075EBF1A6842F0B7
:102B800001021A601A6822F400621A60212384F894
:102B90003D30402384F83E30002323640A9B636267
:102BA000BDF82C306385638D2385284BE362CDE926
:102BB00000654B46424639462046FFF7DBFD0028BC
:102BC0002AD00120C3E7FFF7ABFD40B1236C042BF3
:102BD00001BF2268136843F400731360F1E7636A6E
:102BE00027681A4612F8011B39616262628D218DD5
:102BF000013A92B262857A69481E80B252072085F6
:102C00000AD548B15A783A6102336362638D013B59
:102C100002399BB221856385238D2A4631462046A1
:102C2000002BD0D1FFF71FFD0028CFD122681368F9
:102C300043F400731360202384F83D3084F83C0093
:102C400084F83E0083E700BF020010000000FFFF91
:102C50002DE9F043044687B099460D469046109FF3
:102C6000FEF7ACFD94F83D30202B064604D002253B
:102C7000284607B0BDE8F0830090192301227B4964
:102C80002046FFF773FC0028F1D194F83C30012B6B
:102C9000EDD0012384F83C3023681A68D2075EBF68
:102CA0001A6842F001021A601A6822F400621A607F
:102CB000222384F83D30402384F83E3000232364EF
:102CC0000E9B6362BDF83C306385638D2385684B42
:102CD000E3622946CDE900764B4642462046FFF79F
:102CE0009FFD054608B10125C2E7228D236892B9F0
:102CF00002905A6902929A690292029A1A6842F400
:102D000000721A60202384F83D30002384F83E309E
:102D100084F83C30ACE7012A2CD11A6822F4806296
:102D20001A6003905A6903929A690392039A1A6887
:102D300042F400721A60DFF83C81238D002BE1D051
:102D4000032B6ED8012B2DD1324639462046FFF792
:102D5000B4FC0028C7D123681A69636A1A70636AD1
:102D600001336362238D013B2385638D013B9BB25D
:102D70006385E2E7022A0ED11A6822F480621A60A3
:102D80001A6842F400621A6004905A6904929B69BE
:102D90000493049BCFE705905A6905929B690593BC
:102DA000059BC8E7022B00963B464FF000024146C8
:102DB000204619D1FFF7DAFB002894D123681A685E
:102DC00042F400721A601A69636A1A70626A531CCC
:102DD0006362238D013B2385638D013B9BB2638539
:102DE00023681B695370BAE7FFF7C0FB024600284F
:102DF0007FF479AF2368196821F48061196019693B
:102E0000636A1970636A009601336362238D013B24
:102E10002385638D013B9BB2638541463B4620463B
:102E2000C8E7324639462046FFF747FC00287FF4C2
:102E30005AAF23681A69636A1A70628D616A013A2F
:102E400092B24B1C628522686362238D5069013BFC
:102E50009BB2400723857FF570AF032B02BF136839
:102E600023F48063136013694B7078E7020010004D
:102E70000000FFFF040001002DE9FF4704469846CB
:102E8000002302930E461746DDF83090FEF796FCBD
:102E900094F83D30202B824603D0022004B0BDE8D8
:102EA000F087574B46F2A8121B68B3FBF2F21923C6
:102EB00053430293029B013B0293029B4BB9202296
:102EC000236384F83D2084F83E30236C134323644D
:102ED000E3E7226893699907ECD494F83C30012B1E
:102EE000DBD0012384F83C3013684649DB075EBF22
:102EF000136843F001031360136823F40063136045
:102F0000212384F83D30402384F83E300025BDF86D
:102F1000343025646385638DC4F824909BB2E162EC
:102F200023856664A764C4F84C802565002B5AD0BD
:102F3000606B68B33449C1633449C164C0E910555A
:102F40004946856405651032FFF70CF98146002873
:102F50003DD123230093CDF804A043463A463146A1
:102F60002046FFF707FC00B3606BFFF735F9636B92
:102F7000C3F83C9023681A6822F480621A60A4F8AF
:102F80002A901A68A4F8289022F001021A600AE038
:102F9000202384F83D3084F83E00236C84F83C0004
:102FA00043F080032364012078E7236803905A6983
:102FB00003929A690392039A5A6884F83C0042F497
:102FC00080725A605A6842F400625A6066E72023B1
:102FD00084F83D3084F83E50236C84F83C5043F034
:102FE00010032364DFE7202284F83D2084F83E307C
:102FF000226C84F83C3042F040022264D3E700BFE8
:10300000481800200000FFFF753200083132000828
:103010002DE9F04F044685B0984689469246FEF762
:10302000CDFB94F83D30202B064603D0022005B09E
:10303000BDE8F08F0090192301224B492046FFF78D
:1030400095FA0028F2D194F83C30012BEED0012300
:1030500084F83C302368DFF810B11A68D2075EBFED
:103060001A6842F001021A601A6822F400621A60BB
:10307000242384F83D3000253C4B256409F0FE09EB
:10308000E3622268136843F4807313604FF0011108
:103090004346009600222046FFF768FA236838B1BD
:1030A0001B68DB0502D54FF4007323640320BEE7E1
:1030B000C3F81090FEF782FB23685A695B690646E5
:1030C000C2F34002C3F38023A02794F83D10A02947
:1030D00001D002B9E3B12368202784F83D705A6912
:1030E00012F0020F1A6842F400721A6027D0002210
:1030F00003925A6903929B690393039B00961923D9
:10310000012219492046FFF731FA98B101208EE7D4
:10311000FEF754FB801B404502D8B8F1000F01D1E7
:1031200084F83D7023685A695B69C2F34002C3F3B7
:103130008023CAE784F83D7084F83C0077E76FF499
:1031400080625A6159460096192301222046FFF7F2
:103150000DFA0028DAD10135554592D384F83D7037
:1031600084F83C00D2E700BF020010000000FFFF1F
:1031700070477047704770477047704790F83D2020
:1031800008B5036DD2B283B9C36C0268012B836C9E
:1031900005D1DBB21361036D0233036508BDC3F3D0
:1031A00007231361036D0133F7E7036D012B03D18F
:1031B000836C0268DBB2F4E7036D022B2FD1222A65
:1031C00005D10268136843F480731360EAE7438D06
:1031D0009BB263B1212A0AD1436A026813F8011B2A
:1031E00011614362438D013B9BB24385D6E7438D1A
:1031F0009BB2002BD2D1212AD0D10268516821F490
:10320000E0615160116841F4007111602022036394
:1032100080F83D2080F83E30FFF7AFFFBEE703683F
:103220005A69120644BF00221A61B7E77047704717
:1032300010B5846B636B0BB10022DA63A36B0BB127
:103240000022DA63FFF79BF8022812D02268136885
:1032500023F48063136000232022638584F83D20DB
:1032600084F83E30236C43F0100323642046FFF7BC
:10327000DEFF10BD70B5846B236894F83D1094F8A0
:103280003E00E26A5D6825F440755D60656BC9B219
:10329000C0B20DB10026EE63A56B0DB10026EE6342
:1032A00001F02105212D05D001F02205222D23D189
:1032B000202821D15A6822F400625A6029294FF04F
:1032C000000363850DD121232363282384F83D3037
:1032D0002046FFF74EFF2268536843F44073536063
:1032E00070BD2A29F7D122232363282384F83D3097
:1032F0002046FFF73FFFEEE794F83E100029EFD09D
:10330000618D89B2012902BF196821F480611960B9
:10331000596812F5803F21F44071596006D0082A9F
:1033200004D0B2F12A4F01D0202A03D1196841F408
:1033300000711960596821F480515960596821F46D
:103340000061596000236385236C1BB12046FFF7A1
:103350006EFFC5E7202184F83D1094F83E1084F8F4
:103360003E30402904D123632046FFF75FFFB7E7D3
:10337000082A01D0202A05D100232363204641F0EA
:1033800079F8ADE71223F8E77047000037B500235E
:10339000806B019390F83D202B4BD1B21B6846F215
:1033A000A812B3FBF2F22323534301930368019A5B
:1033B00042BB026C42F020020264456B0DB1002258
:1033C000EA63846B0CB10022E2631A6822F4806223
:1033D0001A600022428505B12A6504B122651A6887
:1033E00022F001021A6090F83D20602A11D12023BA
:1033F00080F83D30002380F83E300364FFF7C4FFBF
:1034000003B030BD019A013A01921A689205CED4F8
:10341000D3E701F02802282A0ED1196841F00101F2
:103420001960196841F4806119600023036380F812
:103430003D20FFF7FCFEE3E7202380F83D3000232A
:1034400080F83E30F5E700BF4818002090F83D2096
:1034500090F83E100368C9B2102910B5D2B20446E4
:1034600001D0402905D1222A02BF196821F4006148
:10347000196002F0280128293DD10022226384F836
:103480003D105A6812F400625DD05A68606B22F4F5
:1034900000625A6090F83530012B3E4B39D00365FD
:1034A000FEF79AFE50B12268606B136823F00103A7
:1034B0001360202384F83D30036D9847236C19076F
:1034C0001FBF2268536823F4E063536094F83D30D3
:1034D000226C5207DBB20DD5282B0BD12E4BE362A9
:1034E000202200232363204684F83D2084F83E30C8
:1034F000FFF742FE10BD596811F4006106D1602A41
:103500001EBF202284F83D2084F83E100022226352
:10351000B7E7A06B0365FEF75FFE0028CED02368F7
:103520005A69510605D51A69636A1A70636A0133CC
:1035300063622268A06B136823F0010313602023E9
:1035400084F83D30B8E794F83D10602915D120216A
:1035500084F83D1022645A69520605D51A69636AD7
:103560001A70636A013363622268136823F00103EF
:1035700013602046FFF708FFA0E75A69500605D5FB
:103580001A69636A1A70636A013363622046FFF73F
:103590004EFE93E78D3300080000FFFF0368F0B58F
:1035A0005A68C66A90F83E5090F83D10EDB2102D62
:1035B0008FB00446C9B202D0402D40F0CC829F6942
:1035C000586910F0010F07D1B6F52A0F02D0B6F1F5
:1035D0002A4F51D10FB0F0BD96054DD5E26AB2F534
:1035E0002A0F0CD10122E26294F83E20402A11D128
:1035F000226D52B9626C02F0FE021A61EAE7E26AD9
:10360000B2F12A4FF0D10822EDE7626C42F00102DC
:10361000D2B2F2E72269B2F5804F1AD194F83D2078
:10362000212A626C11D102F0FE021A61626B0AB1AA
:10363000D26B2AB9A26B002ACCD0D26B002AC9D097
:103640005A6842F400625A60C4E742F00102D2B202
:10365000EBE7226D32B9626CD21102F0060242F041
:10366000F002CAE7226D012AB4D1626CD21102F0D5
:10367000060242F0F102C0E7060703D5960501D520
:10368000626CE4E7860740F1DD80960540F1DA8060
:1036900094F83E10E26A256B94F83D002228C9B2E6
:1036A00040F0C880206D40B9402906D101905A6988
:1036B00001929B690193019B8CE7216D89B9206977
:1036C000B0F5404F0DD102915A6902929A69029267
:1036D000029A1A6842F480721A60236D01332365DE
:1036E00078E7618D89B251B903915A6903929A6959
:1036F0000392039A1A6842F400721A6019E0618D0D
:1037000089B2012949D112F5803F1BD11A6822F4F0
:1037100080621A605A6812F400620CD01A6822F4AF
:1037200080621A60002204925A6904929B69049391
:10373000049B0023D3E705925A6905929A69059282
:10374000059AD7E7082A1CD0202A1AD0122D0DD1AD
:10375000012A16D11A6822F480621A6000220692A9
:103760005A6906929B690693069BE2E7102AF1D8F4
:10377000934921FA02F2D707ECD51A6842F4806225
:10378000EBE71A6822F480621A60002207925A69F5
:1037900007929A690792079AACE7618D89B202296C
:1037A0002AD1102A03D88649D140CE0720D41968DF
:1037B00021F480611960196841F400611960596849
:1037C0000D050DD512F5803F06D0511E1F2907D8D3
:1037D0007C4ACA40D00703D55A6842F480525A60E6
:1037E000002208925A6908929B690893089BA0E7F7
:1037F000196841F48061E1E7196841F4806119605A
:10380000596809050ED512F5803F07D0013A1F2AE5
:1038100008D86C4921FA02F2D20703D55A6842F45B
:1038200080525A60002209925A6909929B69099351
:10383000099B7EE700220A925A690A929B690A93C1
:103840000A9BC7E67F0740F18D805E6836053FF52D
:10385000C1AE0706C0F380063ED550053CD5002E0C
:103860003DD194F83D20258D94F83E10E06AD2B207
:10387000C9B2C5B9212A18D1082858D0202856D055
:1038800010F5803F53D05A6822F4E0625A60112349
:103890002363002384F83E30202384F83D30204603
:1038A000FFF766FC96E6212A05D040297FF492AE08
:1038B000222A7FF48FAE628D92B21AB95A6822F42E
:1038C0008062C0E694F83E20402A16D120460FB010
:1038D000BDE8F040FFF752BC002E3FF47BAE9705E9
:1038E0007FF578AE212939D1E16A94F83D20212A6B
:1038F0007FF470AE628D92B24AB1626A12F8011B17
:1039000019616262638D013B9BB2638562E608299F
:103910000DD020290BD011F5803F08D0596821F433
:10392000E06159601123236384F83E20B4E75A68AC
:1039300022F4E0625A601A6842F400721A600023AE
:103940002022236384F83D2094F83E2084F83E3002
:10395000402A2046A4D1FFF710FC3BE6402D7FF41F
:1039600039AEB3E759680E053FF534AE4506C0F3EE
:10397000800140F18A80500540F18780002940F0A5
:10398000878094F83D20222A7FF424AEE06A628D7D
:1039900092B2032A18D91A69636A1A70636A0133EA
:1039A0006362638D013B9BB26385638D9BB2032B86
:1039B0007FF410AE2268536823F48063536009E6F5
:1039C0001400010081800080E56A022D3FF476AF8B
:1039D000012A3FF673AF794A0B91126846F2A8119B
:1039E000B2FBF1F202EB82020B920B9A013A0B92BC
:1039F0000B99D1B9226C42F0200222645A6822F459
:103A0000E0625A601A69636A1A70636A013363621A
:103A1000638D013B9BB26385202384F83D302046B3
:103A200084F83E10FFF703FCD4E51A6812F4007224
:103A3000DBD1196821F480611960596821F4E061D3
:103A400059601969636A1970636A01336362638D2F
:103A5000013B9BB26385202384F83D3094F83E30CF
:103A600084F83E20402B04D122632046FFF7DEFB82
:103A7000B0E5082801D0202801D1002300E012235E
:103A80002363204640F0F6FCA4E500293FF4A2ADF4
:103A900092057FF59FADE26A608D616A80B204286D
:103AA00009D15A6822F480625A601B690B70636AFC
:103AB0000133636226E7608D80B203280CD1586819
:103AC000042A20F480605860EFD0022AEDD01A68F2
:103AD00022F480621A60E8E7608D80B20228E4D1A7
:103AE000012A186801D0102A27D120F480601860BC
:103AF0001B690B70616A4B1C6362638D013B9BB257
:103B0000638523681B694B70636A216801336362B4
:103B1000638D013B9BB263854B6823F440734B601C
:103B2000202384F83D3094F83E30402B4FF00003C2
:103B300084F83E300BD1236397E7042A01D0022A90
:103B400002D140F48060D2E740F40070CFE7082A49
:103B500093D0202A90E7006C10B35869002587079E
:103B60002ED596052CD5226C02B19D6994F83D2086
:103B700002F02802282A16D15A6822F480625A607C
:103B80002F066FEA95014FF0000301F0010154BFC9
:103B9000A289228B84F83C302046FFF7ECFA19E525
:103BA0009D695869DBE700220C9259690C919B6969
:103BB0000C930C9B84F83C200CE500BF48180020B7
:103BC000C60640F1B180950540F1AE8094F83D50B5
:103BD0005A6822F4E0625A6000220D925A690D92EE
:103BE0001A6842F001021A600D9A1A6822F4806283
:103BF0001A605A681005EDB220D505F0F702222AA6
:103C00004AD1A06B0268526892B26285628D92B20C
:103C10001AB1226C42F0040222645A6822F4006253
:103C20005A60FEF7A9FB012808D0A06B794B036509
:103C3000FEF7D2FA10B1A06B036D9847638D9BB26B
:103C400013B323685A69510709D51A69636A1A7050
:103C5000636A01336362638D013B9BB263852368B2
:103C60005A69520609D51A69636A1A70636A013380
:103C70006362638D013B9BB26385638D9BB21BB115
:103C8000236C43F004032364236C13B320460FB06A
:103C9000BDE8F040FFF7DABB606B0268526892B291
:103CA0006285628D92B21AB1226C42F004022264E3
:103CB0005A6822F400625A60FEF75EFB0128BDD00C
:103CC000606B544B0365FEF787FA0028B6D0606B33
:103CD000B2E72A2D06D12363282384F83D302046FD
:103CE000FFF748FA94F83D30282B0CD14A4BE36299
:103CF000202200232363204684F83D2084F83E30B0
:103D0000FFF73AFA66E4236B222B02D0222D7FF4D0
:103D100061AC00232022236384F83D2084F83E30E8
:103D20002046FFF727FA55E401F0F7012129C0F3F7
:103D3000800535D1070627D5560525D53DBB94F816
:103D40003D00628D92B2C0B2002A3FF443AC626A79
:103D500012F8015B1D616262628D013A92B2628566
:103D6000628D92B2002A7FF435AC29287FF432AC00
:103D70005A6822F480625A6028232163204684F81E
:103D80003D30FFF7F6F925E4002D3FF423AC95050F
:103D90007FF520AC628D92B2002A7FF4AEAD19E4BB
:103DA000400627D5510525D53DBB94F83D20618DB2
:103DB00089B2D2B200293FF40DAC1969636A197057
:103DC000636A01336362638D013B9BB26385638DDC
:103DD0009BB2002B7FF4FEAB2A2A7FF4FBAB226858
:103DE000536823F48063536022232363282384F8D9
:103DF0003D3095E7002D3FF4EDAB92057FF5EAAB42
:103E0000628D92B2002A3FF4E5AB1A69636A1A70B8
:103E10004DE600BF8D3300080000FFFFF8B50368D2
:103E20005F695E6890F83E20C7F300250446D2B271
:103E300035B1C6F300251DB16FF4807159610125BC
:103E4000B80506D5F10542BF6FF4007145F00205D3
:103E50005961780536D5F10534D5608D94F83D105B
:103E6000D4F830C0202A80B2C9B25FD100285DD119
:103E700001F0F700212804D0282957D1BCF1210FE7
:103E800054D194F83D20E16A0829D2B201D020290A
:103E90002AD1282A28D12E4AE2625A6822F4E06206
:103EA0005A606FF480625A611A6822F480621A6064
:103EB000002320222363204684F83D2084F83E30EE
:103EC000FFF75AF93A053FD5F3053DD523686FF45E
:103ED000006245F008055A61236C1D4325642046A5
:103EE000BDE8F840FFF7B2BA212A1BD11849E162B8
:103EF00022630021202284F83D2084F83E105A6875
:103F000022F4E0625A606FF480625A611A6822F407
:103F100080621A605A69100648BF19612046FFF78F
:103F200028F9CFE76FF480625A61CBE76FF48061C4
:103F3000102A596145F0040501D0402AC2D11A68FF
:103F400042F400721A60BDE7002DC5D1F8BD00BF74
:103F50000000FFFFF7B5044610B390F895340568EC
:103F600003F0FF021BB980F894242AF07FFB03239F
:103F7000B5F1A04F84F8953404BF0023A3712068E5
:103F800002F0B8FC237C8DF80030251D95E80E006A
:103F9000206802F0F0FB014620B1022384F895343A
:103FA00001254CE0206802F0ABFC0028F5D1267911
:103FB00004F1140301270246C1B28E4203F1240327
:103FC00017D8002104F515730A46C8B2864203F1DA
:103FD00024031CD8237C8DF8003095E80E0020685F
:103FE00002F00AFD01230546E8B1022284F8952477
:103FF000D6E723F80A0C03F8237C03F8241C03F803
:10400000202C43E9072243F8142C0130D4E703F8AD
:10401000232C03F8240C03F8202C43E9072243F84F
:10402000142C0131D1E7607484F89534237B012B83
:1040300002D1204600F008FD206803F010F8284661
:1040400003B0F0BD90F89434012B10B5044616D09F
:104050000068012384F89434C3685B0606D5637B4B
:10406000012B02BF836B43F48033836302F03CFC7B
:10407000206802F0E6FF002084F8940410BD0220BE
:10408000FCE790F89424012A10B504460AD00122D6
:1040900080F894246174006802F0C3FF002084F863
:1040A000940410BD0220FCE770B501F00F05044632
:1040B00011F0800F05EBC5004FEA80004FF0240699
:1040C00020D006FB054600F1140101202144707543
:1040D000C2F30A028A604A780D700B7102B14D83F7
:1040E000022B04BF00234B7194F89434012B12D09F
:1040F000012384F89434206802F043FD002084F802
:10410000940470BD06FB054600F51571002021449E
:1041100086F85502DCE70220F3E710B5044601F00B
:104120000F0000EBC00311F0800F4FEA83034FF044
:10413000240215D002FB004203F1140101232144A3
:104140005375087094F89434012B12D0012384F82D
:104150009434206802F054FD002084F8940410BDCB
:1041600002FB004203F515710023214482F8553209
:10417000E7E70220F3E738B501F00F05242404FB3C
:10418000050104FB050401F51571C4F86432002330
:10419000C4F86022C4F8683284F8553284F8545266
:1041A00083790068012B08BFC4F870221A4602F018
:1041B000CFFD002038BD242301F00F0103FB0101D6
:1041C000D1F86802704738B501F00F05242404FBCC
:1041D000050104FB0504C4E908230023A3620123AD
:1041E0006375257583790068012B08BF226314313C
:1041F0001A4602F0ADFD002038BD38B5037901F054
:104200000F05AB4204462DD311F0800F4FF024026E
:104210001ED002FB050102FB0503012214334A757F
:1042200001229A701D7094F8941491421CD084F865
:1042300094241946206802F0A0FE2DB904F29C4295
:10424000A179206802F05CFF002084F8940438BD56
:1042500002FB010302FB0101002203F5157381F843
:104260005522DDE70120F2E70220F0E738B50379B7
:1042700001F00F029342044629D302EBC20311F06E
:10428000800F4FEA83034FF0240017D000FB024059
:1042900003F1140101232144437500258D700A7038
:1042A00094F89434012B14D0012384F894342068BA
:1042B00002F08EFE84F89454284638BD00FB02407C
:1042C00003F515710023214480F85532E5E70120FC
:1042D000F3E70220F1E701F00F0303EBC3030A0643
:1042E0004FEA83034CBF03F1140103F51571014438
:1042F000006802F0D7BC00002DE9F04F056889B0D6
:104300000446284602F0E8FE0390002840F072813F
:10431000206802F0B2FE002800F06C8105F500660E
:10432000B3682068C3F30D23C4F8D43402F0A5FEAB
:10433000810748BF2268206842BF536903F0020327
:10434000536102F09AFEC2062AD52268936923F0CF
:10435000100393612F6AC7F34343022B07F00F0941
:1043600040F04B8147F6F0731F4214D0C7F30A1890
:10437000242707FB09474246D7F86012284602F077
:10438000D7FDD7F860324344C7F86032D7F86832B7
:104390004344C7F868322268936943F0100393617D
:1043A000206802F06AFE030300F13B81206802F0FE
:1043B00064FE47030DD527464FF0000857F8170B4A
:1043C00002F067FE05F5106A0490049B002B40F094
:1043D0000182206802F051FE002813DA736823F08E
:1043E0000103736094F8CC34012B40F0AB820021C0
:1043F00084F8CC14204600F03AFB2268536903F09D
:1044000000435361206802F038FE01050AD5B36805
:10441000DA0702D520462AF099F92268536903F495
:1044200000635361206802F028FE030114D523685D
:104430005A6902F000625A6194F8CC24002A40F0D4
:1044400085825B6D0121C3F3830384F8CC14C4F827
:10445000D034204600F00BFB206802F00EFEC704AB
:1044600033D57368206823F001037360102102F0D4
:1044700077FA207905F510634FF67F31039A904261
:1044800000F26882F36943F00113F361E37B002BD0
:1044900000F07882D6F8843043F00B03C6F88430FD
:1044A000736C43F00B037364D5F80038206823F471
:1044B000FE63C5F8003804F29C42A17902F020FEA8
:1044C0002268536903F480535361206802F0D5FDDC
:1044D000800416D5206802F003FE206802F046FB37
:1044E000E071276800F08CFBE2790146384602F063
:1044F00087F920462AF017F92268536903F400531C
:104500005361206802F0B9FD010707D520462AF063
:1045100006F92268536903F008035361206802F02A
:10452000ACFD020600F13982206802F0A6FDC3024C
:104530000DD505F5126801274FF024092379BB42F8
:1045400000F242822268536903F4801353612068A9
:1045500002F093FD870230D594F804C005F532616E
:1045600001234FF0240E9C4522D90EFB03470A6815
:1045700097F85882B8F1010F40F03A82002A80F291
:104580003782D4F8D40402F4803200F00100824271
:1045900040F02E8287F85782AA6942F08002AA6111
:1045A0006A69100600F12482736843F40073736033
:1045B0002268536903F400135361206802F05DFD23
:1045C000410007D520462AF0E5F82268536903F038
:1045D00080435361206802F050FD42070AD52368EA
:1045E0005D686B0702D520462AF0D8F82268536828
:1045F0002B43536009B0BDE8F08F062B7FF4CBAEA0
:10460000082204F29C41284602F092FC242303FB7A
:104610000949C7F30A17D9F868321F44C9F8687204
:10462000B9E62068DFF8D4B302F02BFD00278246FC
:10463000BAF1000F3FF4BAAE1AF0010F00F08A8011
:104640005FFA87F94946206802F02BFD10F0010F50
:10465000804620D07B0105F530621A440121D4F850
:1046600000E0916094F806C0DEF840100EF530626C
:104670001344BCF1010F9A6840F09780100706D5EB
:10468000594508D9120406D54FF4004202E09006BD
:1046900064D520229A6018F0080F21D07B0105F51F
:1046A00030621A44082191602268116C02F5306270
:1046B000134459459A6804D9120444BF4FF4004288
:1046C0009A60204604912AF013F80499594507D9B5
:1046D000A179012904D104F29C42206802F010FD66
:1046E00018F0100F1FBF05F5306303EB47131022BE
:1046F0009A6018F0020F1AD06B691B0642BF7368EC
:1047000043F480637360242303FB074393F8572229
:10471000012A06D1002283F85722494620462AF072
:1047200031F805F5306303EB471302229A6018F065
:10473000200F1FBF05F5306303EB471320229A605B
:1047400018F4005F1FBF05F5306303EB47134FF408
:1047500000529A6001374FEA5A0A69E712F0280FAF
:1047600099D1594501D912048ED4242202FB074263
:104770001969D2F87432C1F312015B1AC2F86832B7
:1047800077B9D4F8642232B904F29C420121704610
:1047900002F0B6FC04E0D4F860221344C4F860329E
:1047A0004946204629F0AAFF75E79348814207D180
:1047B00010043FF569AF9106F2D520229A60EFE729
:1047C000002FEDD1D4F86432002BE9D104F29C42E1
:1047D0003946DCE7049BD80740F189805FFA88FB03
:1047E0005946206802F066FC10F0010F814624D083
:1047F0000121736B08F00F0201FA02F223EA0203AF
:1048000073630AEB48130A469960A179914210D16B
:10481000D7F80930D7F805201344C7F80930B8F1A4
:10482000000F06D1636A23B904F29C42206802F0AB
:1048300067FC5946204629F06AFF19F0080F1EBF91
:104840000AEB481308229A6019F0100F1EBF0AEBFA
:10485000481310229A6019F0400F1EBF0AEB48134C
:1048600040229A6019F0020F10D04146284602F00B
:1048700077F83B78012B05D100233B705946204641
:1048800029F084FF0AEB481302229A6019F0800F86
:104890002DD0D7F81120D7F80D309A4227D89B1A7F
:1048A000D7F8052021680591934228BF13460333AA
:1048B0009B08069301F5106303EB48130793079BCE
:1048C00006989969D7F81120D7F80D3089B281423E
:1048D00014D293420BD8059B08F00F01D3F834286B
:1048E000012000FA01F122EA0102C3F83428049BF6
:1048F0005B0808F101080493243766E59342EAD97E
:10490000002BE8D0A3EB0209D7F8053005989945AC
:1049100028BF994609F103039B080693A3790093E6
:104920005A461FFA89F3D7F8091002F0FCF9D7F8B4
:1049300009304B44C7F80930D7F811304B44C7F859
:104940001130BCE7204629F019FF56E5204629F032
:10495000FDFE81E599601A6822F400121A60C3F81E
:104960000812D3F8002222F40012C3F80022D3F870
:10497000002242F00062C3F80022039A013203923F
:1049800020337BE5736943F4005343F02B037361D9
:10499000336943F00B03336186E5AB6923F0800391
:1049A000AB6101274FF024082379BB427FF6BCADF1
:1049B00008FB074393F85732012B03D1F9B2204685
:1049C000FFF789FC0137EFE709FB0743D8F8001030
:1049D0001A7E012A08D1002906DA67F07F01DA750C
:1049E000C9B22046FFF777FC013708F12008A5E59A
:1049F00001332031B7E500BF0A31544F0A30544F1C
:104A0000006870B51204446A19B92243826200201A
:104A100070BD836A4D1E04EB134400235E1CDBB2A1
:104A20009D4205D83F3100EB810022434260EEE712
:104A3000403300EB83035B6804EB13443346EDE73C
:104A40000368002059627047026803460121C0F8DC
:104A5000D814002083F8CC04936943F00063936179
:104A6000536D43F0805343F0030353657047704721
:104A7000134908B58B6803F00C03042B03D0082BF3
:104A800003D0104800E0104808BD4A684B684968E8
:104A900013F4800314BF0C480A48C1F3881118BFEF
:104AA000002302F03F02A1FB0001FCF79DFC044B38
:104AB0005B68C3F3014301335B00B0FBF3F0E3E752
:104AC000003802400024F40040787D012DE9F041D7
:104AD0000D46044610B90120BDE8F081434B1A6829
:104AE00002F007028A4228D321688F072DD4C80715
:104AF00040D43E4B1A6802F00702AA4265D82268E9
:104B000051076BD4130707D5394A2169936823F4F9
:104B1000604343EAC1039360FFF7AAFF344B354A71
:104B20009B68C3F30313D35CD840334B1860334BFB
:104B30001868FCF7F9FD0020CEE7CAB21A701B68AE
:104B400003F007038B42C6D1CEE7294B11F0040FC7
:104B50001EBF9A6842F4E0529A600E0742BF9A68FC
:104B600042F460429A609A68A06822F0F002024320
:104B70009A60BCE762681E4B012A1CD11B6813F4C3
:104B8000003FA8D01A4EB36823F003031343B36069
:104B9000FCF714FE41F288380746B368626803F0F8
:104BA0000C03B3EB820FA4D0FCF708FEC01B4045FA
:104BB000F3D9032090E7911E01291B6802D813F056
:104BC000007FDEE713F0020FDBE7EAB21A701B6822
:104BD00003F00703AB427FF47EAF90E70449E0683F
:104BE0008B6823F4E05303438B608BE7003C024067
:104BF000003802405CF4050848180020040000203A
:104C0000014B1868704700BF48180020044B054A44
:104C10009B68C3F38223D35C034A1068D840704773
:104C2000003802406CF4050848180020044B054A7F
:104C30009B68C3F34233D35C034A1068D840704783
:104C4000003802406CF40508481800200F23036068
:104C50000B4B9A6802F0030242609A6802F0F0027D
:104C600082609A6802F4E052C2609B68DB0803F439
:104C7000E0530361034B1B6803F007030B607047AD
:104C800000380240003C024002682DE9F34112F076
:104C9000010504460BD08E494569D1F88C3023F0CC
:104CA000C0632B43B5FA85F5C1F88C306D099607C2
:104CB0000BD58748A169D0F88C3023F0C0530B4343
:104CC0000029C0F88C3008BF0125100730D500231B
:104CD00001937F4B7F4E1A6C42F080521A641B6C1A
:104CE00003F080530193019B336843F48073336076
:104CF000FCF764FD07463368D9055CD5744E336F05
:104D000013F4407360D1E36903F44072B2F5407F5D
:104D10006F4A78D1916823F0704021F4F81120F4A3
:104D2000407001439160116FC3F30B030B43136792
:104D300023685F0742BF684B94F838201A602268E6
:104D4000D60608D56249606AD1F8943023F440034E
:104D50000343C1F8943090060CD55D48A16AD0F8A1
:104D6000943023F000630B43B1F1006FC0F894302E
:104D700008BF0125510608D55549206AD1F894305D
:104D800023F080530343C1F89430012D3FD0802A93
:104D90003DD02068C20500F1908010F4007010D062
:104DA0004B4A216BD2F88C3023F400430B43C2F8FA
:104DB0008C30002005E0FCF701FDC01B02289AD9C9
:104DC000032002B0BDE8F081E26902F44072934230
:104DD00099D0336F414A0121116023F440730021BF
:104DE00011603367336FDA078DD5FCF7E7FC41F2CA
:104DF00088380746336F9B0785D4FCF7DFFCC01B60
:104E00004045F7D9DCE7916821F4F8118AE7344D81
:104E10002F4E00232B60FCF7D1FC074633681B01A3
:104E200045D4304B626B1A602268D70701D563699D
:104E30008BB1960701D5A3696BB1900603D5A36A20
:104E4000B3F1006F07D0510612D5236A83B9A36A64
:104E5000B3F1006F0CD1D4E902131B0643EA8113AE
:104E600061680B43216943EA01731949C1F8843031
:104E700012060CD5D4E902231B0643EA82136268AA
:104E80001343226943EA0273114AC2F884300123B2
:104E90002B60FCF793FC0E4D06462B681B013FF57B
:104EA00078AFFCF78BFC801B0228F6D988E7FCF76B
:104EB00085FCC01B0228B1D982E7054AE16AD2F815
:104EC0008C3023F000430B43C2F88C3065E700BF01
:104ED0000038024000700040E0114742400E474257
:104EE00068004742D810474270B5414CFCF766FC59
:104EF000236843F00103054623602368980757D5CC
:104F0000236843F080032360FCF758FC0023A36070
:104F1000374C054641F28836A36813F00C0F4ED18A
:104F2000FCF74CFC236823F450232360304C0546E7
:104F30002368990349D4FCF741FC236823F080736C
:104F400023602B4C054623689A0144D4FCF736FCB9
:104F5000236823F080632360254C054623681B01EA
:104F60003FD4244B6360C4F88430E368224A23F4BE
:104F7000F853E360E36823F40053E360E36843F429
:104F80001F03E360E36843F40013E360636F23F0FF
:104F900001036367636F43F080736367174B1A60A5
:104FA000174B1868FCF7C0FB003018BF012005E064
:104FB000FCF704FC401B02289FD9032070BDFCF7BE
:104FC000FDFB401BB042A7D9F7E7FCF7F7FB401BFE
:104FD0006428ADD9F1E7FCF7F1FB401B0228B2D9F8
:104FE000EBE7FCF7EBFB401B0228B7D9E5E700BF76
:104FF00000380240103000240024F400481800203B
:10500000040000202DE9F341044608B901203FE0E7
:105010000368DD0710D4236898075AD423681A0759
:1050200000F19C8023685B0700F1BA80A06900282A
:1050300040F01B8100202BE0A54B9A6802F00C0287
:10504000042A07D09A6802F00C02082A0AD15B6889
:10505000590207D59E4B1B689A03DCD56368002B69
:10506000D9D1D3E763689A4DB3F5803F13D12B684C
:1050700043F480332B60FCF7A1FB954D06462B686B
:105080009B03C8D4FCF79AFB801B6428F7D9032044
:1050900002B0BDE8F081B3F5A02F04D12B6843F432
:1050A00080232B60E3E72A6822F480322A602A6892
:1050B00022F480222A60002BDDD1FCF77FFB06461C
:1050C0002B689F03A7D5FCF779FB801B6428F7D9D1
:1050D000DDE77F4B9A6812F00C0F07D09A6802F058
:1050E0000C02082A11D15B685E020ED4784B1A6854
:1050F000950702D5E268012A88D11A68216922F051
:10510000F80242EAC1021A6088E7E268714BB2B164
:1051100001221A60FCF752FB6D4D06462B6898077A
:1051200007D52B68226923F0F80343EAC2032B60FA
:1051300074E7FCF743FB801B0228EFD9A7E71A604E
:10514000FCF73CFB624D06462B6899077FF566AF7E
:10515000FCF734FB801B0228F6D998E762695E4BA6
:105160007AB101221A60FCF729FB594D06466B6F94
:105170009F073FF557AFFCF721FB801B0228F6D9AC
:1051800085E71A60FCF71AFB514D06466B6F9807CE
:105190007FF548AFFCF712FB801B0228F6D976E7B3
:1051A0004B4B1A6C12F0805228D101921A6C42F0CB
:1051B00080521A641B6C03F080530193019B0126FB
:1051C000464D2B68D9051BD5A368414D012B27D12E
:1051D0002B6F43F001032B67FCF7F0FA3C4D0746B9
:1051E00041F288382B6F9B0739D5002E3FF41EAF54
:1051F000374A136C23F08053136417E70026DFE768
:105200002B6843F480732B60FCF7D8FA07462B68B1
:10521000DA05D9D4FCF7D2FAC01B0228F7D936E751
:10522000052B04D12B6F43F004032B67D0E72A6FC3
:1052300022F001022A672A6F22F004022A67002B5B
:10524000CAD1FCF7BBFA41F2883807462B6F9807A2
:10525000CBD5FCF7B3FAC01B4045F7D917E7FCF7ED
:10526000ADFAC01B4045BDD911E7194DAB6803F03D
:105270000C03082B49D01A4E00230228336037D183
:10528000FCF79CFA07462B6899012BD4D4E9073226
:105290001343626A43EA8213E26A43EA0263226BBF
:1052A00043EA0273A26A0A4C5208013A43EA0243F3
:1052B0006B6001233360FCF781FA054623689A018D
:1052C0003FF5B8AEFCF77AFA401B0228F6D9DEE6C5
:1052D0000038024000004742800E47420070004004
:1052E00060004742FCF76AFAC01B0228CBD9CEE621
:1052F000FCF764FA04462B689B017FF59BAEFCF734
:105300005DFA001B0228F6D9C1E601283FF4C0AEC1
:105310006B68E26903F4800191427FF477AE216A01
:1053200003F03F028A427FF471AE616A47F6C072B1
:105330001A40B2EB811F7FF469AEA26A520803F4EF
:105340004031013AB1EB024F7FF460AEE16A03F005
:105350007062B2EB016F7FF459AE226B03F0E04351
:10536000B3EB027F14BF0120002091E60F230360FE
:10537000264B1A6852033BD54FF4A02242601B68AB
:1053800013F0010318BF0123C360204B1A68C2F356
:10539000C40202611A6F510731D5052282605B6F2A
:1053A00013F0010318BF01234361184B1A68D2019F
:1053B0004CBF0222012282615A6802F48002C2615B
:1053C0005A6802F03F0202625A68C2F388124262CF
:1053D0005A6802F4403202F58032D20B82625A6877
:1053E000C2F30362C2625B68C3F302730363704774
:1053F0001A6812F4803218BF4FF48032BEE71A6F79
:1054000012F0010218BF0122C8E700BF00380240B5
:105410007047000038B50368094ADA600446FCF7B3
:10542000CDF905462368DB689B0601D5002038BD11
:10543000FCF7C4F9401BB0F57A7FF3D90320F6E7F7
:105440005F3F0100F8B50368DC6814F040040546CE
:1054500017D1DA6842F08002DA60FCF7AFF904276E
:1054600006462B68DB685B0600D40CB12046F8BD0D
:10547000FCF7A4F9801BB0F57A7F84BF6F77012415
:10548000EFE70024F2E70368DA6822F0800210B543
:10549000DA609B689B06044601D5002010BDFFF72B
:1054A000B9FF0028F9D0042363770120F6E710B58F
:1054B0000446002841D0437F03F0FF0213B902776E
:1054C000FFF7A6FF022363772368DA68D20603D5C5
:1054D00001236377002010BDCA225A6253225A6208
:1054E0002046FFF7AFFF10BB236820699A6822F4BB
:1054F000E00222F040029A606268996802436069A3
:1055000002430A439A60E2681A611A69A16842EA92
:1055100001421A612046FFF7B6FF40B92368A1692E
:105520001A6C22F480221A641A6C0A431A642368E3
:10553000FF225A620028CBD0CDE70120CBE7002321
:10554000092803D840EA0310C0B270470A38013373
:10555000C0B2F5E7037F012B2DE9F04106460F4667
:105560004FF0020041D001233168337770773878EB
:105570007D78BC788B68002A39D113F0400308BFCE
:10558000FB70FFF7DCFF80462846FFF7D8FF024696
:105590002046FFF7D4FFFB7840EA835040EA0840FA
:1055A00040EA0224CA234B6253234B623046FFF782
:1055B00049FFA8B9336804F07F3424F0FE441C602E
:1055C0009A6822F480229A60D7E9032099680243FE
:1055D0000A439A603046FFF756FF08B901237377F4
:1055E0003368FF225A6200233377BDE8F08113F05D
:1055F00040034FEA052508BFFB7045EA0040204301
:10560000FC7840EA8454CDE7F8B5037F012B0646C9
:105610004FF0020037D00123337770770D78C878C8
:105620004C788F786D037ABBE30603D524F0100421
:105630000A344C70FFF783FF02464878FFF77FFF7C
:1056400004463846FFF77BFF284340EA02403368B0
:10565000CA225A62532240EA04245A623046FFF7B3
:10566000F1FE58B9336824F07F4424F0C0045C6034
:105670003046FFF708FF08B9012373773368FF222C
:105680005A6200233377F8BD45EA00403843DEE72D
:10569000030903EB830300F00F0000EB4300C0B2EB
:1056A000704738B50368986A486018691B6803F04A
:1056B0007F3323F0FE43C0F30E00C3F30625DCB2B4
:1056C0008860C3F305409B0D08704D708C70CB70E3
:1056D00052B9FFF7DDFF08702846FFF7D9FF487081
:1056E0002046FFF7D5FF8870002038BD38B5036825
:1056F0005B6823F07F4323F0C003180CC3F3042539
:10570000DCB2C3F34233C8704D708C700B7052B969
:10571000FFF7BEFFC8702846FFF7BAFF4870204663
:10572000FFF7B6FF8870002038BD00002DE9F74371
:105730001E46884617460546FCF740F80A9C344446
:10574000241AFCF73BF8254B1B68C3F3CB33814687
:1057500063432A680193936838EA03030CBF01236B
:105760000023BB4201D100202EE0731CF3D0FCF7D4
:1057700025F8A0EB0900A04229D32B685A6822F033
:10578000E0025A606A68B2F5827F0AD1AA68B2F56F
:10579000004F02D0B2F5806F03D11A6822F04002A8
:1057A0001A60AA6AB2F5005F07D11A6822F40052A3
:1057B0001A601A6842F400521A60012385F85130C9
:1057C000002385F85030032003B0BDE8F083019B2F
:1057D000002B019B08BF0024013BBAE748180020BA
:1057E000F0B585B00B4600920E4617460221012205
:1057F0000446FFF79BFF054628B1636D43F0200385
:105800006365032515E0124B124A1B68B3FBF2F2E5
:105810004FF47A73534303936368B3F5827F0BD1DC
:1058200002460097334680212046FFF77FFF00287D
:10583000E3D1284605B0F0BD039B002BF9D0039BB4
:10584000013B039323689B681B06F5D4F1E700BF77
:105850004818002000366E0137B50B464168B1F597
:10586000827F044622D18168B1F5004F02D0B1F5A4
:10587000806F07D125682868B1F5806F20F040005F
:10588000286009D00092802100222046FFF74EFFB9
:1058900030B9002003B030BD009201210022F4E7AE
:1058A000636D43F0200363650320F3E70092012159
:1058B0000022EBE7704738B5044600285AD0436A07
:1058C000002B53D14268B2F5827F00D0C36194F8B7
:1058D000513003F0FF0223B984F850202046FFF72F
:1058E000E9FF2168A568A269A06A022384F8513003
:1058F0000B6823F040030B60636805F4044503F470
:1059000082732B43E56805F400652B43256905F098
:1059100002052B43656905F001052B4302F4007570
:105920002B43E56905F038052B43256A05F0800512
:105930002B4300F400552B430B60636A120C03F0F9
:105940001003B0F5005F02F0040242EA030208BF50
:10595000A38D4A6008BF0B61CB6923F40063CB6160
:1059600000200123606584F8513038BD0023C0E970
:105970000433ACE70120F8E738B5044690F851004D
:10598000C0B2012859D1002942D0002A40D094F851
:105990005030012B51D0032384F85130002363652C
:1059A000A363E286C4E91033A387E387A368A286D2
:1059B000B3F5004F84F850002163226807D11368C3
:1059C00023F040031360136843F480431360A36A19
:1059D000B3F5005F07D1136823F400531360136815
:1059E00043F400531360A06C154B0364154BC36361
:1059F0000025154BC3640565E38E0C32FCF7B2FB42
:105A000038B1636D84F8505043F010036365012092
:105A100038BD23681A6852065EBF1A6842F0400219
:105A20001A60002284F850205A6842F020025A601E
:105A30005A6842F002025A60EAE70220E8E700BF33
:105A40006D5C0008B35C0008915C000870B504460A
:105A500090F85100C0B2012808D06568B5F5827F82
:105A600079D1A568002D76D1042874D1002945D0BC
:105A7000002A43D0002B41D094F8500001286AD06E
:105A8000012084F8500094F85100A38604281CBF1C
:105A9000052084F8510000206065A387E386E38732
:105AA000A36A2163B3F5005FA263C4E91000216813
:105AB00007D10B6823F400530B600B6843F40053C9
:105AC0000B6094F85130E06C042B0BBF234B244B3C
:105AD000036403640CBF234B234BC3630026234B97
